{"abi":[{"type":"constructor","inputs":[{"name":"name","type":"string","internalType":"string"},{"name":"symbol","type":"string","internalType":"string"},{"name":"_asset","type":"address","internalType":"contract IERC20"}],"stateMutability":"nonpayable"},{"type":"function","name":"allowance","inputs":[{"name":"owner","type":"address","internalType":"address"},{"name":"spender","type":"address","internalType":"address"}],"outputs":[{"name":"","type":"uint256","internalType":"uint256"}],"stateMutability":"view"},{"type":"function","name":"approve","inputs":[{"name":"spender","type":"address","internalType":"address"},{"name":"value","type":"uint256","internalType":"uint256"}],"outputs":[{"name":"","type":"bool","internalType":"bool"}],"stateMutability":"nonpayable"},{"type":"function","name":"asset","inputs":[],"outputs":[{"name":"","type":"address","internalType":"contract IERC20"}],"stateMutability":"view"},{"type":"function","name":"balanceOf","inputs":[{"name":"account","type":"address","internalType":"address"}],"outputs":[{"name":"","type":"uint256","internalType":"uint256"}],"stateMutability":"view"},{"type":"function","name":"decimals","inputs":[],"outputs":[{"name":"","type":"uint8","internalType":"uint8"}],"stateMutability":"view"},{"type":"function","name":"deposit","inputs":[{"name":"assets","type":"uint256","internalType":"uint256"},{"name":"receiver","type":"address","internalType":"address"}],"outputs":[{"name":"","type":"uint256","internalType":"uint256"}],"stateMutability":"nonpayable"},{"type":"function","name":"name","inputs":[],"outputs":[{"name":"","type":"string","internalType":"string"}],"stateMutability":"view"},{"type":"function","name":"symbol","inputs":[],"outputs":[{"name":"","type":"string","internalType":"string"}],"stateMutability":"view"},{"type":"function","name":"totalSupply","inputs":[],"outputs":[{"name":"","type":"uint256","internalType":"uint256"}],"stateMutability":"view"},{"type":"function","name":"transfer","inputs":[{"name":"to","type":"address","internalType":"address"},{"name":"value","type":"uint256","internalType":"uint256"}],"outputs":[{"name":"","type":"bool","internalType":"bool"}],"stateMutability":"nonpayable"},{"type":"function","name":"transferFrom","inputs":[{"name":"from","type":"address","internalType":"address"},{"name":"to","type":"address","internalType":"address"},{"name":"value","type":"uint256","internalType":"uint256"}],"outputs":[{"name":"","type":"bool","internalType":"bool"}],"stateMutability":"nonpayable"},{"type":"event","name":"Approval","inputs":[{"name":"owner","type":"address","indexed":true,"internalType":"address"},{"name":"spender","type":"address","indexed":true,"internalType":"address"},{"name":"value","type":"uint256","indexed":false,"internalType":"uint256"}],"anonymous":false},{"type":"event","name":"Transfer","inputs":[{"name":"from","type":"address","indexed":true,"internalType":"address"},{"name":"to","type":"address","indexed":true,"internalType":"address"},{"name":"value","type":"uint256","indexed":false,"internalType":"uint256"}],"anonymous":false},{"type":"error","name":"ERC20InsufficientAllowance","inputs":[{"name":"spender","type":"address","internalType":"address"},{"name":"allowance","type":"uint256","internalType":"uint256"},{"name":"needed","type":"uint256","internalType":"uint256"}]},{"type":"error","name":"ERC20InsufficientBalance","inputs":[{"name":"sender","type":"address","internalType":"address"},{"name":"balance","type":"uint256","internalType":"uint256"},{"name":"needed","type":"uint256","internalType":"uint256"}]},{"type":"error","name":"ERC20InvalidApprover","inputs":[{"name":"approver","type":"address","internalType":"address"}]},{"type":"error","name":"ERC20InvalidReceiver","inputs":[{"name":"receiver","type":"address","internalType":"address"}]},{"type":"error","name":"ERC20InvalidSender","inputs":[{"name":"sender","type":"address","internalType":"address"}]},{"type":"error","name":"ERC20InvalidSpender","inputs":[{"name":"spender","type":"address","internalType":"address"}]}],"bytecode":{"object":"0x60806040523461034057610c878038038061001981610344565b9283398101906060818303126103405780516001600160401b0381116103405782610045918301610369565b60208201519092906001600160401b03811161034057604091610069918401610369565b9101516001600160a01b038116908190036103405782516001600160401b03811161025157600354600181811c91168015610336575b602082101461023357601f81116102d3575b506020601f821160011461027057819293945f92610265575b50508160011b915f199060031b1c1916176003555b81516001600160401b03811161025157600454600181811c91168015610247575b602082101461023357601f81116101d0575b50602092601f821160011461016f57928192935f92610164575b50508160011b915f199060031b1c1916176004555b600580546001600160a01b0319169190911790556040516108cc90816103bb8239f35b015190505f8061012c565b601f1982169360045f52805f20915f5b8681106101b857508360019596106101a0575b505050811b01600455610141565b01515f1960f88460031b161c191690555f8080610192565b9192602060018192868501518155019401920161017f565b60045f527f8a35acfbc15ff81a39ae7d344fd709f28e8600b4aa8c65c6b64bfe7fe36bd19b601f830160051c81019160208410610229575b601f0160051c01905b81811061021e5750610112565b5f8155600101610211565b9091508190610208565b634e487b7160e01b5f52602260045260245ffd5b90607f1690610100565b634e487b7160e01b5f52604160045260245ffd5b015190505f806100ca565b601f1982169060035f52805f20915f5b8181106102bb575095836001959697106102a3575b505050811b016003556100df565b01515f1960f88460031b161c191690555f8080610295565b9192602060018192868b015181550194019201610280565b60035f527fc2575a0e9e593c00f959f8c92f12db2869c3395a3b0502d05e2516446f71f85b601f830160051c8101916020841061032c575b601f0160051c01905b81811061032157506100b1565b5f8155600101610314565b909150819061030b565b90607f169061009f565b5f80fd5b6040519190601f01601f191682016001600160401b0381118382101761025157604052565b81601f82011215610340578051906001600160401b03821161025157610398601f8301601f1916602001610344565b928284526020838301011161034057815f9260208093018386015e830101529056fe6080806040526004361015610012575f80fd5b5f3560e01c90816306fdde03146106a857508063095ea7b31461062657806318160ddd1461060957806323b872dd1461052a578063313ce5671461050f57806338d52e0f146104e75780636e553f651461025557806370a082311461021e57806395d89b411461011a578063a9059cbb146100e95763dd62ed3e14610095575f80fd5b346100e55760403660031901126100e5576100ae61078a565b6100b66107a0565b6001600160a01b039182165f908152600160209081526040808320949093168252928352819020549051908152f35b5f80fd5b346100e55760403660031901126100e55761010f61010561078a565b60243590336107ec565b602060405160018152f35b346100e5575f3660031901126100e5576040515f6004548060011c90600181168015610214575b602083108114610200578285529081156101dc575060011461017e575b61017a8361016e818503826107b6565b60405191829182610760565b0390f35b91905060045f527f8a35acfbc15ff81a39ae7d344fd709f28e8600b4aa8c65c6b64bfe7fe36bd19b915f905b8082106101c25750909150810160200161016e61015e565b9192600181602092548385880101520191019092916101aa565b60ff191660208086019190915291151560051b8401909101915061016e905061015e565b634e487b7160e01b5f52602260045260245ffd5b91607f1691610141565b346100e55760203660031901126100e5576001600160a01b0361023f61078a565b165f525f602052602060405f2054604051908152f35b346100e55760403660031901126100e5576004356102716107a0565b81156104b4576005546040516370a0823160e01b8152306004820152906001600160a01b0316602082602481845afa918215610437575f9261047f575b5060205f916064604051809481936323b872dd60e01b83523360048401523060248401528960448401525af1801561043757610442575b506005546040516370a0823160e01b81523060048201529190602090839060249082906001600160a01b03165afa918215610437575f92610403575b5081039081116103975782036103be576001600160a01b03169081156103ab576002549181830180931161039757602092600255805f525f835260405f208281540190555f7fddf252ad1be2c89b69c2b068fc378daa952ba7f163c4a11628f55a4df523b3ef84604051858152a3604051908152f35b634e487b7160e01b5f52601160045260245ffd5b63ec442f0560e01b5f525f60045260245ffd5b60405162461bcd60e51b815260206004820152601d60248201527f6665652d6f6e2d7472616e73666572206e6f7420737570706f727465640000006044820152606490fd5b9091506020813d60201161042f575b8161041f602093836107b6565b810103126100e557519084610321565b3d9150610412565b6040513d5f823e3d90fd5b6020813d602011610477575b8161045b602093836107b6565b810103126100e557519081151582036100e557905060246102e5565b3d915061044e565b9091506020813d6020116104ac575b8161049b602093836107b6565b810103126100e557519060206102ae565b3d915061048e565b60405162461bcd60e51b815260206004820152600b60248201526a7a65726f2061737365747360a81b6044820152606490fd5b346100e5575f3660031901126100e5576005546040516001600160a01b039091168152602090f35b346100e5575f3660031901126100e557602060405160128152f35b346100e55760603660031901126100e55761054361078a565b61054b6107a0565b6001600160a01b0382165f818152600160209081526040808320338452909152902054909260443592915f198110610589575b5061010f93506107ec565b8381106105ee5784156105db5733156105c85761010f945f52600160205260405f2060018060a01b0333165f526020528360405f20910390558461057e565b634a1406b160e11b5f525f60045260245ffd5b63e602df0560e01b5f525f60045260245ffd5b8390637dc7a0d960e11b5f523360045260245260445260645ffd5b346100e5575f3660031901126100e5576020600254604051908152f35b346100e55760403660031901126100e55761063f61078a565b6024359033156105db576001600160a01b03169081156105c857335f52600160205260405f20825f526020528060405f20556040519081527f8c5be1e5ebec7d5bd14f71427d1e84f3dd0314c0f7b2291e5b200ac8c7c3b92560203392a3602060405160018152f35b346100e5575f3660031901126100e5575f6003548060011c90600181168015610756575b602083108114610200578285529081156101dc57506001146106f85761017a8361016e818503826107b6565b91905060035f527fc2575a0e9e593c00f959f8c92f12db2869c3395a3b0502d05e2516446f71f85b915f905b80821061073c5750909150810160200161016e61015e565b919260018160209254838588010152019101909291610724565b91607f16916106cc565b602060409281835280519182918282860152018484015e5f828201840152601f01601f1916010190565b600435906001600160a01b03821682036100e557565b602435906001600160a01b03821682036100e557565b90601f8019910116810190811067ffffffffffffffff8211176107d857604052565b634e487b7160e01b5f52604160045260245ffd5b6001600160a01b0316908115610883576001600160a01b03169182156103ab57815f525f60205260405f205481811061086a57817fddf252ad1be2c89b69c2b068fc378daa952ba7f163c4a11628f55a4df523b3ef92602092855f525f84520360405f2055845f525f825260405f20818154019055604051908152a3565b8263391434e360e21b5f5260045260245260445260645ffd5b634b637e8f60e11b5f525f60045260245ffdfea264697066735822122094a6f4d1e19e96a5bca5cdec36cbbba95875695daf520979aebaad5634ea293f64736f6c634300081a0033","linkReferences":{}},"methodIdentifiers":{"allowance(address,address)":"dd62ed3e","approve(address,uint256)":"095ea7b3","asset()":"38d52e0f","balanceOf(address)":"70a08231","decimals()":"313ce567","deposit(uint256,address)":"6e553f65","name()":"06fdde03","symbol()":"95d89b41","totalSupply()":"18160ddd","transfer(address,uint256)":"a9059cbb","transferFrom(address,address,uint256)":"23b872dd"},"id":18}