{"contracts/Router.sol":{"Router":{"abi":[{"type":"constructor","inputs":[{"name":"_admin","type":"address","internalType":"address"},{"name":"_feeRecipient","type":"address","internalType":"address"},{"name":"_defaultTarget","type":"address","internalType":"address"},{"name":"_srcChainId","type":"uint16","internalType":"uint16"}],"stateMutability":"nonpayable"},{"type":"function","name":"ADAPTER_ROLE","inputs":[],"outputs":[{"name":"","type":"bytes32","internalType":"bytes32"}],"stateMutability":"view"},{"type":"function","name":"DEFAULT_ADMIN_ROLE","inputs":[],"outputs":[{"name":"","type":"bytes32","internalType":"bytes32"}],"stateMutability":"view"},{"type":"function","name":"FEE_CAP_BPS","inputs":[],"outputs":[{"name":"","type":"uint16","internalType":"uint16"}],"stateMutability":"view"},{"type":"function","name":"MAX_PAYLOAD_BYTES","inputs":[],"outputs":[{"name":"","type":"uint256","internalType":"uint256"}],"stateMutability":"view"},{"type":"function","name":"ROUTE_INTENT_TYPEHASH_PUBLIC","inputs":[],"outputs":[{"name":"","type":"bytes32","internalType":"bytes32"}],"stateMutability":"pure"},{"type":"function","name":"SRC_CHAIN_ID","inputs":[],"outputs":[{"name":"","type":"uint16","internalType":"uint16"}],"stateMutability":"view"},{"type":"function","name":"acceptAdmin","inputs":[],"outputs":[],"stateMutability":"nonpayable"},{"type":"function","name":"adapter","inputs":[],"outputs":[{"name":"","type":"address","internalType":"address"}],"stateMutability":"view"},{"type":"function","name":"addAdapter","inputs":[{"name":"a","type":"address","internalType":"address"}],"outputs":[],"stateMutability":"nonpayable"},{"type":"function","name":"admin","inputs":[],"outputs":[{"name":"","type":"address","internalType":"address"}],"stateMutability":"view"},{"type":"function","name":"computeGlobalRouteId","inputs":[{"name":"srcChainId","type":"uint16","internalType":"uint16"},{"name":"dstChainId","type":"uint16","internalType":"uint16"},{"name":"initiator","type":"address","internalType":"address"},{"name":"messageHash","type":"bytes32","internalType":"bytes32"},{"name":"nonce","type":"uint64","internalType":"uint64"}],"outputs":[{"name":"","type":"bytes32","internalType":"bytes32"}],"stateMutability":"pure"},{"type":"function","name":"computeMessageHash","inputs":[{"name":"srcChainId","type":"uint16","internalType":"uint16"},{"name":"dstChainId","type":"uint16","internalType":"uint16"},{"name":"initiator","type":"address","internalType":"address"},{"name":"target","type":"address","internalType":"address"},{"name":"token","type":"address","internalType":"address"},{"name":"amount","type":"uint256","internalType":"uint256"},{"name":"nonce","type":"uint64","internalType":"uint64"},{"name":"payloadHash","type":"bytes32","internalType":"bytes32"}],"outputs":[{"name":"","type":"bytes32","internalType":"bytes32"}],"stateMutability":"pure"},{"type":"function","name":"defaultTarget","inputs":[],"outputs":[{"name":"","type":"address","internalType":"address"}],"stateMutability":"view"},{"type":"function","name":"eip712Domain","inputs":[],"outputs":[{"name":"fields","type":"bytes1","internalType":"bytes1"},{"name":"name","type":"string","internalType":"string"},{"name":"version","type":"string","internalType":"string"},{"name":"chainId","type":"uint256","internalType":"uint256"},{"name":"verifyingContract","type":"address","internalType":"address"},{"name":"salt","type":"bytes32","internalType":"bytes32"},{"name":"extensions","type":"uint256[]","internalType":"uint256[]"}],"stateMutability":"view"},{"type":"function","name":"enforceTargetAllowlist","inputs":[],"outputs":[{"name":"","type":"bool","internalType":"bool"}],"stateMutability":"view"},{"type":"function","name":"feeCollector","inputs":[],"outputs":[{"name":"","type":"address","internalType":"address"}],"stateMutability":"view"},{"type":"function","name":"feeRecipient","inputs":[],"outputs":[{"name":"","type":"address","internalType":"address"}],"stateMutability":"view"},{"type":"function","name":"finalizeMessage","inputs":[{"name":"globalRouteId","type":"bytes32","internalType":"bytes32"},{"name":"messageHash","type":"bytes32","internalType":"bytes32"},{"name":"asset","type":"address","internalType":"address"},{"name":"vault","type":"address","internalType":"address"},{"name":"lpRecipient","type":"address","internalType":"address"},{"name":"amount","type":"uint256","internalType":"uint256"},{"name":"protocolFee","type":"uint256","internalType":"uint256"},{"name":"relayerFee","type":"uint256","internalType":"uint256"}],"outputs":[],"stateMutability":"nonpayable"},{"type":"function","name":"freezeAdapter","inputs":[{"name":"a","type":"address","internalType":"address"},{"name":"frozen","type":"bool","internalType":"bool"}],"outputs":[],"stateMutability":"nonpayable"},{"type":"function","name":"frozenAdapter","inputs":[{"name":"","type":"address","internalType":"address"}],"outputs":[{"name":"","type":"bool","internalType":"bool"}],"stateMutability":"view"},{"type":"function","name":"getRoleAdmin","inputs":[{"name":"role","type":"bytes32","internalType":"bytes32"}],"outputs":[{"name":"","type":"bytes32","internalType":"bytes32"}],"stateMutability":"view"},{"type":"function","name":"grantRole","inputs":[{"name":"role","type":"bytes32","internalType":"bytes32"},{"name":"account","type":"address","internalType":"address"}],"outputs":[],"stateMutability":"nonpayable"},{"type":"function","name":"hasRole","inputs":[{"name":"role","type":"bytes32","internalType":"bytes32"},{"name":"account","type":"address","internalType":"address"}],"outputs":[{"name":"","type":"bool","internalType":"bool"}],"stateMutability":"view"},{"type":"function","name":"isAllowedTarget","inputs":[{"name":"","type":"address","internalType":"address"}],"outputs":[{"name":"","type":"bool","internalType":"bool"}],"stateMutability":"view"},{"type":"function","name":"lpShareBps","inputs":[],"outputs":[{"name":"","type":"uint16","internalType":"uint16"}],"stateMutability":"view"},{"type":"function","name":"pendingAdmin","inputs":[],"outputs":[{"name":"","type":"address","internalType":"address"}],"stateMutability":"view"},{"type":"function","name":"proposeAdmin","inputs":[{"name":"p","type":"address","internalType":"address"}],"outputs":[],"stateMutability":"nonpayable"},{"type":"function","name":"protocolFeeBps","inputs":[],"outputs":[{"name":"","type":"uint16","internalType":"uint16"}],"stateMutability":"view"},{"type":"function","name":"protocolShareBps","inputs":[],"outputs":[{"name":"","type":"uint16","internalType":"uint16"}],"stateMutability":"view"},{"type":"function","name":"relayerFeeBps","inputs":[],"outputs":[{"name":"","type":"uint16","internalType":"uint16"}],"stateMutability":"view"},{"type":"function","name":"removeAdapter","inputs":[{"name":"a","type":"address","internalType":"address"}],"outputs":[],"stateMutability":"nonpayable"},{"type":"function","name":"renounceRole","inputs":[{"name":"role","type":"bytes32","internalType":"bytes32"},{"name":"callerConfirmation","type":"address","internalType":"address"}],"outputs":[],"stateMutability":"nonpayable"},{"type":"function","name":"revokeRole","inputs":[{"name":"role","type":"bytes32","internalType":"bytes32"},{"name":"account","type":"address","internalType":"address"}],"outputs":[],"stateMutability":"nonpayable"},{"type":"function","name":"setAdapter","inputs":[{"name":"a","type":"address","internalType":"address"}],"outputs":[],"stateMutability":"nonpayable"},{"type":"function","name":"setAdmin","inputs":[{"name":"newAdmin","type":"address","internalType":"address"}],"outputs":[],"stateMutability":"nonpayable"},{"type":"function","name":"setAllowedTarget","inputs":[{"name":"t","type":"address","internalType":"address"},{"name":"ok","type":"bool","internalType":"bool"}],"outputs":[],"stateMutability":"nonpayable"},{"type":"function","name":"setEnforceTargetAllowlist","inputs":[{"name":"v","type":"bool","internalType":"bool"}],"outputs":[],"stateMutability":"nonpayable"},{"type":"function","name":"setFeeCollector","inputs":[{"name":"c","type":"address","internalType":"address"}],"outputs":[],"stateMutability":"nonpayable"},{"type":"function","name":"setFeeRecipient","inputs":[{"name":"newFeeRecipient","type":"address","internalType":"address"}],"outputs":[],"stateMutability":"nonpayable"},{"type":"function","name":"setLPShareBps","inputs":[{"name":"bps","type":"uint16","internalType":"uint16"}],"outputs":[],"stateMutability":"nonpayable"},{"type":"function","name":"setProtocolFeeBps","inputs":[{"name":"bps","type":"uint16","internalType":"uint16"}],"outputs":[],"stateMutability":"nonpayable"},{"type":"function","name":"setProtocolShareBps","inputs":[{"name":"bps","type":"uint16","internalType":"uint16"}],"outputs":[],"stateMutability":"nonpayable"},{"type":"function","name":"setRelayerFeeBps","inputs":[{"name":"bps","type":"uint16","internalType":"uint16"}],"outputs":[],"stateMutability":"nonpayable"},{"type":"function","name":"supportsInterface","inputs":[{"name":"interfaceId","type":"bytes4","internalType":"bytes4"}],"outputs":[{"name":"","type":"bool","internalType":"bool"}],"stateMutability":"view"},{"type":"function","name":"universalBridgeApproveThenCall","inputs":[{"name":"a","type":"tuple","internalType":"struct Router.TransferArgs","components":[{"name":"token","type":"address","internalType":"address"},{"name":"amount","type":"uint256","internalType":"uint256"},{"name":"protocolFee","type":"uint256","internalType":"uint256"},{"name":"relayerFee","type":"uint256","internalType":"uint256"},{"name":"payload","type":"bytes","internalType":"bytes"},{"name":"target","type":"address","internalType":"address"},{"name":"dstChainId","type":"uint16","internalType":"uint16"},{"name":"nonce","type":"uint64","internalType":"uint64"}]}],"outputs":[],"stateMutability":"nonpayable"},{"type":"function","name":"universalBridgeApproveThenCallWithSig","inputs":[{"name":"a","type":"tuple","internalType":"struct Router.TransferArgs","components":[{"name":"token","type":"address","internalType":"address"},{"name":"amount","type":"uint256","internalType":"uint256"},{"name":"protocolFee","type":"uint256","internalType":"uint256"},{"name":"relayerFee","type":"uint256","internalType":"uint256"},{"name":"payload","type":"bytes","internalType":"bytes"},{"name":"target","type":"address","internalType":"address"},{"name":"dstChainId","type":"uint16","internalType":"uint16"},{"name":"nonce","type":"uint64","internalType":"uint64"}]},{"name":"intent","type":"tuple","internalType":"struct Router.RouteIntent","components":[{"name":"routeId","type":"bytes32","internalType":"bytes32"},{"name":"user","type":"address","internalType":"address"},{"name":"token","type":"address","internalType":"address"},{"name":"amount","type":"uint256","internalType":"uint256"},{"name":"protocolFee","type":"uint256","internalType":"uint256"},{"name":"relayerFee","type":"uint256","internalType":"uint256"},{"name":"dstChainId","type":"uint16","internalType":"uint16"},{"name":"recipient","type":"address","internalType":"address"},{"name":"expiry","type":"uint256","internalType":"uint256"},{"name":"payloadHash","type":"bytes32","internalType":"bytes32"},{"name":"nonce","type":"uint64","internalType":"uint64"}]},{"name":"signature","type":"bytes","internalType":"bytes"}],"outputs":[],"stateMutability":"nonpayable"},{"type":"function","name":"universalBridgeTransfer","inputs":[{"name":"a","type":"tuple","internalType":"struct Router.TransferArgs","components":[{"name":"token","type":"address","internalType":"address"},{"name":"amount","type":"uint256","internalType":"uint256"},{"name":"protocolFee","type":"uint256","internalType":"uint256"},{"name":"relayerFee","type":"uint256","internalType":"uint256"},{"name":"payload","type":"bytes","internalType":"bytes"},{"name":"target","type":"address","internalType":"address"},{"name":"dstChainId","type":"uint16","internalType":"uint16"},{"name":"nonce","type":"uint64","internalType":"uint64"}]}],"outputs":[],"stateMutability":"nonpayable"},{"type":"function","name":"universalBridgeTransferWithDAIPermit","inputs":[{"name":"a","type":"tuple","internalType":"struct Router.TransferArgs","components":[{"name":"token","type":"address","internalType":"address"},{"name":"amount","type":"uint256","internalType":"uint256"},{"name":"protocolFee","type":"uint256","internalType":"uint256"},{"name":"relayerFee","type":"uint256","internalType":"uint256"},{"name":"payload","type":"bytes","internalType":"bytes"},{"name":"target","type":"address","internalType":"address"},{"name":"dstChainId","type":"uint16","internalType":"uint16"},{"name":"nonce","type":"uint64","internalType":"uint64"}]},{"name":"permitNonce","type":"uint256","internalType":"uint256"},{"name":"expiry","type":"uint256","internalType":"uint256"},{"name":"allowed","type":"bool","internalType":"bool"},{"name":"v","type":"uint8","internalType":"uint8"},{"name":"r","type":"bytes32","internalType":"bytes32"},{"name":"s","type":"bytes32","internalType":"bytes32"}],"outputs":[],"stateMutability":"nonpayable"},{"type":"function","name":"universalBridgeTransferWithPermit","inputs":[{"name":"a","type":"tuple","internalType":"struct Router.TransferArgs","components":[{"name":"token","type":"address","internalType":"address"},{"name":"amount","type":"uint256","internalType":"uint256"},{"name":"protocolFee","type":"uint256","internalType":"uint256"},{"name":"relayerFee","type":"uint256","internalType":"uint256"},{"name":"payload","type":"bytes","internalType":"bytes"},{"name":"target","type":"address","internalType":"address"},{"name":"dstChainId","type":"uint16","internalType":"uint16"},{"name":"nonce","type":"uint64","internalType":"uint64"}]},{"name":"deadline","type":"uint256","internalType":"uint256"},{"name":"v","type":"uint8","internalType":"uint8"},{"name":"r","type":"bytes32","internalType":"bytes32"},{"name":"s","type":"bytes32","internalType":"bytes32"}],"outputs":[],"stateMutability":"nonpayable"},{"type":"function","name":"universalBridgeTransferWithSig","inputs":[{"name":"a","type":"tuple","internalType":"struct Router.TransferArgs","components":[{"name":"token","type":"address","internalType":"address"},{"name":"amount","type":"uint256","internalType":"uint256"},{"name":"protocolFee","type":"uint256","internalType":"uint256"},{"name":"relayerFee","type":"uint256","internalType":"uint256"},{"name":"payload","type":"bytes","internalType":"bytes"},{"name":"target","type":"address","internalType":"address"},{"name":"dstChainId","type":"uint16","internalType":"uint16"},{"name":"nonce","type":"uint64","internalType":"uint64"}]},{"name":"intent","type":"tuple","internalType":"struct Router.RouteIntent","components":[{"name":"routeId","type":"bytes32","internalType":"bytes32"},{"name":"user","type":"address","internalType":"address"},{"name":"token","type":"address","internalType":"address"},{"name":"amount","type":"uint256","internalType":"uint256"},{"name":"protocolFee","type":"uint256","internalType":"uint256"},{"name":"relayerFee","type":"uint256","internalType":"uint256"},{"name":"dstChainId","type":"uint16","internalType":"uint16"},{"name":"recipient","type":"address","internalType":"address"},{"name":"expiry","type":"uint256","internalType":"uint256"},{"name":"payloadHash","type":"bytes32","internalType":"bytes32"},{"name":"nonce","type":"uint64","internalType":"uint64"}]},{"name":"signature","type":"bytes","internalType":"bytes"}],"outputs":[],"stateMutability":"nonpayable"},{"type":"function","name":"usedIntents","inputs":[{"name":"","type":"bytes32","internalType":"bytes32"}],"outputs":[{"name":"","type":"bool","internalType":"bool"}],"stateMutability":"view"},{"type":"function","name":"usedMessages","inputs":[{"name":"","type":"bytes32","internalType":"bytes32"}],"outputs":[{"name":"","type":"bool","internalType":"bool"}],"stateMutability":"view"},{"type":"event","name":"AdapterAdded","inputs":[{"name":"adapter","type":"address","indexed":false,"internalType":"address"}],"anonymous":false},{"type":"event","name":"AdapterFrozen","inputs":[{"name":"adapter","type":"address","indexed":false,"internalType":"address"},{"name":"frozen","type":"bool","indexed":false,"internalType":"bool"}],"anonymous":false},{"type":"event","name":"AdapterRemoved","inputs":[{"name":"adapter","type":"address","indexed":false,"internalType":"address"}],"anonymous":false},{"type":"event","name":"AdminProposed","inputs":[{"name":"current","type":"address","indexed":true,"internalType":"address"},{"name":"proposed","type":"address","indexed":true,"internalType":"address"}],"anonymous":false},{"type":"event","name":"AdminUpdated","inputs":[{"name":"oldAdmin","type":"address","indexed":true,"internalType":"address"},{"name":"newAdmin","type":"address","indexed":true,"internalType":"address"}],"anonymous":false},{"type":"event","name":"BridgeInitiated","inputs":[{"name":"routeId","type":"bytes32","indexed":true,"internalType":"bytes32"},{"name":"user","type":"address","indexed":true,"internalType":"address"},{"name":"token","type":"address","indexed":true,"internalType":"address"},{"name":"target","type":"address","indexed":false,"internalType":"address"},{"name":"forwardedAmount","type":"uint256","indexed":false,"internalType":"uint256"},{"name":"protocolFee","type":"uint256","indexed":false,"internalType":"uint256"},{"name":"relayerFee","type":"uint256","indexed":false,"internalType":"uint256"},{"name":"payloadHash","type":"bytes32","indexed":false,"internalType":"bytes32"},{"name":"srcChainId","type":"uint16","indexed":false,"internalType":"uint16"},{"name":"dstChainId","type":"uint16","indexed":false,"internalType":"uint16"},{"name":"nonce","type":"uint64","indexed":false,"internalType":"uint64"}],"anonymous":false},{"type":"event","name":"EIP712DomainChanged","inputs":[],"anonymous":false},{"type":"event","name":"FeeApplied","inputs":[{"name":"globalRouteId","type":"bytes32","indexed":true,"internalType":"bytes32"},{"name":"messageHash","type":"bytes32","indexed":true,"internalType":"bytes32"},{"name":"chainId","type":"uint16","indexed":false,"internalType":"uint16"},{"name":"router","type":"address","indexed":false,"internalType":"address"},{"name":"vault","type":"address","indexed":false,"internalType":"address"},{"name":"asset","type":"address","indexed":false,"internalType":"address"},{"name":"protocol_fee_native","type":"uint256","indexed":false,"internalType":"uint256"},{"name":"relayer_fee_native","type":"uint256","indexed":false,"internalType":"uint256"},{"name":"protocol_bps","type":"uint16","indexed":false,"internalType":"uint16"},{"name":"lp_bps","type":"uint16","indexed":false,"internalType":"uint16"},{"name":"collector","type":"address","indexed":false,"internalType":"address"},{"name":"applied_at","type":"uint256","indexed":false,"internalType":"uint256"}],"anonymous":false},{"type":"event","name":"FeeRecipientUpdated","inputs":[{"name":"oldFeeRecipient","type":"address","indexed":true,"internalType":"address"},{"name":"newFeeRecipient","type":"address","indexed":true,"internalType":"address"}],"anonymous":false},{"type":"event","name":"IntentConsumed","inputs":[{"name":"digest","type":"bytes32","indexed":true,"internalType":"bytes32"},{"name":"routeId","type":"bytes32","indexed":true,"internalType":"bytes32"},{"name":"user","type":"address","indexed":true,"internalType":"address"}],"anonymous":false},{"type":"event","name":"LPShareBpsUpdated","inputs":[{"name":"oldBps","type":"uint16","indexed":false,"internalType":"uint16"},{"name":"newBps","type":"uint16","indexed":false,"internalType":"uint16"}],"anonymous":false},{"type":"event","name":"ProtocolFeeBpsUpdated","inputs":[{"name":"oldBps","type":"uint16","indexed":false,"internalType":"uint16"},{"name":"newBps","type":"uint16","indexed":false,"internalType":"uint16"}],"anonymous":false},{"type":"event","name":"ProtocolShareBpsUpdated","inputs":[{"name":"oldBps","type":"uint16","indexed":false,"internalType":"uint16"},{"name":"newBps","type":"uint16","indexed":false,"internalType":"uint16"}],"anonymous":false},{"type":"event","name":"RelayerFeeBpsUpdated","inputs":[{"name":"oldBps","type":"uint16","indexed":false,"internalType":"uint16"},{"name":"newBps","type":"uint16","indexed":false,"internalType":"uint16"}],"anonymous":false},{"type":"event","name":"RoleAdminChanged","inputs":[{"name":"role","type":"bytes32","indexed":true,"internalType":"bytes32"},{"name":"previousAdminRole","type":"bytes32","indexed":true,"internalType":"bytes32"},{"name":"newAdminRole","type":"bytes32","indexed":true,"internalType":"bytes32"}],"anonymous":false},{"type":"event","name":"RoleGranted","inputs":[{"name":"role","type":"bytes32","indexed":true,"internalType":"bytes32"},{"name":"account","type":"address","indexed":true,"internalType":"address"},{"name":"sender","type":"address","indexed":true,"internalType":"address"}],"anonymous":false},{"type":"event","name":"RoleRevoked","inputs":[{"name":"role","type":"bytes32","indexed":true,"internalType":"bytes32"},{"name":"account","type":"address","indexed":true,"internalType":"address"},{"name":"sender","type":"address","indexed":true,"internalType":"address"}],"anonymous":false},{"type":"event","name":"UniversalBridgeInitiated","inputs":[{"name":"routeId","type":"bytes32","indexed":true,"internalType":"bytes32"},{"name":"payloadHash","type":"bytes32","indexed":true,"internalType":"bytes32"},{"name":"messageHash","type":"bytes32","indexed":true,"internalType":"bytes32"},{"name":"globalRouteId","type":"bytes32","indexed":false,"internalType":"bytes32"},{"name":"user","type":"address","indexed":false,"internalType":"address"},{"name":"token","type":"address","indexed":false,"internalType":"address"},{"name":"target","type":"address","indexed":false,"internalType":"address"},{"name":"forwardedAmount","type":"uint256","indexed":false,"internalType":"uint256"},{"name":"protocolFee","type":"uint256","indexed":false,"internalType":"uint256"},{"name":"relayerFee","type":"uint256","indexed":false,"internalType":"uint256"},{"name":"srcChainId","type":"uint16","indexed":false,"internalType":"uint16"},{"name":"dstChainId","type":"uint16","indexed":false,"internalType":"uint16"},{"name":"nonce","type":"uint64","indexed":false,"internalType":"uint64"}],"anonymous":false},{"type":"error","name":"AccessControlBadConfirmation","inputs":[]},{"type":"error","name":"AccessControlUnauthorizedAccount","inputs":[{"name":"account","type":"address","internalType":"address"},{"name":"neededRole","type":"bytes32","internalType":"bytes32"}]},{"type":"error","name":"AdapterFrozenErr","inputs":[]},{"type":"error","name":"ECDSAInvalidSignature","inputs":[]},{"type":"error","name":"ECDSAInvalidSignatureLength","inputs":[{"name":"length","type":"uint256","internalType":"uint256"}]},{"type":"error","name":"ECDSAInvalidSignatureS","inputs":[{"name":"s","type":"bytes32","internalType":"bytes32"}]},{"type":"error","name":"ExpiredIntent","inputs":[]},{"type":"error","name":"FeeOnTransferNotSupported","inputs":[]},{"type":"error","name":"FeeTooHigh","inputs":[]},{"type":"error","name":"FeesExceedAmount","inputs":[]},{"type":"error","name":"IntentAlreadyUsed","inputs":[]},{"type":"error","name":"IntentMismatch","inputs":[]},{"type":"error","name":"InvalidShortString","inputs":[]},{"type":"error","name":"InvalidSignature","inputs":[]},{"type":"error","name":"MessageAlreadyUsed","inputs":[]},{"type":"error","name":"NotAdapter","inputs":[]},{"type":"error","name":"PayloadDisallowedToEOA","inputs":[]},{"type":"error","name":"PayloadTooLarge","inputs":[]},{"type":"error","name":"ReentrancyGuardReentrantCall","inputs":[]},{"type":"error","name":"ResidueLeft","inputs":[]},{"type":"error","name":"SafeERC20FailedOperation","inputs":[{"name":"token","type":"address","internalType":"address"}]},{"type":"error","name":"StringTooLong","inputs":[{"name":"str","type":"string","internalType":"string"}]},{"type":"error","name":"TargetNotContract","inputs":[]},{"type":"error","name":"TargetNotSet","inputs":[]},{"type":"error","name":"TokenZeroAddress","inputs":[]},{"type":"error","name":"Unauthorized","inputs":[]},{"type":"error","name":"ZeroAddress","inputs":[]},{"type":"error","name":"ZeroAmount","inputs":[]}],"userdoc":{},"devdoc":{},"evm":{"bytecode":{"object":"6101a080604052346102c157608081614710803803809161002082856102c5565b8339810103126102c157610033816102fc565b61003f602083016102fc565b91606061004e604083016102fc565b9101519061ffff821682036102c15760405161006b6040826102c5565b600b815260208101906a2d37b7b82c2937baba32b960a91b8252604051916100946040846102c5565b600183526020830191603160f81b835260015f556100b181610399565b610120526100be84610534565b61014052519020918260e05251902080610100524660a0526040519060208201927f8b73c3c69bb8fe3d512ecc4cf759cc79239f7b179b0ffacaa9a75d522b39400f8452604083015260608201524660808201523060a082015260a0815261012760c0826102c5565b5190206080523060c0526001600160a01b038316938415610290576001600160a01b03168015610258576101829460018060a01b0319600454161760045560018060a01b031960055416176005556101605261018052610310565b50604051614083908161066d823960805181613dc0015260a05181613e77015260c05181613d8a015260e05181613e0f01526101005181613e350152610120518161166b015261014051816116950152610160518181816107300152818161103d0152818161154901528181611a390152818161222b015281816129890152612cd501526101805181818161045401528181610d85015281816113840152818161196701528181611cf80152818161208d0152818161266d015281816126bf01528181612742015281816127b20152612bdd0152f35b60405162461bcd60e51b815260206004820152601060248201526f18985908199959549958da5c1a595b9d60821b6044820152606490fd5b60405162461bcd60e51b81526020600482015260096024820152683130b21030b236b4b760b91b6044820152606490fd5b5f80fd5b601f909101601f19168101906001600160401b038211908210176102e857604052565b634e487b7160e01b5f52604160045260245ffd5b51906001600160a01b03821682036102c157565b6001600160a01b0381165f9081525f805160206146f0833981519152602052604090205460ff16610394576001600160a01b03165f8181525f805160206146f083398151915260205260408120805460ff191660011790553391907f2f8788117e7eff1d82e926ec794901d17c78024a50270940304540a733656f0d8180a4600190565b505f90565b908151602081105f14610413575090601f8151116103d35760208151910151602082106103c4571790565b5f198260200360031b1b161790565b604460209160405192839163305a27a960e01b83528160048401528051918291826024860152018484015e5f828201840152601f01601f19168101030190fd5b6001600160401b0381116102e857600154600181811c9116801561052a575b602082101461051657601f81116104e3575b50602092601f821160011461048257928192935f92610477575b50508160011b915f199060031b1c19161760015560ff90565b015190505f8061045e565b601f1982169360015f52805f20915f5b8681106104cb57508360019596106104b3575b505050811b0160015560ff90565b01515f1960f88460031b161c191690555f80806104a5565b91926020600181928685015181550194019201610492565b60015f52601f60205f20910160051c810190601f830160051c015b81811061050b5750610444565b5f81556001016104fe565b634e487b7160e01b5f52602260045260245ffd5b90607f1690610432565b908151602081105f1461055f575090601f8151116103d35760208151910151602082106103c4571790565b6001600160401b0381116102e857600254600181811c91168015610662575b602082101461051657601f811161062f575b50602092601f82116001146105ce57928192935f926105c3575b50508160011b915f199060031b1c19161760025560ff90565b015190505f806105aa565b601f1982169360025f52805f20915f5b86811061061757508360019596106105ff575b505050811b0160025560ff90565b01515f1960f88460031b161c191690555f80806105f1565b919260206001819286850151815501940192016105de565b60025f52601f60205f20910160051c810190601f830160051c015b8181106106575750610590565b5f815560010161064a565b90607f169061057e56fe60a0806040526004361015610012575f80fd5b5f905f3560e01c90816301ffc9a714612d04575080630215c40214612cc057806302a882e614612c9957806303eadcfc14612c715780630e18b68114612c015780631459dda214612bc3578063147bf6c414612b3e5780631f93892314612abd578063248a9ca314612a925780632678224714612a6a5780632f2ff15d14612a2c5780632f32ff62146129de57806335659fb8146129bd578063362d6cd41461235557806336568abe1461230f57806337ed3f1e146122ec578063462455d21461229c57806346904840146122745780634c7ac03f146122505780635248bb7014611ef85780635382a91114611edc578063585cd34b14611e8e5780635a02840014611e5f5780635acd1e6b14611bc357806360d54d4114611b6057806361d1a0f114611b215780636336803b14611af2578063704b6c0214611a5e5780637143d8181461183157806378addb48146117f25780637e863a221461174d57806384b0196e1461165157806391d148541461160757806393c79ba6146115e25780639d03c6f8146115725780639eead346146111c5578063a217fddf146111a9578063a42dce8014611138578063ab1da79c146110ee578063b1d7d467146110cb578063b71351d614610b18578063be37b12c14610a94578063c415b95c14610a69578063ca1dd22e146109f8578063d31ecaa7146109db578063d547741f14610993578063de3011e714610958578063e74b981b146108cb578063ea5acf0214610813578063ecaab86114610754578063f7bc2e78146102855763f851a4401461025a575f80fd5b346102825780600319360112610282576004546040516001600160a01b039091168152602090f35b80fd5b50346102825761029436612e7b565b61029c613353565b6102a581612f75565b906020810135806102c3604084013594856060860135948592613897565b60a083016001600160a01b036102d882612f75565b161561072d576102e790612f75565b6001600160a01b0381161561071e5760808401946102006103088787612f98565b90501161070f57813b15801590806106fb575b6106ec5780806106e3575b6106d5576001600160a01b0361033b87612f75565b6040516370a0823160e01b8152306004820152989116602089602481845afa9889156106ca578a99610696575b5061037586303384613505565b6040516370a0823160e01b8152306004820152602081602481855afa801561068b578a88918d90610653575b6103ac92935061301b565b03610644579187916103d585946103c58a8e999861303c565b908180610625575b50508861301b565b916103f1866001600160a01b036103eb87612f75565b1661358c565b61040d83876001600160a01b0361040788612f75565b1661363e565b80610611575b6105f8575b846001600160a01b0361042a85612f75565b16906104359161358c565b61043f9083612f98565b369061044a92612fe5565b80519060200120957f0000000000000000000000000000000000000000000000000000000000000000809860c085019589858a6104868a612f89565b838c6104918c612f75565b9960e08d019a6104a08c613049565b92336104ac968d613112565b9d8e6104b78c612f89565b906104c18a613049565b90336104cd9385612f08565b996104d790612f75565b8c6104e18d612f89565b6104ea8b613049565b90604051948594600160a01b6001900316988b8b339a61050a978961305d565b035f8051602061402e83398151915291a46105248c612f75565b9661052e90612f89565b9361053890613049565b946040519889983361054a998b6130ac565b035f8051602061400e83398151915291a46001600160a01b039061056d90612f75565b166040518080926370a0823160e01b82523060048301525a92602491602094fa9081156105ed5783916105b7575b50036105a8576001815580f35b634fb8fb6360e01b8152600490fd5b90506020813d6020116105e5575b816105d260209383612ed3565b810103126105e157515f61059b565b5f80fd5b3d91506105c5565b6040513d85823e3d90fd5b61060c6106058285612f98565b90876136fd565b610418565b5061061c8184612f98565b90501515610413565b60055461063d926001600160a01b0390911690613550565b5f816103cd565b639bfa3c1760e01b8a5260048afd5b5050506020813d602011610683575b8161066f60209383612ed3565b810103126105e15751869081908b906103a1565b3d9150610662565b6040513d8d823e3d90fd5b9098506020813d6020116106c2575b816106b260209383612ed3565b810103126105e15751975f610368565b3d91506106a5565b6040513d8c823e3d90fd5b62b8dfab60e11b8852600488fd5b50823b15610326565b633390d76b60e01b8852600488fd5b506107068787612f98565b9050151561031b565b63492f620d60e01b8752600487fd5b6337e80e8160e21b8652600486fd5b507f00000000000000000000000000000000000000000000000000000000000000006102e7565b50346102825760203660031901126102825761076e612dd4565b6004546001600160a01b03163303610805576103e861ffff8216116107f65763ffff0000600c54917f796bb81a3ac5b659665916dc75398afb2f1489ae97208393f7f21fcf638e8a7b604051806107e08461ffff8860101c168390929161ffff60209181604085019616845216910152565b0390a160101b169063ffff0000191617600c5580f35b63cd4e616760e01b8252600482fd5b6282b42960e81b8252600482fd5b50346102825760203660031901126102825761082d612dd4565b6004546001600160a01b0316330361080557600c549061271061085b61ffff831661ffff8560201c1661303c565b116108bc576040805161ffff603085901c811682528316602082015267ffff00000000000092917fbf832f0e179e869afb0f69ea44b74fc0cbcc8837b9870e8dcf7f7390dcd2505a91a160301b169067ffff000000000000191617600c5580f35b63cd4e616760e01b8352600483fd5b5034610282576020366003190112610282576108e5612d57565b6004546001600160a01b03163303610805576001600160a01b0316801561094957600554816001600160a01b0382167faaebcf1bfa00580e41d966056b48521fa9f202645c86d4ddf28113e617c1b1d38580a36001600160a01b0319161760055580f35b63d92e233d60e01b8252600482fd5b503461028257806003193601126102825760206040517f3a16219d06af018ad9787d0dcfcc281b004cb45454d560c61c3bc3288717ed648152f35b5034610282576040366003190112610282576109d76004356109b3612d6d565b906109d26109cd825f526003602052600160405f20015490565b6131f5565b613813565b5080f35b503461028257806003193601126102825760206040516102008152f35b503461028257604036600319011261028257610a12612d57565b610a1a612dc5565b6004549091906001600160a01b03163303610a5b576001600160a01b03168252600660205260408220805491151560ff1660ff199290921691909117905580f35b6282b42960e81b8352600483fd5b5034610282578060031936011261028257600c546040805191901c6001600160a01b03168152602090f35b503461028257602036600319011261028257610aae612dd4565b6004546001600160a01b031633036108055761ffff811690600582116108bc57600c546040805161ffff808416825293909316602084015290917f740c4f8812f57c051142b386664c613b7140458e4fd9420eda309b6d0ad319099190a161ffff191617600c5580f35b503461028257610b3e90610b2b36612df6565b90610b3895929395613353565b83613371565b808352600860205260ff6040842054166110bc578083526008602090815260408420805460ff191660011790558201906001600160a01b03610b7f83612f75565b16908335907fc5ed249093f8d64f17d4fb48f4b496739452ba98ce23e3a1ba8dfcacc4b326d98680a4610bb460408301612f75565b6001600160a01b03610bc586612f75565b166001600160a01b03909116036110ad576020840135938460608401350361109e576040810135928360808201350361108f5760608201358060a08301350361108057610c1460c08301612f89565b9460c084019561ffff80610c2789612f89565b16911603611071576080840195610c48610c418887612f98565b3691612fe5565b60208151910120610120850135036110625760a085016001600160a01b03610c6f82612f75565b161561103a57610c7e90612f75565b955b6001600160a01b038716801561102b57610200610c9d8a89612f98565b90501161101c57873b1580159080611008575b610ff9578080610ff0575b610fe25760ff600754169081610fda575b5080610fc3575b610fb55760e08601906001600160a01b03610ced83612f75565b1615159182610f96575b5050610f875797986024989060206001600160a01b03610d1689612f75565b166040519b8c80926370a0823160e01b82523060048301525afa998a1561068b578b9a610f4d575b509087929187610d4d81612f75565b87878488610d5a88612f75565b610d639561390b565b91610d6e8c83612f98565b3690610d7992612fe5565b805190602001209788947f00000000000000000000000000000000000000000000000000000000000000009286610daf89612f89565b91610db984612f75565b90610dc388612f75565b9760e001978c610dd28a613049565b93610ddd968a613112565b6080528b8b868b8a8c610def82612f89565b610df888612f75565b610e018c613049565b9060805190610e10938d612f08565b9b610e1a88612f75565b96610e2490612f75565b92610e2e90612f89565b8a610e388d613049565b6040516001600160a01b039687169a90961698359795968796610e62969295928e9291908961305d565b035f8051602061402e83398151915291a4610e7c90612f75565b97610e868c612f75565b96610e9090612f89565b93610e9a90613049565b946040519889986080519d359b610eb1998b6130ac565b035f8051602061400e83398151915291a4602492602092803b151580610f39575b610f1f575b506001600160a01b0391610eeb9150612f75565b16604051928380926370a0823160e01b82523060048301525afa9081156105ed5783916105b75750036105a8576001815580f35b610f2c610f329284612f98565b916136fd565b5f80610ed7565b50610f448284612f98565b90501515610ed2565b92919099506020833d602011610f7f575b81610f6b60209383612ed3565b810103126105e15787925199909192610d3e565b3d9150610f5e565b6355afbcf160e11b8952600489fd5b9091506001600160a01b0390610fab90612f75565b1614155f80610cf7565b62b8dfab60e11b8a5260048afd5b50808a52600660205260ff60408b20541615610cd3565b90505f610ccc565b62b8dfab60e11b8b5260048bfd5b50883b15610cbb565b633390d76b60e01b8b5260048bfd5b506110138a89612f98565b90501515610cb0565b63492f620d60e01b8a5260048afd5b6337e80e8160e21b8a5260048afd5b507f000000000000000000000000000000000000000000000000000000000000000095610c80565b6355afbcf160e11b8852600488fd5b6355afbcf160e11b8752600487fd5b6355afbcf160e11b8652600486fd5b6355afbcf160e11b8552600485fd5b6355afbcf160e11b8452600484fd5b6355afbcf160e11b8352600483fd5b63110ea83560e31b8352600483fd5b5034610282578060031936011261028257602060ff600754166040519015158152f35b503461028257602036600319011261028257611108612d57565b6004546001600160a01b031633036108055760018060a01b03166001600160601b0360a01b600a541617600a5580f35b503461028257602036600319011261028257611152612d57565b6004546001600160a01b03163303610805576001600160a01b0381161561094957600c805468010000000000000000600160e01b03191660409290921b68010000000000000000600160e01b031691909117905580f35b5034610282578060031936011261028257602090604051908152f35b50346102825760a0366003190112610282576004356001600160401b0381116114fd5780600401610100600319833603011261156e5760443560ff811680910361150157611211613353565b61121a82612f75565b91602484013580611238604487013595866064890135938492613897565b60a486016001600160a01b0361124d82612f75565b16156115465761125c90612f75565b945b6001600160a01b0386161561153757608487019261020061127f8587612f98565b90501161152857863b159586159680611514575b611505578991906001600160a01b036112ab88612f75565b1690813b1561150157839160e48392604051948593849263d505accf60e01b84523360048501523060248501528860448501526024356064850152608484015260643560a484015260843560c48401525af180156105ed576114e8575b5060249860206001600160a01b0361131f89612f75565b166040519b8c80926370a0823160e01b82523060048301525afa998a156105ed57839a6114af575b5090868992338787858761135a87612f75565b946113649561390b565b9061136f8984612f98565b369061137a92612fe5565b80519060200120967f000000000000000000000000000000000000000000000000000000000000000098899189858a60c4870199838c6113b98d612f89565b926113c38d612f75565b9a60e4019a6113d18c613049565b92336113dd968d613112565b9d8e6113e88c612f89565b906113f28a613049565b90336113fe9385612f08565b9961140890612f75565b8c6114128d612f89565b61141b8b613049565b90604051948594600160a01b6001900316988b8b339a61143b978961305d565b035f8051602061402e83398151915291a46114558d612f75565b9661145f90612f89565b9361146990613049565b946040519889983361147b998b6130ac565b035f8051602061400e83398151915291a460249360209380610f3957610f1f57506001600160a01b0391610eeb9150612f75565b91925098506020813d6020116114e0575b816114cd60209383612ed3565b810103126105e157519789919086611347565b3d91506114c0565b6114f3838092612ed3565b6114fd575f611308565b5080fd5b8380fd5b633390d76b60e01b8a5260048afd5b5061151f8587612f98565b90501515611293565b63492f620d60e01b8952600489fd5b6337e80e8160e21b8852600488fd5b507f00000000000000000000000000000000000000000000000000000000000000009461125e565b8280fd5b5034610282576101003660031901126102825761158d612dd4565b90611596612de5565b9161159f612d83565b6115a7612d99565b6115af612daf565b9160c435946001600160401b03861686036102825760206115da60e4358860a4358888888e8d613112565b604051908152f35b5034610282578060031936011261028257602061ffff600c5460101c16604051908152f35b5034610282576040366003190112610282576040611623612d6d565b9160043581526003602052209060018060a01b03165f52602052602060ff60405f2054166040519015158152f35b50346102825780600319360112610282576116f19061168f7f0000000000000000000000000000000000000000000000000000000000000000613b91565b906116b97f0000000000000000000000000000000000000000000000000000000000000000613cb7565b9060206116ff604051936116cd8386612ed3565b8385525f368137604051968796600f60f81b885260e08589015260e0880190612eaf565b908682036040880152612eaf565b904660608601523060808601528260a086015284820360c08601528080855193848152019401925b82811061173657505050500390f35b835185528695509381019392810192600101611727565b503461028257602036600319011261028257611767612dd4565b6004546001600160a01b0316330361080557600c549061271061179561ffff8460301c1661ffff841661303c565b116108bc576040805161ffff602085811c821683529084169082015265ffff0000000092917f9de0ed39a415d64d485874d8b01c6ee5e8b938fdb82e22892cf257c2f0b83abf91a160201b169065ffff00000000191617600c5580f35b50346102825760203660031901126102825760209060ff906040906001600160a01b0361181d612d57565b168152600684522054166040519015158152f35b50346102825761184036612e7b565b90611849613353565b61185282612f75565b9160208101358161187160408394013595866060840135948592613897565b60a081016001600160a01b0361188682612f75565b1615611a365761189590612f75565b925b6001600160a01b03841692831561071e5760808301916102006118ba8486612f98565b90501161070f57853b159485159580611a22575b6106ec5760ff600754169081611a1a575b81611a03575b506119f557959660249690889060206001600160a01b0361190588612f75565b166040519a8b80926370a0823160e01b82523060048301525afa9889156119ea5782996119b3575b5087908661193a81612f75565b86838786336119489561390b565b6119528883612f98565b369061195d92612fe5565b80519060200120957f0000000000000000000000000000000000000000000000000000000000000000809860c085019589858a6119998a612f89565b838c6119a48c612f75565b9960e08d019a6113d18c613049565b915097506020813d6020116119e2575b816119d060209383612ed3565b810103126105e157519688908761192d565b3d91506119c3565b6040513d84823e3d90fd5b62b8dfab60e11b8752600487fd5b8852506006602052604087205460ff16155f6118e5565b8691506118df565b50611a2d8486612f98565b905015156118ce565b507f000000000000000000000000000000000000000000000000000000000000000092611897565b503461028257602036600319011261028257611a78612d57565b6004546001600160a01b0381169133839003611ae4576001600160a01b0316918215611ad55782907f101b8081ff3b56bbf45deb824d86a3b0fd38b7e3dd42421105cf8abe9106db0b8580a36001600160a01b0319161760045580f35b63d92e233d60e01b8452600484fd5b6282b42960e81b8452600484fd5b50346102825760203660031901126102825760ff60406020926004358152600884522054166040519015158152f35b50346102825760203660031901126102825760209060ff906040906001600160a01b03611b4c612d57565b168152600b84522054166040519015158152f35b5034610282576020366003190112610282577fcf9c2c7f9adbb156bd76affb04df84595f8f5e69cab2e61221b05b05a902fa266020611b9d612d57565b611ba56131a6565b611bae8161322f565b506040516001600160a01b039091168152a180f35b50346102825761010036600319011261028257602435611be1612d83565b611be9612d99565b90611bf2612daf565b5f80516020613fce8339815191528552600360209081526040808720335f908152925290205460a4359260e435929160ff1615611e5057338752600b60205260ff604088205416611e4157611c45613353565b858752600960205260ff604088205416611e3257858752600960205260408720600160ff1982541617905560018060a01b031692600c5483611c8e61ffff8360201c1684613a46565b93611ca061ffff8460301c1685613a46565b9285611df2575b5082611ccd9181611cd295151580611de0575b611dcf575b505082611dbf575b8561303c565b61303c565b90808211611db05790611ce49161301b565b80611d9f575b50600c54926040519461ffff7f000000000000000000000000000000000000000000000000000000000000000016865230602087015260018060a01b031660408601526060850152608084015260a083015261ffff8160201c1660c083015261ffff8160301c1660e083015260018060a01b039060401c16610100820152426101208201527fe682966dd850bccb3d87e1b88d0a19409d64dd78ae2f38748b692de55ed9261961014060043592a36001815580f35b611daa908585613550565b5f611cea565b631f656da960e31b8852600488fd5b611dca83338a613550565b611cc7565b611dd9918a613550565b5f81611cbf565b506001600160a01b0382161515611cba565b90915060401c6001600160a01b03168015611e2357611cd2928692611e1b87611ccd948b613550565b915092611ca7565b63d92e233d60e01b8a5260048afd5b63b5ab1f3f60e01b8752600487fd5b633296584d60e01b8752600487fd5b63f521d15960e01b8752600487fd5b50346102825760203660031901126102825760ff60406020926004358152600984522054166040519015158152f35b5034610282576020366003190112610282577fdf980d21d8c7bb34800e668dbe003299093bac8e693614151d3c57f73f98a93d6020611ecb612d57565b611ed36131a6565b611bae81613782565b5034610282578060031936011261028257602060405160058152f35b50346105e15760e03660031901126105e1576004356001600160401b0381116105e157806004019061010060031982360301126105e157606435918215158093036105e1576084359260ff84168094036105e157611f54613353565b611f5d82612f75565b60248401359081611f7b604487013592836064890135958692613897565b60a486016001600160a01b03611f9082612f75565b161561222857611f9f90612f75565b955b6001600160a01b03871615612219576084810197610200611fc28a89612f98565b9050116121f657873b159586159680612205575b6121f6576001600160a01b03611feb89612f75565b1691823b156105e1576101045f928360405195869485936323f2ebc360e21b855233600486015230602486015260243560448601526044356064860152608485015260a484015260a43560c484015260c43560e48401525af180156121eb576121d1575b508891868892338787858761206387612f75565b9461206d9561390b565b906120788c84612f98565b369061208392612fe5565b80519060200120967f000000000000000000000000000000000000000000000000000000000000000098899189858a60c4870199838c6120c28d612f89565b926120cc8d612f75565b9a60e4019a6120da8c613049565b92336120e6968d613112565b9d8e6120f18c612f89565b906120fb8a613049565b90336121079385612f08565b9961211190612f75565b8c61211b8d612f89565b6121248b613049565b90604051948594600160a01b6001900316988b8b339a612144978961305d565b035f8051602061402e83398151915291a461215e8d612f75565b9661216890612f89565b9361217290613049565b9460405198899833612184998b6130ac565b035f8051602061400e83398151915291a4806121bd575b6121a8575b836001815580f35b6121b592610f2c91612f98565b5f80806121a0565b506121c88382612f98565b9050151561219b565b869950916121e15f899394612ed3565b5f9950919061204f565b6040513d5f823e3d90fd5b63492f620d60e01b5f5260045ffd5b506122108a89612f98565b90501515611fd6565b6337e80e8160e21b5f5260045ffd5b507f000000000000000000000000000000000000000000000000000000000000000095611fa1565b346105e1575f3660031901126105e157602061ffff600c5460301c16604051908152f35b346105e1575f3660031901126105e1576005546040516001600160a01b039091168152602090f35b346105e15760203660031901126105e1576004358015158091036105e1576004546001600160a01b031633036122de5760ff8019600754169116176007555f80f35b6282b42960e81b5f5260045ffd5b346105e1575f3660031901126105e157602061ffff600c54821c16604051908152f35b346105e15760403660031901126105e157612328612d6d565b336001600160a01b038216036123465761234490600435613813565b005b63334bd91960e11b5f5260045ffd5b346105e15761237361236636612df6565b90610b3894929394613353565b805f52600860205260ff60405f2054166129ae57805f52600860205260405f20600160ff1982541617905560018060a01b036123b160208401612f75565b16908235907fc5ed249093f8d64f17d4fb48f4b496739452ba98ce23e3a1ba8dfcacc4b326d95f80a46123e660408201612f75565b6001600160a01b036123f784612f75565b166001600160a01b039091160361292d5760208201358060608301350361292d57604083013560808301350361292d57606083013560a08301350361292d5761244260c08301612f89565b61ffff8061245260c08701612f89565b1691160361292d57608083019261246c610c418583612f98565b602081519101206101208401350361292d5760a081016001600160a01b0361249382612f75565b1615612986576124a290612f75565b925b6001600160a01b038416928315612219576102006124c28785612f98565b9050116121f657843b159384159480612972575b6121f6578480612969575b61295b5760e08301906001600160a01b036124fb83612f75565b161515918261293c575b505061292d576001600160a01b0361251c84612f75565b1693604051966370a0823160e01b8852306004890152602088602481895afa9788156121eb575f986128f9575b50612561833061255b60208801612f75565b89613505565b6040516370a0823160e01b81523060048201526020816024818a5afa80156121eb578985915f906128c1575b61259892935061301b565b036128b257602496612691612633610c415f8051602061400e833981519152946125e160209b6125d18c6040606082013591013561303c565b908180612893575b50508961301b565b966125f7866001600160a01b036103eb8e612f75565b61260d88876001600160a01b036104078f612f75565b8061287f575b61286d575b61262d856001600160a01b036103eb8d612f75565b89612f98565b888151910120809561264760c08a01612f89565b9089856126558d8c01612f75565b61266a60e061266385612f75565b9401613049565b947f0000000000000000000000000000000000000000000000000000000000000000613112565b946127e36126e36126a460c08a01612f89565b886126b08c8601612f75565b6126bc60e08d01613049565b927f0000000000000000000000000000000000000000000000000000000000000000612f08565b946126ef8a8401612f75565b878a5f8051602061402e8339815191528761270983612f75565b61277461271860c08601612f89565b61272460e08701613049565b9060405194859460018060a01b03169960018060a01b0316988d35987f0000000000000000000000000000000000000000000000000000000000000000928d60406060840135930135918961305d565b0390a46127828a8401612f75565b9561278c8a612f75565b968a61279a60c08201612f89565b926127a760e08301613049565b94604051988998359b7f00000000000000000000000000000000000000000000000000000000000000009560406060870135960135948b6130ac565b0390a46001600160a01b03906127f890612f75565b16604051928380926370a0823160e01b82523060048301525afa9081156121eb575f9161283b575b500361282c5760015f55005b634fb8fb6360e01b5f5260045ffd5b90506020813d602011612865575b8161285660209383612ed3565b810103126105e1575182612820565b3d9150612849565b61287a610605828c612f98565b612618565b5061288a818b612f98565b90501515612613565b6005546128ab926001600160a01b0390911690613550565b8f816125d9565b639bfa3c1760e01b5f5260045ffd5b5050506020813d6020116128f1575b816128dd60209383612ed3565b810103126105e15751839081908a9061258d565b3d91506128d0565b9097506020813d602011612925575b8161291560209383612ed3565b810103126105e157519688612549565b3d9150612908565b6355afbcf160e11b5f5260045ffd5b9091506001600160a01b039061295190612f75565b1614158780612505565b62b8dfab60e11b5f5260045ffd5b50853b156124e1565b5061297d8785612f98565b905015156124d6565b507f0000000000000000000000000000000000000000000000000000000000000000926124a4565b63110ea83560e31b5f5260045ffd5b346105e1575f3660031901126105e157602061ffff600c5416604051908152f35b346105e15760a03660031901126105e1576129f7612dd4565b6129ff612de5565b612a07612d83565b91608435906001600160401b03821682036105e1576020936115da9360643592612f08565b346105e15760403660031901126105e157612344600435612a4b612d6d565b90612a656109cd825f526003602052600160405f20015490565b6132c7565b346105e1575f3660031901126105e157600d546040516001600160a01b039091168152602090f35b346105e15760203660031901126105e15760206115da6004355f526003602052600160405f20015490565b346105e15760403660031901126105e1577fed99d7f973907d796aba0d6dc27115925d06d1098e4c5c61ec36b7c49b1b36936040612af9612d57565b612b01612dc5565b90612b0a6131a6565b6001600160a01b03165f818152600b602052839020805460ff191660ff8415151617905590825191825215156020820152a1005b346105e15760203660031901126105e157612b57612d57565b6004546001600160a01b031690338290036122de576001600160a01b0316908115612bb457600d80546001600160a01b031916831790557ffd22260ca7b3d2a5f6332770491ab546b6235bc73909c334f5e304d2fae455b15f80a3005b63d92e233d60e01b5f5260045ffd5b346105e1575f3660031901126105e157602060405161ffff7f0000000000000000000000000000000000000000000000000000000000000000168152f35b346105e1575f3660031901126105e157600d546001600160a01b038116338190036122de57600454816001600160a01b0382167f101b8081ff3b56bbf45deb824d86a3b0fd38b7e3dd42421105cf8abe9106db0b5f80a36001600160a01b03199081169190911760045516600d55005b346105e1575f3660031901126105e157600a546040516001600160a01b039091168152602090f35b346105e1575f3660031901126105e15760206040515f80516020613fce8339815191528152f35b346105e1575f3660031901126105e1576040517f00000000000000000000000000000000000000000000000000000000000000006001600160a01b03168152602090f35b346105e15760203660031901126105e1576004359063ffffffff60e01b82168092036105e157602091637965db0b60e01b8114908115612d46575b5015158152f35b6301ffc9a760e01b14905083612d3f565b600435906001600160a01b03821682036105e157565b602435906001600160a01b03821682036105e157565b604435906001600160a01b03821682036105e157565b606435906001600160a01b03821682036105e157565b608435906001600160a01b03821682036105e157565b6024359081151582036105e157565b6004359061ffff821682036105e157565b6024359061ffff821682036105e157565b906101a06003198301126105e1576004356001600160401b0381116105e15761010081840360031901126105e157600401916101606023198201126105e157602491610184356001600160401b0381116105e157826023820112156105e1578060040135926001600160401b0384116105e157602484830101116105e1576024019190565b60206003198201126105e157600435906001600160401b0382116105e1576101009082900360031901126105e15760040190565b805180835260209291819084018484015e5f828201840152601f01601f1916010190565b90601f801991011681019081106001600160401b03821117612ef457604052565b634e487b7160e01b5f52604160045260245ffd5b939192909260405193602085019561ffff60f01b9060f01b16865261ffff60f01b9060f01b1660228501526001600160601b03199060601b16602484015260388301526001600160401b0360c01b9060c01b16605882015260408152612f6f606082612ed3565b51902090565b356001600160a01b03811681036105e15790565b3561ffff811681036105e15790565b903590601e19813603018212156105e157018035906001600160401b0382116105e1576020019181360383136105e157565b6001600160401b038111612ef457601f01601f191660200190565b929192612ff182612fca565b91612fff6040519384612ed3565b8294818452818301116105e1578281602093845f960137010152565b9190820391821161302857565b634e487b7160e01b5f52601160045260245ffd5b9190820180921161302857565b356001600160401b03811681036105e15790565b9691956001600160401b039561ffff949585939b9a9660e0996101008c019d60018060a01b03168c5260208c015260408b015260608a015260808901521660a08701521660c085015216910152565b9081526001600160a01b03918216602082015291811660408301529091166060820152608081019190915260a081019190915260c081019190915261ffff91821660e082015291166101008201526001600160401b039091166101208201526101400190565b9694929095939160405196602088019861ffff60f01b9060f01b16895261ffff60f01b9060f01b1660228801526001600160601b03199060601b1660248701526001600160601b03199060601b1660388601526001600160601b03199060601b16604c85015260608401526001600160401b0360c01b9060c01b166080830152608882015260888152612f6f60a882612ed3565b335f9081527f3617319a054d772f909f7c479a2cebe5066e836a939412e32403c99029b92eff602052604090205460ff16156131de57565b63e2517d3f60e01b5f52336004525f60245260445ffd5b5f81815260036020908152604080832033845290915290205460ff16156132195750565b63e2517d3f60e01b5f523360045260245260445ffd5b6001600160a01b0381165f9081525f80516020613fee833981519152602052604090205460ff166132c2576001600160a01b03165f8181525f80516020613fee83398151915260205260408120805460ff191660011790553391905f80516020613fce833981519152907f2f8788117e7eff1d82e926ec794901d17c78024a50270940304540a733656f0d9080a4600190565b505f90565b5f8181526003602090815260408083206001600160a01b038616845290915290205460ff1661334d575f8181526003602090815260408083206001600160a01b0395909516808452949091528120805460ff19166001179055339291907f2f8788117e7eff1d82e926ec794901d17c78024a50270940304540a733656f0d9080a4600190565b50505f90565b60025f54146133625760025f55565b633ee5aeb560e01b5f5260045ffd5b9291926101008101358042116134f75761012082013580156121f6576134c39360426134b4926134ba946001600160401b0360208801976133b189612f75565b936133be60408301612f75565b936133cb60c08401612f89565b61ffff6133da60e08601612f75565b9160a06133ea6101408801613049565b966040519960208b019b7f3a16219d06af018ad9787d0dcfcc281b004cb45454d560c61c3bc3288717ed648d52823560408d0152600180851b031660608c0152600180841b031660808b01526060810135828b0152608081013560c08b0152013560e08901521661010087015260018060a01b03166101208601526101408501526101608401521661018082015261018081526134896101a082612ed3565b519020613494613d87565b906040519161190160f01b83526002830152602282015220963691612fe5565b85613e9d565b90939193613ed7565b6001600160a01b03906134d590612f75565b166001600160a01b03909116036134e857565b638baa579f60e01b5f5260045ffd5b62202b7560e21b5f5260045ffd5b6040516323b872dd60e01b60208201526001600160a01b03928316602482015292909116604483015260648083019390935291815261354e91613549608483612ed3565b613b39565b565b60405163a9059cbb60e01b60208201526001600160a01b0392909216602483015260448083019390935291815261354e91613549606483612ed3565b6040519060205f8184019463095ea7b360e01b865260018060a01b031694856024860152816044860152604485526135c5606486612ed3565b84519082855af15f513d82613619575b5050156135e157505050565b61354961354e936040519063095ea7b360e01b602083015260248201525f604482015260448152613613606482612ed3565b82613b39565b90915061363657506001600160a01b0381163b15155b5f806135d5565b60011461362f565b60405163095ea7b360e01b60208083019182526001600160a01b0385166024840152604480840196909652948252929390925f9061367d606486612ed3565b84519082855af15f513d826136d8575b50501561369957505050565b60405163095ea7b360e01b60208201526001600160a01b0390931660248401525f604480850191909152835261354e9261354990613613606482612ed3565b9091506136f557506001600160a01b0381163b15155b5f8061368d565b6001146136ee565b5f92838093826040519384928337810182815203925af13d1561377d573d61372481612fca565b906137326040519283612ed3565b81525f60203d92013e5b1561374357565b60405162461bcd60e51b81526020600482015260126024820152711d185c99d95d0818d85b1b0819985a5b195960721b6044820152606490fd5b61373c565b6001600160a01b0381165f9081525f80516020613fee833981519152602052604090205460ff16156132c2576001600160a01b03165f8181525f80516020613fee83398151915260205260408120805460ff191690553391905f80516020613fce833981519152907ff6391f5c32d9c69d2a47ea670b442974b53935d1edc7fd64eb21e047a839171b9080a4600190565b5f8181526003602090815260408083206001600160a01b038616845290915290205460ff161561334d575f8181526003602090815260408083206001600160a01b0395909516808452949091528120805460ff19169055339291907ff6391f5c32d9c69d2a47ea670b442974b53935d1edc7fd64eb21e047a839171b9080a4600190565b919290916001600160a01b0316156138fc5781156138ed576138ba82918461303c565b116138de576138c890613aca565b106138cf57565b63cd4e616760e01b5f5260045ffd5b631f656da960e31b5f5260045ffd5b631f2a200560e01b5f5260045ffd5b635d1a467d60e11b5f5260045ffd5b6040516370a0823160e01b815230600482015292956001600160a01b03909116939092909190602081602481885afa9081156121eb5783905f92613a10575b506139589192309087613505565b6040516370a0823160e01b815230600482015290602082602481885afa80156121eb5783925f916139d7575b509061398f9161301b565b036128b2576139a46139af926139b79561303c565b90816139ba5761301b565b928391613550565b90565b6005546139d29083906001600160a01b031686613550565b61301b565b919250506020813d602011613a08575b816139f460209383612ed3565b810103126105e1575182919061398f613984565b3d91506139e7565b9150506020813d602011613a3e575b81613a2c60209383612ed3565b810103126105e157518261395861394a565b3d9150613a1f565b9091905f905f198482099084810292838084109303928084039314613abd57826127101115613aab57507fbc01a36e2eb1c432ca57a786c226809d495182a9930be0ded288ce703afb7e919394612710910990828211900360fc1b910360041c170290565b634e487b71905260116020526024601cfd5b5050506127109192500490565b905f5f19600584096005840291828083109203918083039214613b2e57816127101115613aab575061271060057fbc01a36e2eb1c432ca57a786c226809d495182a9930be0ded288ce703afb7e9194950990828211900360fc1b910360041c170290565b505061271090049150565b905f602091828151910182855af1156121eb575f513d613b8857506001600160a01b0381163b155b613b685750565b635274afe760e01b5f9081526001600160a01b0391909116600452602490fd5b60011415613b61565b60ff8114613bd75760ff811690601f8211613bc85760405191613bb5604084612ed3565b6020808452838101919036833783525290565b632cd44ac360e21b5f5260045ffd5b506040515f6001548060011c9160018216918215613cad575b602084108314613c99578385528492908115613c7a5750600114613c1b575b6139b792500382612ed3565b5060015f90815290917fb10e2d527612073b26eecdfd717e6a320cf44b4afac2b0732d9fcbe2b7fa0cf65b818310613c5e5750509060206139b792820101613c0f565b6020919350806001915483858801015201910190918392613c46565b602092506139b794915060ff191682840152151560051b820101613c0f565b634e487b7160e01b5f52602260045260245ffd5b92607f1692613bf0565b60ff8114613cdb5760ff811690601f8211613bc85760405191613bb5604084612ed3565b506040515f6002548060011c9160018216918215613d7d575b602084108314613c99578385528492908115613c7a5750600114613d1e576139b792500382612ed3565b5060025f90815290917f405787fa12a823e0f2b7631cc41b3ba8828b3321ca811111fa75cd3aa3bb5ace5b818310613d615750509060206139b792820101613c0f565b6020919350806001915483858801015201910190918392613d49565b92607f1692613cf4565b307f00000000000000000000000000000000000000000000000000000000000000006001600160a01b03161480613e74575b15613de2577f000000000000000000000000000000000000000000000000000000000000000090565b60405160208101907f8b73c3c69bb8fe3d512ecc4cf759cc79239f7b179b0ffacaa9a75d522b39400f82527f000000000000000000000000000000000000000000000000000000000000000060408201527f000000000000000000000000000000000000000000000000000000000000000060608201524660808201523060a082015260a08152612f6f60c082612ed3565b507f00000000000000000000000000000000000000000000000000000000000000004614613db9565b8151919060418303613ecd57613ec69250602082015190606060408401519301515f1a90613f4b565b9192909190565b50505f9160029190565b6004811015613f375780613ee9575050565b60018103613f005763f645eedf60e01b5f5260045ffd5b60028103613f1b575063fce698f760e01b5f5260045260245ffd5b600314613f255750565b6335e2f38360e21b5f5260045260245ffd5b634e487b7160e01b5f52602160045260245ffd5b91907f7fffffffffffffffffffffffffffffff5d576e7357a4501ddfe92f46681b20a08411613fc2579160209360809260ff5f9560405194855216868401526040830152606082015282805260015afa156121eb575f516001600160a01b03811615613fb857905f905f90565b505f906001905f90565b5050505f916003919056fedbeb657137b1822b3d5418bea6fd641226d964b4c3871ef23546db2622258871561badf8039e1997d45ac8a3b2b2b43f9c1cdeb14206c59b53a0c94e224a4bf079397877f6a58588f65d6e8255514411fe780cf88a68c210c2b7c3afe8951198a6751dcd0f6b9669eceaf240a62b80995af3ce6972edc604e9d1316d5ff59aa5a26469706673582212204e8a88941a15532aa7d81ec21d61adee5fe367656e26a8202491251c50b4084564736f6c634300081a00333617319a054d772f909f7c479a2cebe5066e836a939412e32403c99029b92eff","linkReferences":{}},"methodIdentifiers":{"ADAPTER_ROLE()":"02a882e6","DEFAULT_ADMIN_ROLE()":"a217fddf","FEE_CAP_BPS()":"5382a911","MAX_PAYLOAD_BYTES()":"d31ecaa7","ROUTE_INTENT_TYPEHASH_PUBLIC()":"de3011e7","SRC_CHAIN_ID()":"1459dda2","acceptAdmin()":"0e18b681","adapter()":"03eadcfc","addAdapter(address)":"60d54d41","admin()":"f851a440","computeGlobalRouteId(uint16,uint16,address,bytes32,uint64)":"2f32ff62","computeMessageHash(uint16,uint16,address,address,address,uint256,uint64,bytes32)":"9d03c6f8","defaultTarget()":"0215c402","eip712Domain()":"84b0196e","enforceTargetAllowlist()":"b1d7d467","feeCollector()":"c415b95c","feeRecipient()":"46904840","finalizeMessage(bytes32,bytes32,address,address,address,uint256,uint256,uint256)":"5acd1e6b","freezeAdapter(address,bool)":"1f938923","frozenAdapter(address)":"61d1a0f1","getRoleAdmin(bytes32)":"248a9ca3","grantRole(bytes32,address)":"2f2ff15d","hasRole(bytes32,address)":"91d14854","isAllowedTarget(address)":"78addb48","lpShareBps()":"4c7ac03f","pendingAdmin()":"26782247","proposeAdmin(address)":"147bf6c4","protocolFeeBps()":"35659fb8","protocolShareBps()":"37ed3f1e","relayerFeeBps()":"93c79ba6","removeAdapter(address)":"585cd34b","renounceRole(bytes32,address)":"36568abe","revokeRole(bytes32,address)":"d547741f","setAdapter(address)":"ab1da79c","setAdmin(address)":"704b6c02","setAllowedTarget(address,bool)":"ca1dd22e","setEnforceTargetAllowlist(bool)":"462455d2","setFeeCollector(address)":"a42dce80","setFeeRecipient(address)":"e74b981b","setLPShareBps(uint16)":"ea5acf02","setProtocolFeeBps(uint16)":"be37b12c","setProtocolShareBps(uint16)":"7e863a22","setRelayerFeeBps(uint16)":"ecaab861","supportsInterface(bytes4)":"01ffc9a7","universalBridgeApproveThenCall((address,uint256,uint256,uint256,bytes,address,uint16,uint64))":"f7bc2e78","universalBridgeApproveThenCallWithSig((address,uint256,uint256,uint256,bytes,address,uint16,uint64),(bytes32,address,address,uint256,uint256,uint256,uint16,address,uint256,bytes32,uint64),bytes)":"362d6cd4","universalBridgeTransfer((address,uint256,uint256,uint256,bytes,address,uint16,uint64))":"7143d818","universalBridgeTransferWithDAIPermit((address,uint256,uint256,uint256,bytes,address,uint16,uint64),uint256,uint256,bool,uint8,bytes32,bytes32)":"5248bb70","universalBridgeTransferWithPermit((address,uint256,uint256,uint256,bytes,address,uint16,uint64),uint256,uint8,bytes32,bytes32)":"9eead346","universalBridgeTransferWithSig((address,uint256,uint256,uint256,bytes,address,uint16,uint64),(bytes32,address,address,uint256,uint256,uint256,uint16,address,uint256,bytes32,uint64),bytes)":"b71351d6","usedIntents(bytes32)":"6336803b","usedMessages(bytes32)":"5a028400"}}}}}