{"abi":[{"type":"constructor","inputs":[{"name":"name","type":"string","internalType":"string"},{"name":"symbol","type":"string","internalType":"string"}],"stateMutability":"nonpayable"},{"type":"function","name":"DOMAIN_SEPARATOR","inputs":[],"outputs":[{"name":"","type":"bytes32","internalType":"bytes32"}],"stateMutability":"view"},{"type":"function","name":"PERMIT_TYPEHASH","inputs":[],"outputs":[{"name":"","type":"bytes32","internalType":"bytes32"}],"stateMutability":"view"},{"type":"function","name":"allowance","inputs":[{"name":"owner","type":"address","internalType":"address"},{"name":"spender","type":"address","internalType":"address"}],"outputs":[{"name":"","type":"uint256","internalType":"uint256"}],"stateMutability":"view"},{"type":"function","name":"approve","inputs":[{"name":"spender","type":"address","internalType":"address"},{"name":"value","type":"uint256","internalType":"uint256"}],"outputs":[{"name":"","type":"bool","internalType":"bool"}],"stateMutability":"nonpayable"},{"type":"function","name":"balanceOf","inputs":[{"name":"account","type":"address","internalType":"address"}],"outputs":[{"name":"","type":"uint256","internalType":"uint256"}],"stateMutability":"view"},{"type":"function","name":"decimals","inputs":[],"outputs":[{"name":"","type":"uint8","internalType":"uint8"}],"stateMutability":"view"},{"type":"function","name":"mint","inputs":[{"name":"to","type":"address","internalType":"address"},{"name":"amount","type":"uint256","internalType":"uint256"}],"outputs":[],"stateMutability":"nonpayable"},{"type":"function","name":"name","inputs":[],"outputs":[{"name":"","type":"string","internalType":"string"}],"stateMutability":"view"},{"type":"function","name":"nonces","inputs":[{"name":"","type":"address","internalType":"address"}],"outputs":[{"name":"","type":"uint256","internalType":"uint256"}],"stateMutability":"view"},{"type":"function","name":"permit","inputs":[{"name":"owner","type":"address","internalType":"address"},{"name":"spender","type":"address","internalType":"address"},{"name":"value","type":"uint256","internalType":"uint256"},{"name":"deadline","type":"uint256","internalType":"uint256"},{"name":"v","type":"uint8","internalType":"uint8"},{"name":"r","type":"bytes32","internalType":"bytes32"},{"name":"s","type":"bytes32","internalType":"bytes32"}],"outputs":[],"stateMutability":"nonpayable"},{"type":"function","name":"symbol","inputs":[],"outputs":[{"name":"","type":"string","internalType":"string"}],"stateMutability":"view"},{"type":"function","name":"totalSupply","inputs":[],"outputs":[{"name":"","type":"uint256","internalType":"uint256"}],"stateMutability":"view"},{"type":"function","name":"transfer","inputs":[{"name":"to","type":"address","internalType":"address"},{"name":"value","type":"uint256","internalType":"uint256"}],"outputs":[{"name":"","type":"bool","internalType":"bool"}],"stateMutability":"nonpayable"},{"type":"function","name":"transferFrom","inputs":[{"name":"from","type":"address","internalType":"address"},{"name":"to","type":"address","internalType":"address"},{"name":"value","type":"uint256","internalType":"uint256"}],"outputs":[{"name":"","type":"bool","internalType":"bool"}],"stateMutability":"nonpayable"},{"type":"event","name":"Approval","inputs":[{"name":"owner","type":"address","indexed":true,"internalType":"address"},{"name":"spender","type":"address","indexed":true,"internalType":"address"},{"name":"value","type":"uint256","indexed":false,"internalType":"uint256"}],"anonymous":false},{"type":"event","name":"Transfer","inputs":[{"name":"from","type":"address","indexed":true,"internalType":"address"},{"name":"to","type":"address","indexed":true,"internalType":"address"},{"name":"value","type":"uint256","indexed":false,"internalType":"uint256"}],"anonymous":false},{"type":"error","name":"ECDSAInvalidSignature","inputs":[]},{"type":"error","name":"ECDSAInvalidSignatureLength","inputs":[{"name":"length","type":"uint256","internalType":"uint256"}]},{"type":"error","name":"ECDSAInvalidSignatureS","inputs":[{"name":"s","type":"bytes32","internalType":"bytes32"}]},{"type":"error","name":"ERC20InsufficientAllowance","inputs":[{"name":"spender","type":"address","internalType":"address"},{"name":"allowance","type":"uint256","internalType":"uint256"},{"name":"needed","type":"uint256","internalType":"uint256"}]},{"type":"error","name":"ERC20InsufficientBalance","inputs":[{"name":"sender","type":"address","internalType":"address"},{"name":"balance","type":"uint256","internalType":"uint256"},{"name":"needed","type":"uint256","internalType":"uint256"}]},{"type":"error","name":"ERC20InvalidApprover","inputs":[{"name":"approver","type":"address","internalType":"address"}]},{"type":"error","name":"ERC20InvalidReceiver","inputs":[{"name":"receiver","type":"address","internalType":"address"}]},{"type":"error","name":"ERC20InvalidSender","inputs":[{"name":"sender","type":"address","internalType":"address"}]},{"type":"error","name":"ERC20InvalidSpender","inputs":[{"name":"spender","type":"address","internalType":"address"}]}],"bytecode":{"object":"0x60a0806040523461039d57610e50803803809161001c82856103a1565b833981019060408183031261039d5780516001600160401b03811161039d57826100479183016103c4565b60208201519092906001600160401b03811161039d5761006792016103c4565b8151916001600160401b0383116102b057600354600181811c91168015610393575b602082101461029257601f8111610330575b50602092601f81116001146102cf57809192935f916102c4575b508160011b915f199060031b1c1916176003555b81516001600160401b0381116102b057600454600181811c911680156102a6575b602082101461029257601f811161022f575b50602092601f82116001146101ce57928192935f926101c3575b50508160011b915f199060031b1c1916176004555b6020815191012060409060016020835161014585826103a1565b82815201603160f81b81522082519060208201927f8b73c3c69bb8fe3d512ecc4cf759cc79239f7b179b0ffacaa9a75d522b39400f84528483015260608201524660808201523060a082015260a081526101a060c0826103a1565b51902060805251610a36908161041a82396080518181816101ef01526105140152f35b015190505f80610116565b601f1982169360045f52805f20915f5b86811061021757508360019596106101ff575b505050811b0160045561012b565b01515f1960f88460031b161c191690555f80806101f1565b919260206001819286850151815501940192016101de565b60045f527f8a35acfbc15ff81a39ae7d344fd709f28e8600b4aa8c65c6b64bfe7fe36bd19b601f830160051c81019160208410610288575b601f0160051c01905b81811061027d57506100fc565b5f8155600101610270565b9091508190610267565b634e487b7160e01b5f52602260045260245ffd5b90607f16906100ea565b634e487b7160e01b5f52604160045260245ffd5b90508201515f6100b5565b601f1981169360035f52805f20905f5b868110610318575082600194959610610300575b5050811b016003556100c9565b8401515f1960f88460031b161c191690555f806102f3565b909160206001819285880151815501930191016102df565b60035f527fc2575a0e9e593c00f959f8c92f12db2869c3395a3b0502d05e2516446f71f85b601f850160051c81019160208610610389575b601f0160051c01905b81811061037e575061009b565b5f8155600101610371565b9091508190610368565b90607f1690610089565b5f80fd5b601f909101601f19168101906001600160401b038211908210176102b057604052565b81601f8201121561039d578051906001600160401b0382116102b057604051926103f8601f8401601f1916602001856103a1565b8284526020838301011161039d57815f9260208093018386015e830101529056fe6080806040526004361015610012575f80fd5b5f3560e01c90816306fdde03146106ae57508063095ea7b31461068857806318160ddd1461066b57806323b872dd1461058c57806330adf81f14610552578063313ce567146105375780633644e515146104fd57806340c10f191461046f57806370a08231146104385780637ecebe001461040057806395d89b41146102fc578063a9059cbb146102cb578063d505accf1461010a5763dd62ed3e146100b6575f80fd5b34610106576040366003190112610106576100cf610790565b6100d76107a6565b6001600160a01b039182165f908152600160209081526040808320949093168252928352819020549051908152f35b5f80fd5b346101065760e036600319011261010657610123610790565b61012b6107a6565b6044359060843560643560ff821682036101065780421161029c576001600160a01b0385165f8181526005602052604090208054919390915f1981146102885761024093610237936001830190556040519060208201927fd505accf2a6f78f5a85e0ed8549da2b907e898504e5ff1dd6ec8abca0f3f2aa0845287604084015260018060a01b038916606084015289608084015260a083015260c082015260c081526101d860e0826107bc565b5190209060405190602082019261190160f01b84527f000000000000000000000000000000000000000000000000000000000000000060228401526042830152604282526102276062836107bc565b60c4359260a435925190206108ff565b9092919261098c565b6001600160a01b031603610259576102579261089c565b005b60405162461bcd60e51b81526020600482015260076024820152666261642073696760c81b6044820152606490fd5b634e487b7160e01b5f52601160045260245ffd5b60405162461bcd60e51b8152602060048201526007602482015266195e1c1a5c995960ca1b6044820152606490fd5b34610106576040366003190112610106576102f16102e7610790565b60243590336107f2565b602060405160018152f35b34610106575f366003190112610106576040515f6004548060011c906001811680156103f6575b6020831081146103e2578285529081156103be5750600114610360575b61035c83610350818503826107bc565b60405191829182610766565b0390f35b91905060045f527f8a35acfbc15ff81a39ae7d344fd709f28e8600b4aa8c65c6b64bfe7fe36bd19b915f905b8082106103a457509091508101602001610350610340565b91926001816020925483858801015201910190929161038c565b60ff191660208086019190915291151560051b840190910191506103509050610340565b634e487b7160e01b5f52602260045260245ffd5b91607f1691610323565b34610106576020366003190112610106576001600160a01b03610421610790565b165f526005602052602060405f2054604051908152f35b34610106576020366003190112610106576001600160a01b03610459610790565b165f525f602052602060405f2054604051908152f35b3461010657604036600319011261010657610488610790565b6001600160a01b031660243581156104ea57600254908082018092116102885760207fddf252ad1be2c89b69c2b068fc378daa952ba7f163c4a11628f55a4df523b3ef915f9360025584845283825260408420818154019055604051908152a3005b63ec442f0560e01b5f525f60045260245ffd5b34610106575f3660031901126101065760206040517f00000000000000000000000000000000000000000000000000000000000000008152f35b34610106575f36600319011261010657602060405160128152f35b34610106575f3660031901126101065760206040517fd505accf2a6f78f5a85e0ed8549da2b907e898504e5ff1dd6ec8abca0f3f2aa08152f35b34610106576060366003190112610106576105a5610790565b6105ad6107a6565b6001600160a01b0382165f818152600160209081526040808320338452909152902054909260443592915f1981106105eb575b506102f193506107f2565b83811061065057841561063d57331561062a576102f1945f52600160205260405f2060018060a01b0333165f526020528360405f2091039055846105e0565b634a1406b160e11b5f525f60045260245ffd5b63e602df0560e01b5f525f60045260245ffd5b8390637dc7a0d960e11b5f523360045260245260445260645ffd5b34610106575f366003190112610106576020600254604051908152f35b34610106576040366003190112610106576102f16106a4610790565b602435903361089c565b34610106575f366003190112610106575f6003548060011c9060018116801561075c575b6020831081146103e2578285529081156103be57506001146106fe5761035c83610350818503826107bc565b91905060035f527fc2575a0e9e593c00f959f8c92f12db2869c3395a3b0502d05e2516446f71f85b915f905b80821061074257509091508101602001610350610340565b91926001816020925483858801015201910190929161072a565b91607f16916106d2565b602060409281835280519182918282860152018484015e5f828201840152601f01601f1916010190565b600435906001600160a01b038216820361010657565b602435906001600160a01b038216820361010657565b90601f8019910116810190811067ffffffffffffffff8211176107de57604052565b634e487b7160e01b5f52604160045260245ffd5b6001600160a01b0316908115610889576001600160a01b03169182156104ea57815f525f60205260405f205481811061087057817fddf252ad1be2c89b69c2b068fc378daa952ba7f163c4a11628f55a4df523b3ef92602092855f525f84520360405f2055845f525f825260405f20818154019055604051908152a3565b8263391434e360e21b5f5260045260245260445260645ffd5b634b637e8f60e11b5f525f60045260245ffd5b6001600160a01b031690811561063d576001600160a01b031691821561062a5760207f8c5be1e5ebec7d5bd14f71427d1e84f3dd0314c0f7b2291e5b200ac8c7c3b92591835f526001825260405f20855f5282528060405f2055604051908152a3565b91907f7fffffffffffffffffffffffffffffff5d576e7357a4501ddfe92f46681b20a08411610981579160209360809260ff5f9560405194855216868401526040830152606082015282805260015afa15610976575f516001600160a01b0381161561096c57905f905f90565b505f906001905f90565b6040513d5f823e3d90fd5b5050505f9160039190565b60048110156109ec578061099e575050565b600181036109b55763f645eedf60e01b5f5260045ffd5b600281036109d0575063fce698f760e01b5f5260045260245ffd5b6003146109da5750565b6335e2f38360e21b5f5260045260245ffd5b634e487b7160e01b5f52602160045260245ffdfea264697066735822122015bc80e9848cbdb6e30fbd16c2bde0665cc38506222b0bd2d844eb8c633c184364736f6c634300081a0033","linkReferences":{}},"methodIdentifiers":{"DOMAIN_SEPARATOR()":"3644e515","PERMIT_TYPEHASH()":"30adf81f","allowance(address,address)":"dd62ed3e","approve(address,uint256)":"095ea7b3","balanceOf(address)":"70a08231","decimals()":"313ce567","mint(address,uint256)":"40c10f19","name()":"06fdde03","nonces(address)":"7ecebe00","permit(address,address,uint256,uint256,uint8,bytes32,bytes32)":"d505accf","symbol()":"95d89b41","totalSupply()":"18160ddd","transfer(address,uint256)":"a9059cbb","transferFrom(address,address,uint256)":"23b872dd"},"id":5}