{"abi":[{"type":"constructor","inputs":[],"stateMutability":"nonpayable"},{"type":"function","name":"compute","inputs":[{"name":"salt","type":"bytes32","internalType":"bytes32"},{"name":"creationCodeHash","type":"bytes32","internalType":"bytes32"}],"outputs":[{"name":"","type":"address","internalType":"address"}],"stateMutability":"view"},{"type":"function","name":"deploy","inputs":[{"name":"salt","type":"bytes32","internalType":"bytes32"},{"name":"creationCode","type":"bytes","internalType":"bytes"}],"outputs":[{"name":"addr","type":"address","internalType":"address"}],"stateMutability":"payable"},{"type":"function","name":"owner","inputs":[],"outputs":[{"name":"","type":"address","internalType":"address"}],"stateMutability":"view"},{"type":"function","name":"withdraw","inputs":[{"name":"to","type":"address","internalType":"address payable"}],"outputs":[],"stateMutability":"nonpayable"},{"type":"event","name":"Deployed","inputs":[{"name":"addr","type":"address","indexed":false,"internalType":"address"},{"name":"salt","type":"bytes32","indexed":false,"internalType":"bytes32"}],"anonymous":false}],"bytecode":{"object":"0x608080604052346026575f80546001600160a01b0319163317905561033f908161002b8239f35b5f80fdfe60806040526004361015610011575f80fd5b5f3560e01c80634c8a378d1461005457806351cff8d91461004f5780638da5cb5b1461004a5763cdcb760a14610045575f80fd5b6101a5565b61017e565b6100b6565b346100b25760403660031901126100b2576001600160f81b031960a0523060601b60a15260043560b55260243560d55260556080526100936075610230565b60805160a0206040516001600160a01b039091168152602090f35b0390f35b5f80fd5b346100b25760203660031901126100b2576004356001600160a01b038116908190036100b2575f546001600160a01b0316330361014d57801561011e575f808080934790828215610115575bf11561010a57005b6040513d5f823e3d90fd5b506108fc610102565b60405162461bcd60e51b81526020600482015260076024820152667a65726f20746f60c81b6044820152606490fd5b60405162461bcd60e51b81526020600482015260096024820152683737ba1037bbb732b960b91b6044820152606490fd5b346100b2575f3660031901126100b2575f546040516001600160a01b039091168152602090f35b60403660031901126100b25760043560243567ffffffffffffffff81116100b257366023820112156100b257806004013567ffffffffffffffff81116100b25736602482840101116100b2576100ae92602461020293019061027a565b6040516001600160a01b0390911681529081906020820190565b634e487b7160e01b5f52604160045260245ffd5b601f80199101166080016080811067ffffffffffffffff82111761025357604052565b61021c565b90601f8019910116810190811067ffffffffffffffff82111761025357604052565b929167ffffffffffffffff8111610253576040516102a2601f8301601f191660200182610258565b818152602081019136818501116100b2576020815f928896863783010152519034f591823b156100b257604080516001600160a01b038516815260208101929092527f94bfd9af14ef450884c8a7ddb5734e2e1e14e70a1c84f0801cc5a29e34d2642891a156fea2646970667358221220cd211d2bb1c77bef6ec9479ae6dbf0c36fdb11ee19dce46c073d80b39a5cb6f064736f6c634300081a0033","linkReferences":{}},"methodIdentifiers":{"compute(bytes32,bytes32)":"4c8a378d","deploy(bytes32,bytes)":"cdcb760a","owner()":"8da5cb5b","withdraw(address)":"51cff8d9"},"id":1}