{"abi":[{"type":"function","name":"compute","inputs":[{"name":"salt","type":"bytes32","internalType":"bytes32"},{"name":"creationCodeHash","type":"bytes32","internalType":"bytes32"}],"outputs":[{"name":"","type":"address","internalType":"address"}],"stateMutability":"view"},{"type":"function","name":"deploy","inputs":[{"name":"salt","type":"bytes32","internalType":"bytes32"},{"name":"creationCode","type":"bytes","internalType":"bytes"}],"outputs":[{"name":"addr","type":"address","internalType":"address"}],"stateMutability":"payable"},{"type":"event","name":"Deployed","inputs":[{"name":"addr","type":"address","indexed":false,"internalType":"address"},{"name":"salt","type":"bytes32","indexed":false,"internalType":"bytes32"}],"anonymous":false}],"bytecode":{"object":"0x60808060405234601557610230908161001a8239f35b5f80fdfe60806040526004361015610011575f80fd5b5f3560e01c80634c8a378d146100345763cdcb760a1461002f575f80fd5b610096565b34610092576040366003190112610092576001600160f81b031960a0523060601b60a15260043560b55260243560d55260556080526100736075610121565b60805160a0206040516001600160a01b039091168152602090f35b0390f35b5f80fd5b60403660031901126100925760043560243567ffffffffffffffff8111610092573660238201121561009257806004013567ffffffffffffffff81116100925736602482840101116100925761008e9260246100f393019061016b565b6040516001600160a01b0390911681529081906020820190565b634e487b7160e01b5f52604160045260245ffd5b601f80199101166080016080811067ffffffffffffffff82111761014457604052565b61010d565b90601f8019910116810190811067ffffffffffffffff82111761014457604052565b929167ffffffffffffffff811161014457604051610193601f8301601f191660200182610149565b81815260208101913681850111610092576020815f928896863783010152519034f591823b1561009257604080516001600160a01b038516815260208101929092527f94bfd9af14ef450884c8a7ddb5734e2e1e14e70a1c84f0801cc5a29e34d2642891a156fea26469706673582212207c6c98317e8ab2a81eb6856dd9cc0909b2cd4bf693bff2cffdc0735479fd057c64736f6c634300081a0033","linkReferences":{}},"methodIdentifiers":{"compute(bytes32,bytes32)":"4c8a378d","deploy(bytes32,bytes)":"cdcb760a"},"id":2}