{"abi":[{"type":"fallback","stateMutability":"payable"},{"type":"receive","stateMutability":"payable"},{"type":"function","name":"callCount","inputs":[],"outputs":[{"name":"","type":"uint256","internalType":"uint256"}],"stateMutability":"view"},{"type":"function","name":"lastCaller","inputs":[],"outputs":[{"name":"","type":"address","internalType":"address"}],"stateMutability":"view"},{"type":"function","name":"lastPayload","inputs":[],"outputs":[{"name":"","type":"bytes","internalType":"bytes"}],"stateMutability":"view"},{"type":"event","name":"Executed","inputs":[{"name":"caller","type":"address","indexed":false,"internalType":"address"},{"name":"payload","type":"bytes","indexed":false,"internalType":"bytes"},{"name":"bal","type":"uint256","indexed":false,"internalType":"uint256"}],"anonymous":false}],"bytecode":{"object":"0x60808060405234601557610473908161001a8239f35b5f80fdfe6080806040526004361015610286575b5036156101c7575f80546001600160a01b0319163317905567ffffffffffffffff36116101b3576100416001546103ef565b601f8111610177575b505f601f36116001146100fe575f90366100f5575b503660011b905f193660031b1c1916176001555b600254600181018091116100e1576002557f080a43f7ce7bca1e5c8d458fcbe5720d616467da80f3eb96275978bb35b366b8476040519033825260606020830152366060830152365f60808401375f608036840101526040820152608081601f19601f3601168101030190a1005b634e487b7160e01b5f52601160045260245ffd5b9050355f61005f565b601f1936169060015f527fb10e2d527612073b26eecdfd717e6a320cf44b4afac2b0732d9fcbe2b7fa0cf6915f5b8181106101615750361161014b575b5050600136811b01600155610073565b355f193660031b60f8161c191690555f8061013b565b919260206001819286358155019401920161012c565b6101a39060015f5260205f20601f360160051c810191602036106101a9575b601f0160051c0190610427565b5f61004a565b9091508190610196565b634e487b7160e01b5f52604160045260245ffd5b336bffffffffffffffffffffffff60a01b5f5416175f556101e96001546103ef565b601f8111610248575b505f600155600254600181018091116100e1576002557f080a43f7ce7bca1e5c8d458fcbe5720d616467da80f3eb96275978bb35b366b860804760405190338252606060208301525f60608301526040820152a1005b60015f5261028090601f0160051c7fb10e2d527612073b26eecdfd717e6a320cf44b4afac2b0732d9fcbe2b7fa0cf690810190610427565b5f6101f2565b5f3560e01c9081632113522a146103cd575080634b28f9a2146103b057634cc2aa3c146102b3575f61000f565b346103ac575f3660031901126103ac576040516001545f6102d3826103ef565b808452602084019260018116908115610393575060011461033e575b50829003601f01601f191682019167ffffffffffffffff8311818410176101b3576040918391828452602083525180918160208501528484015e5f828201840152601f01601f19168101030190f35b905060015f527fb10e2d527612073b26eecdfd717e6a320cf44b4afac2b0732d9fcbe2b7fa0cf65f905b82821061037d5750602091508301015f6102ef565b6001816020925483858901015201910190610368565b60ff1916845250151560051b830160200190505f6102ef565b5f80fd5b346103ac575f3660031901126103ac576020600254604051908152f35b346103ac575f3660031901126103ac575f546001600160a01b03168152602090f35b90600182811c9216801561041d575b602083101461040957565b634e487b7160e01b5f52602260045260245ffd5b91607f16916103fe565b818110610432575050565b5f815560010161042756fea26469706673582212203687025bf0b5c0946cbd5e2593faedbe6dcec0deb0e1a1f267835c4afd1b024164736f6c634300081a0033","linkReferences":{}},"methodIdentifiers":{"callCount()":"4b28f9a2","lastCaller()":"2113522a","lastPayload()":"4cc2aa3c"},"id":19}