{"abi":[{"type":"constructor","inputs":[{"name":"_admin","type":"address","internalType":"address"},{"name":"_feeRecipient","type":"address","internalType":"address"},{"name":"_defaultTarget","type":"address","internalType":"address"},{"name":"_srcChainId","type":"uint16","internalType":"uint16"}],"stateMutability":"nonpayable"},{"type":"function","name":"FEE_CAP_BPS","inputs":[],"outputs":[{"name":"","type":"uint16","internalType":"uint16"}],"stateMutability":"view"},{"type":"function","name":"MAX_PAYLOAD_BYTES","inputs":[],"outputs":[{"name":"","type":"uint256","internalType":"uint256"}],"stateMutability":"view"},{"type":"function","name":"ROUTE_INTENT_TYPEHASH_PUBLIC","inputs":[],"outputs":[{"name":"","type":"bytes32","internalType":"bytes32"}],"stateMutability":"pure"},{"type":"function","name":"SRC_CHAIN_ID","inputs":[],"outputs":[{"name":"","type":"uint16","internalType":"uint16"}],"stateMutability":"view"},{"type":"function","name":"acceptAdmin","inputs":[],"outputs":[],"stateMutability":"nonpayable"},{"type":"function","name":"adapter","inputs":[],"outputs":[{"name":"","type":"address","internalType":"address"}],"stateMutability":"view"},{"type":"function","name":"admin","inputs":[],"outputs":[{"name":"","type":"address","internalType":"address"}],"stateMutability":"view"},{"type":"function","name":"computeGlobalRouteId","inputs":[{"name":"srcChainId","type":"uint16","internalType":"uint16"},{"name":"dstChainId","type":"uint16","internalType":"uint16"},{"name":"initiator","type":"address","internalType":"address"},{"name":"messageHash","type":"bytes32","internalType":"bytes32"},{"name":"nonce","type":"uint64","internalType":"uint64"}],"outputs":[{"name":"","type":"bytes32","internalType":"bytes32"}],"stateMutability":"pure"},{"type":"function","name":"computeMessageHash","inputs":[{"name":"srcChainId","type":"uint16","internalType":"uint16"},{"name":"dstChainId","type":"uint16","internalType":"uint16"},{"name":"initiator","type":"address","internalType":"address"},{"name":"target","type":"address","internalType":"address"},{"name":"token","type":"address","internalType":"address"},{"name":"amount","type":"uint256","internalType":"uint256"},{"name":"nonce","type":"uint64","internalType":"uint64"},{"name":"payloadHash","type":"bytes32","internalType":"bytes32"}],"outputs":[{"name":"","type":"bytes32","internalType":"bytes32"}],"stateMutability":"pure"},{"type":"function","name":"defaultTarget","inputs":[],"outputs":[{"name":"","type":"address","internalType":"address"}],"stateMutability":"view"},{"type":"function","name":"eip712Domain","inputs":[],"outputs":[{"name":"fields","type":"bytes1","internalType":"bytes1"},{"name":"name","type":"string","internalType":"string"},{"name":"version","type":"string","internalType":"string"},{"name":"chainId","type":"uint256","internalType":"uint256"},{"name":"verifyingContract","type":"address","internalType":"address"},{"name":"salt","type":"bytes32","internalType":"bytes32"},{"name":"extensions","type":"uint256[]","internalType":"uint256[]"}],"stateMutability":"view"},{"type":"function","name":"enforceTargetAllowlist","inputs":[],"outputs":[{"name":"","type":"bool","internalType":"bool"}],"stateMutability":"view"},{"type":"function","name":"feeCollector","inputs":[],"outputs":[{"name":"","type":"address","internalType":"address"}],"stateMutability":"view"},{"type":"function","name":"feeRecipient","inputs":[],"outputs":[{"name":"","type":"address","internalType":"address"}],"stateMutability":"view"},{"type":"function","name":"finalizeMessage","inputs":[{"name":"globalRouteId","type":"bytes32","internalType":"bytes32"},{"name":"messageHash","type":"bytes32","internalType":"bytes32"},{"name":"asset","type":"address","internalType":"address"},{"name":"vault","type":"address","internalType":"address"},{"name":"lpRecipient","type":"address","internalType":"address"},{"name":"amount","type":"uint256","internalType":"uint256"},{"name":"protocolFee","type":"uint256","internalType":"uint256"},{"name":"relayerFee","type":"uint256","internalType":"uint256"}],"outputs":[],"stateMutability":"nonpayable"},{"type":"function","name":"isAllowedTarget","inputs":[{"name":"","type":"address","internalType":"address"}],"outputs":[{"name":"","type":"bool","internalType":"bool"}],"stateMutability":"view"},{"type":"function","name":"lpShareBps","inputs":[],"outputs":[{"name":"","type":"uint16","internalType":"uint16"}],"stateMutability":"view"},{"type":"function","name":"pendingAdmin","inputs":[],"outputs":[{"name":"","type":"address","internalType":"address"}],"stateMutability":"view"},{"type":"function","name":"proposeAdmin","inputs":[{"name":"p","type":"address","internalType":"address"}],"outputs":[],"stateMutability":"nonpayable"},{"type":"function","name":"protocolFeeBps","inputs":[],"outputs":[{"name":"","type":"uint16","internalType":"uint16"}],"stateMutability":"view"},{"type":"function","name":"protocolShareBps","inputs":[],"outputs":[{"name":"","type":"uint16","internalType":"uint16"}],"stateMutability":"view"},{"type":"function","name":"relayerFeeBps","inputs":[],"outputs":[{"name":"","type":"uint16","internalType":"uint16"}],"stateMutability":"view"},{"type":"function","name":"setAdapter","inputs":[{"name":"a","type":"address","internalType":"address"}],"outputs":[],"stateMutability":"nonpayable"},{"type":"function","name":"setAdmin","inputs":[{"name":"newAdmin","type":"address","internalType":"address"}],"outputs":[],"stateMutability":"nonpayable"},{"type":"function","name":"setAllowedTarget","inputs":[{"name":"t","type":"address","internalType":"address"},{"name":"ok","type":"bool","internalType":"bool"}],"outputs":[],"stateMutability":"nonpayable"},{"type":"function","name":"setEnforceTargetAllowlist","inputs":[{"name":"v","type":"bool","internalType":"bool"}],"outputs":[],"stateMutability":"nonpayable"},{"type":"function","name":"setFeeCollector","inputs":[{"name":"c","type":"address","internalType":"address"}],"outputs":[],"stateMutability":"nonpayable"},{"type":"function","name":"setFeeRecipient","inputs":[{"name":"newFeeRecipient","type":"address","internalType":"address"}],"outputs":[],"stateMutability":"nonpayable"},{"type":"function","name":"setLPShareBps","inputs":[{"name":"bps","type":"uint16","internalType":"uint16"}],"outputs":[],"stateMutability":"nonpayable"},{"type":"function","name":"setProtocolFeeBps","inputs":[{"name":"bps","type":"uint16","internalType":"uint16"}],"outputs":[],"stateMutability":"nonpayable"},{"type":"function","name":"setProtocolShareBps","inputs":[{"name":"bps","type":"uint16","internalType":"uint16"}],"outputs":[],"stateMutability":"nonpayable"},{"type":"function","name":"setRelayerFeeBps","inputs":[{"name":"bps","type":"uint16","internalType":"uint16"}],"outputs":[],"stateMutability":"nonpayable"},{"type":"function","name":"universalBridgeApproveThenCall","inputs":[{"name":"a","type":"tuple","internalType":"struct Router.TransferArgs","components":[{"name":"token","type":"address","internalType":"address"},{"name":"amount","type":"uint256","internalType":"uint256"},{"name":"protocolFee","type":"uint256","internalType":"uint256"},{"name":"relayerFee","type":"uint256","internalType":"uint256"},{"name":"payload","type":"bytes","internalType":"bytes"},{"name":"target","type":"address","internalType":"address"},{"name":"dstChainId","type":"uint16","internalType":"uint16"},{"name":"nonce","type":"uint64","internalType":"uint64"}]}],"outputs":[],"stateMutability":"nonpayable"},{"type":"function","name":"universalBridgeApproveThenCallWithSig","inputs":[{"name":"a","type":"tuple","internalType":"struct Router.TransferArgs","components":[{"name":"token","type":"address","internalType":"address"},{"name":"amount","type":"uint256","internalType":"uint256"},{"name":"protocolFee","type":"uint256","internalType":"uint256"},{"name":"relayerFee","type":"uint256","internalType":"uint256"},{"name":"payload","type":"bytes","internalType":"bytes"},{"name":"target","type":"address","internalType":"address"},{"name":"dstChainId","type":"uint16","internalType":"uint16"},{"name":"nonce","type":"uint64","internalType":"uint64"}]},{"name":"intent","type":"tuple","internalType":"struct Router.RouteIntent","components":[{"name":"routeId","type":"bytes32","internalType":"bytes32"},{"name":"user","type":"address","internalType":"address"},{"name":"token","type":"address","internalType":"address"},{"name":"amount","type":"uint256","internalType":"uint256"},{"name":"protocolFee","type":"uint256","internalType":"uint256"},{"name":"relayerFee","type":"uint256","internalType":"uint256"},{"name":"dstChainId","type":"uint16","internalType":"uint16"},{"name":"recipient","type":"address","internalType":"address"},{"name":"expiry","type":"uint256","internalType":"uint256"},{"name":"payloadHash","type":"bytes32","internalType":"bytes32"},{"name":"nonce","type":"uint64","internalType":"uint64"}]},{"name":"signature","type":"bytes","internalType":"bytes"}],"outputs":[],"stateMutability":"nonpayable"},{"type":"function","name":"universalBridgeTransfer","inputs":[{"name":"a","type":"tuple","internalType":"struct Router.TransferArgs","components":[{"name":"token","type":"address","internalType":"address"},{"name":"amount","type":"uint256","internalType":"uint256"},{"name":"protocolFee","type":"uint256","internalType":"uint256"},{"name":"relayerFee","type":"uint256","internalType":"uint256"},{"name":"payload","type":"bytes","internalType":"bytes"},{"name":"target","type":"address","internalType":"address"},{"name":"dstChainId","type":"uint16","internalType":"uint16"},{"name":"nonce","type":"uint64","internalType":"uint64"}]}],"outputs":[],"stateMutability":"nonpayable"},{"type":"function","name":"universalBridgeTransferWithDAIPermit","inputs":[{"name":"a","type":"tuple","internalType":"struct Router.TransferArgs","components":[{"name":"token","type":"address","internalType":"address"},{"name":"amount","type":"uint256","internalType":"uint256"},{"name":"protocolFee","type":"uint256","internalType":"uint256"},{"name":"relayerFee","type":"uint256","internalType":"uint256"},{"name":"payload","type":"bytes","internalType":"bytes"},{"name":"target","type":"address","internalType":"address"},{"name":"dstChainId","type":"uint16","internalType":"uint16"},{"name":"nonce","type":"uint64","internalType":"uint64"}]},{"name":"permitNonce","type":"uint256","internalType":"uint256"},{"name":"expiry","type":"uint256","internalType":"uint256"},{"name":"allowed","type":"bool","internalType":"bool"},{"name":"v","type":"uint8","internalType":"uint8"},{"name":"r","type":"bytes32","internalType":"bytes32"},{"name":"s","type":"bytes32","internalType":"bytes32"}],"outputs":[],"stateMutability":"nonpayable"},{"type":"function","name":"universalBridgeTransferWithPermit","inputs":[{"name":"a","type":"tuple","internalType":"struct Router.TransferArgs","components":[{"name":"token","type":"address","internalType":"address"},{"name":"amount","type":"uint256","internalType":"uint256"},{"name":"protocolFee","type":"uint256","internalType":"uint256"},{"name":"relayerFee","type":"uint256","internalType":"uint256"},{"name":"payload","type":"bytes","internalType":"bytes"},{"name":"target","type":"address","internalType":"address"},{"name":"dstChainId","type":"uint16","internalType":"uint16"},{"name":"nonce","type":"uint64","internalType":"uint64"}]},{"name":"deadline","type":"uint256","internalType":"uint256"},{"name":"v","type":"uint8","internalType":"uint8"},{"name":"r","type":"bytes32","internalType":"bytes32"},{"name":"s","type":"bytes32","internalType":"bytes32"}],"outputs":[],"stateMutability":"nonpayable"},{"type":"function","name":"universalBridgeTransferWithSig","inputs":[{"name":"a","type":"tuple","internalType":"struct Router.TransferArgs","components":[{"name":"token","type":"address","internalType":"address"},{"name":"amount","type":"uint256","internalType":"uint256"},{"name":"protocolFee","type":"uint256","internalType":"uint256"},{"name":"relayerFee","type":"uint256","internalType":"uint256"},{"name":"payload","type":"bytes","internalType":"bytes"},{"name":"target","type":"address","internalType":"address"},{"name":"dstChainId","type":"uint16","internalType":"uint16"},{"name":"nonce","type":"uint64","internalType":"uint64"}]},{"name":"intent","type":"tuple","internalType":"struct Router.RouteIntent","components":[{"name":"routeId","type":"bytes32","internalType":"bytes32"},{"name":"user","type":"address","internalType":"address"},{"name":"token","type":"address","internalType":"address"},{"name":"amount","type":"uint256","internalType":"uint256"},{"name":"protocolFee","type":"uint256","internalType":"uint256"},{"name":"relayerFee","type":"uint256","internalType":"uint256"},{"name":"dstChainId","type":"uint16","internalType":"uint16"},{"name":"recipient","type":"address","internalType":"address"},{"name":"expiry","type":"uint256","internalType":"uint256"},{"name":"payloadHash","type":"bytes32","internalType":"bytes32"},{"name":"nonce","type":"uint64","internalType":"uint64"}]},{"name":"signature","type":"bytes","internalType":"bytes"}],"outputs":[],"stateMutability":"nonpayable"},{"type":"function","name":"usedIntents","inputs":[{"name":"","type":"bytes32","internalType":"bytes32"}],"outputs":[{"name":"","type":"bool","internalType":"bool"}],"stateMutability":"view"},{"type":"function","name":"usedMessages","inputs":[{"name":"","type":"bytes32","internalType":"bytes32"}],"outputs":[{"name":"","type":"bool","internalType":"bool"}],"stateMutability":"view"},{"type":"event","name":"AdminProposed","inputs":[{"name":"current","type":"address","indexed":true,"internalType":"address"},{"name":"proposed","type":"address","indexed":true,"internalType":"address"}],"anonymous":false},{"type":"event","name":"AdminUpdated","inputs":[{"name":"oldAdmin","type":"address","indexed":true,"internalType":"address"},{"name":"newAdmin","type":"address","indexed":true,"internalType":"address"}],"anonymous":false},{"type":"event","name":"BridgeInitiated","inputs":[{"name":"routeId","type":"bytes32","indexed":true,"internalType":"bytes32"},{"name":"user","type":"address","indexed":true,"internalType":"address"},{"name":"token","type":"address","indexed":true,"internalType":"address"},{"name":"target","type":"address","indexed":false,"internalType":"address"},{"name":"forwardedAmount","type":"uint256","indexed":false,"internalType":"uint256"},{"name":"protocolFee","type":"uint256","indexed":false,"internalType":"uint256"},{"name":"relayerFee","type":"uint256","indexed":false,"internalType":"uint256"},{"name":"payloadHash","type":"bytes32","indexed":false,"internalType":"bytes32"},{"name":"srcChainId","type":"uint16","indexed":false,"internalType":"uint16"},{"name":"dstChainId","type":"uint16","indexed":false,"internalType":"uint16"},{"name":"nonce","type":"uint64","indexed":false,"internalType":"uint64"}],"anonymous":false},{"type":"event","name":"EIP712DomainChanged","inputs":[],"anonymous":false},{"type":"event","name":"FeeApplied","inputs":[{"name":"globalRouteId","type":"bytes32","indexed":true,"internalType":"bytes32"},{"name":"messageHash","type":"bytes32","indexed":true,"internalType":"bytes32"},{"name":"chainId","type":"uint16","indexed":false,"internalType":"uint16"},{"name":"router","type":"address","indexed":false,"internalType":"address"},{"name":"vault","type":"address","indexed":false,"internalType":"address"},{"name":"asset","type":"address","indexed":false,"internalType":"address"},{"name":"protocol_fee_native","type":"uint256","indexed":false,"internalType":"uint256"},{"name":"relayer_fee_native","type":"uint256","indexed":false,"internalType":"uint256"},{"name":"protocol_bps","type":"uint16","indexed":false,"internalType":"uint16"},{"name":"lp_bps","type":"uint16","indexed":false,"internalType":"uint16"},{"name":"collector","type":"address","indexed":false,"internalType":"address"},{"name":"applied_at","type":"uint256","indexed":false,"internalType":"uint256"}],"anonymous":false},{"type":"event","name":"FeeRecipientUpdated","inputs":[{"name":"oldFeeRecipient","type":"address","indexed":true,"internalType":"address"},{"name":"newFeeRecipient","type":"address","indexed":true,"internalType":"address"}],"anonymous":false},{"type":"event","name":"IntentConsumed","inputs":[{"name":"digest","type":"bytes32","indexed":true,"internalType":"bytes32"},{"name":"routeId","type":"bytes32","indexed":true,"internalType":"bytes32"},{"name":"user","type":"address","indexed":true,"internalType":"address"}],"anonymous":false},{"type":"event","name":"LPShareBpsUpdated","inputs":[{"name":"oldBps","type":"uint16","indexed":false,"internalType":"uint16"},{"name":"newBps","type":"uint16","indexed":false,"internalType":"uint16"}],"anonymous":false},{"type":"event","name":"ProtocolFeeBpsUpdated","inputs":[{"name":"oldBps","type":"uint16","indexed":false,"internalType":"uint16"},{"name":"newBps","type":"uint16","indexed":false,"internalType":"uint16"}],"anonymous":false},{"type":"event","name":"ProtocolShareBpsUpdated","inputs":[{"name":"oldBps","type":"uint16","indexed":false,"internalType":"uint16"},{"name":"newBps","type":"uint16","indexed":false,"internalType":"uint16"}],"anonymous":false},{"type":"event","name":"RelayerFeeBpsUpdated","inputs":[{"name":"oldBps","type":"uint16","indexed":false,"internalType":"uint16"},{"name":"newBps","type":"uint16","indexed":false,"internalType":"uint16"}],"anonymous":false},{"type":"event","name":"UniversalBridgeInitiated","inputs":[{"name":"routeId","type":"bytes32","indexed":true,"internalType":"bytes32"},{"name":"payloadHash","type":"bytes32","indexed":true,"internalType":"bytes32"},{"name":"messageHash","type":"bytes32","indexed":true,"internalType":"bytes32"},{"name":"globalRouteId","type":"bytes32","indexed":false,"internalType":"bytes32"},{"name":"user","type":"address","indexed":false,"internalType":"address"},{"name":"token","type":"address","indexed":false,"internalType":"address"},{"name":"target","type":"address","indexed":false,"internalType":"address"},{"name":"forwardedAmount","type":"uint256","indexed":false,"internalType":"uint256"},{"name":"protocolFee","type":"uint256","indexed":false,"internalType":"uint256"},{"name":"relayerFee","type":"uint256","indexed":false,"internalType":"uint256"},{"name":"srcChainId","type":"uint16","indexed":false,"internalType":"uint16"},{"name":"dstChainId","type":"uint16","indexed":false,"internalType":"uint16"},{"name":"nonce","type":"uint64","indexed":false,"internalType":"uint64"}],"anonymous":false},{"type":"error","name":"ECDSAInvalidSignature","inputs":[]},{"type":"error","name":"ECDSAInvalidSignatureLength","inputs":[{"name":"length","type":"uint256","internalType":"uint256"}]},{"type":"error","name":"ECDSAInvalidSignatureS","inputs":[{"name":"s","type":"bytes32","internalType":"bytes32"}]},{"type":"error","name":"ExpiredIntent","inputs":[]},{"type":"error","name":"FeeOnTransferNotSupported","inputs":[]},{"type":"error","name":"FeeTooHigh","inputs":[]},{"type":"error","name":"FeesExceedAmount","inputs":[]},{"type":"error","name":"IntentAlreadyUsed","inputs":[]},{"type":"error","name":"IntentMismatch","inputs":[]},{"type":"error","name":"InvalidShortString","inputs":[]},{"type":"error","name":"InvalidSignature","inputs":[]},{"type":"error","name":"MessageAlreadyUsed","inputs":[]},{"type":"error","name":"PayloadDisallowedToEOA","inputs":[]},{"type":"error","name":"PayloadTooLarge","inputs":[]},{"type":"error","name":"ReentrancyGuardReentrantCall","inputs":[]},{"type":"error","name":"ResidueLeft","inputs":[]},{"type":"error","name":"SafeERC20FailedOperation","inputs":[{"name":"token","type":"address","internalType":"address"}]},{"type":"error","name":"StringTooLong","inputs":[{"name":"str","type":"string","internalType":"string"}]},{"type":"error","name":"TargetNotContract","inputs":[]},{"type":"error","name":"TargetNotSet","inputs":[]},{"type":"error","name":"TokenZeroAddress","inputs":[]},{"type":"error","name":"Unauthorized","inputs":[]},{"type":"error","name":"ZeroAddress","inputs":[]},{"type":"error","name":"ZeroAmount","inputs":[]}],"bytecode":{"object":"0x6101a080604052346102b757608081613f18803803809161002082856102bb565b8339810103126102b757610033816102f2565b90610040602082016102f2565b606061004e604084016102f2565b9201519261ffff841684036102b75760405161006b6040826102bb565b600b815260208101906a2d37b7b82c2937baba32b960a91b8252604051916100946040846102bb565b600183526020830191603160f81b835260015f556100b181610306565b610120526100be846104a1565b61014052519020918260e05251902080610100524660a0526040519060208201927f8b73c3c69bb8fe3d512ecc4cf759cc79239f7b179b0ffacaa9a75d522b39400f8452604083015260608201524660808201523060a082015260a0815261012760c0826102bb565b5190206080523060c0526001600160a01b0316908115610286576001600160a01b031690811561024e5760018060a01b0319600354161760035560018060a01b03196004541617600455610160526101805260405161393e90816105da8239608051816136bb015260a05181613772015260c05181613685015260e0518161370a0152610100518161373001526101205181611517015261014051816115410152610160518181816106ac01528181610f7301528181611443015281816118e601528181611fb6015281816126cf015261290a0152610180518181816103d001528181610cbb0152818161127e0152818161181401528181611ae701528181611e18015281816123b30152818161240501528181612488015281816124f8015261283c0152f35b60405162461bcd60e51b815260206004820152601060248201526f18985908199959549958da5c1a595b9d60821b6044820152606490fd5b60405162461bcd60e51b81526020600482015260096024820152683130b21030b236b4b760b91b6044820152606490fd5b5f80fd5b601f909101601f19168101906001600160401b038211908210176102de57604052565b634e487b7160e01b5f52604160045260245ffd5b51906001600160a01b03821682036102b757565b908151602081105f14610380575090601f815111610340576020815191015160208210610331571790565b5f198260200360031b1b161790565b604460209160405192839163305a27a960e01b83528160048401528051918291826024860152018484015e5f828201840152601f01601f19168101030190fd5b6001600160401b0381116102de57600154600181811c91168015610497575b602082101461048357601f8111610450575b50602092601f82116001146103ef57928192935f926103e4575b50508160011b915f199060031b1c19161760015560ff90565b015190505f806103cb565b601f1982169360015f52805f20915f5b8681106104385750836001959610610420575b505050811b0160015560ff90565b01515f1960f88460031b161c191690555f8080610412565b919260206001819286850151815501940192016103ff565b60015f52601f60205f20910160051c810190601f830160051c015b81811061047857506103b1565b5f815560010161046b565b634e487b7160e01b5f52602260045260245ffd5b90607f169061039f565b908151602081105f146104cc575090601f815111610340576020815191015160208210610331571790565b6001600160401b0381116102de57600254600181811c911680156105cf575b602082101461048357601f811161059c575b50602092601f821160011461053b57928192935f92610530575b50508160011b915f199060031b1c19161760025560ff90565b015190505f80610517565b601f1982169360025f52805f20915f5b868110610584575083600195961061056c575b505050811b0160025560ff90565b01515f1960f88460031b161c191690555f808061055e565b9192602060018192868501518155019401920161054b565b60025f52601f60205f20910160051c810190601f830160051c015b8181106105c457506104fd565b5f81556001016105b7565b90607f16906104eb56fe60a0806040526004361015610012575f80fd5b5f905f3560e01c9081630215c402146128f85750806303eadcfc146128d05780630e18b681146128605780631459dda214612822578063147bf6c41461279d57806326782247146127755780632f32ff621461272757806335659fb814612703578063362d6cd41461209b57806337ed3f1e14612077578063462455d2146120275780634690484014611fff5780634c7ac03f14611fdb5780635248bb7014611c835780635382a91114611c675780635a02840014611c385780635acd1e6b146119ce5780636336803b1461199f578063704b6c021461190b5780637143d818146116de57806378addb481461169f5780637e863a22146115f957806384b0196e146114fd57806393c79ba6146114d85780639d03c6f8146114685780639eead346146110bf578063a42dce801461106e578063ab1da79c14611024578063b1d7d46714611001578063b71351d614610a4e578063be37b12c146109b7578063c415b95c1461098e578063ca1dd22e1461091f578063d31ecaa714610902578063de3011e7146108c7578063e74b981b1461083a578063ea5acf0214610785578063ecaab861146106d0578063f7bc2e78146102015763f851a440146101d6575f80fd5b346101fe57806003193601126101fe576003546040516001600160a01b039091168152602090f35b80fd5b50346101fe5761021036612a38565b610218612d63565b61022181612b32565b9060208101358061023f604084013594856060860135948592613192565b60a083016001600160a01b0361025482612b32565b16156106a95761026390612b32565b6001600160a01b0381161561069a5760808401946102006102848787612b55565b90501161068b57813b1580159080610677575b61066857808061065f575b610651576001600160a01b036102b787612b32565b6040516370a0823160e01b8152306004820152989116602089602481845afa988915610646578a99610612575b506102f186303384612f15565b6040516370a0823160e01b8152306004820152602081602481855afa8015610607578a88918d906105cf575b610328929350612bd8565b036105c05791879161035185946103418a8e9998612bf9565b9081806105a1575b505088612bd8565b9161036d866001600160a01b0361036787612b32565b16612f9c565b61038983876001600160a01b0361038388612b32565b1661304e565b8061058d575b610574575b846001600160a01b036103a685612b32565b16906103b191612f9c565b6103bb9083612b55565b36906103c692612ba2565b80519060200120957f0000000000000000000000000000000000000000000000000000000000000000809860c085019589858a6104028a612b46565b838c61040d8c612b32565b9960e08d019a61041c8c612c06565b9233610428968d612ccf565b9d8e6104338c612b46565b9061043d8a612c06565b90336104499385612ac5565b9961045390612b32565b8c61045d8d612b46565b6104668b612c06565b90604051948594600160a01b6001900316988b8b339a6104869789612c1a565b035f805160206138e983398151915291a46104a08c612b32565b966104aa90612b46565b936104b490612c06565b94604051988998336104c6998b612c69565b035f805160206138c983398151915291a46001600160a01b03906104e990612b32565b166040518080926370a0823160e01b82523060048301525a92602491602094fa908115610569578391610533575b5003610524576001815580f35b634fb8fb6360e01b8152600490fd5b90506020813d602011610561575b8161054e60209383612a90565b8101031261055d57515f610517565b5f80fd5b3d9150610541565b6040513d85823e3d90fd5b6105886105818285612b55565b908761310d565b610394565b506105988184612b55565b9050151561038f565b6004546105b9926001600160a01b0390911690612f60565b5f81610349565b639bfa3c1760e01b8a5260048afd5b5050506020813d6020116105ff575b816105eb60209383612a90565b8101031261055d5751869081908b9061031d565b3d91506105de565b6040513d8d823e3d90fd5b9098506020813d60201161063e575b8161062e60209383612a90565b8101031261055d5751975f6102e4565b3d9150610621565b6040513d8c823e3d90fd5b62b8dfab60e11b8852600488fd5b50823b156102a2565b633390d76b60e01b8852600488fd5b506106828787612b55565b90501515610297565b63492f620d60e01b8752600487fd5b6337e80e8160e21b8652600486fd5b507f0000000000000000000000000000000000000000000000000000000000000000610263565b50346101fe5760203660031901126101fe576106ea612991565b6003546001600160a01b03163303610777576103e861ffff821611610768576009546040805161ffff60b084901c81168252841660208201529192917f796bb81a3ac5b659665916dc75398afb2f1489ae97208393f7f21fcf638e8a7b9190a161ffff60b01b1990911660b09190911b61ffff60b01b161760095580f35b63cd4e616760e01b8252600482fd5b6282b42960e81b8252600482fd5b50346101fe5760203660031901126101fe5761079f612991565b6003546001600160a01b0316330361077757600954906127106107cd61ffff831661ffff8560c01c16612bf9565b1161082b576040805161ffff60d085901c81168252831660208201527fbf832f0e179e869afb0f69ea44b74fc0cbcc8837b9870e8dcf7f7390dcd2505a9190a161ffff60d01b1990911660d09190911b61ffff60d01b161760095580f35b63cd4e616760e01b8352600483fd5b50346101fe5760203660031901126101fe57610854612939565b6003546001600160a01b03163303610777576001600160a01b031680156108b857600454816001600160a01b0382167faaebcf1bfa00580e41d966056b48521fa9f202645c86d4ddf28113e617c1b1d38580a36001600160a01b0319161760045580f35b63d92e233d60e01b8252600482fd5b50346101fe57806003193601126101fe5760206040517f3a16219d06af018ad9787d0dcfcc281b004cb45454d560c61c3bc3288717ed648152f35b50346101fe57806003193601126101fe5760206040516102008152f35b50346101fe5760403660031901126101fe57610939612939565b6024359081151580920361098a576003546001600160a01b0316330361097c5760018060a01b031682526005602052604082209060ff8019835416911617905580f35b6282b42960e81b8352600483fd5b8280fd5b50346101fe57806003193601126101fe57600a546040516001600160a01b039091168152602090f35b50346101fe5760203660031901126101fe576109d1612991565b6003546001600160a01b0316330361077757600561ffff821611610768576009546040805161ffff60a084901c81168252841660208201529192917f740c4f8812f57c051142b386664c613b7140458e4fd9420eda309b6d0ad319099190a161ffff60a01b1990911660a09190911b61ffff60a01b161760095580f35b50346101fe57610a7490610a61366129b3565b90610a6e95929395612d63565b83612d81565b808352600760205260ff604084205416610ff2578083526007602090815260408420805460ff191660011790558201906001600160a01b03610ab583612b32565b16908335907fc5ed249093f8d64f17d4fb48f4b496739452ba98ce23e3a1ba8dfcacc4b326d98680a4610aea60408301612b32565b6001600160a01b03610afb86612b32565b166001600160a01b0390911603610fe35760208401359384606084013503610fd45760408101359283608082013503610fc55760608201358060a083013503610fb657610b4a60c08301612b46565b9460c084019561ffff80610b5d89612b46565b16911603610fa7576080840195610b7e610b778887612b55565b3691612ba2565b6020815191012061012085013503610f985760a085016001600160a01b03610ba582612b32565b1615610f7057610bb490612b32565b955b6001600160a01b0387168015610f6157610200610bd38a89612b55565b905011610f5257873b1580159080610f3e575b610f2f578080610f26575b610f185760ff600654169081610f10575b5080610ef9575b610eeb5760e08601906001600160a01b03610c2383612b32565b1615159182610ecc575b5050610ebd5797986024989060206001600160a01b03610c4c89612b32565b166040519b8c80926370a0823160e01b82523060048301525afa998a15610607578b9a610e83575b509087929187610c8381612b32565b87878488610c9088612b32565b610c9995613206565b91610ca48c83612b55565b3690610caf92612ba2565b805190602001209788947f00000000000000000000000000000000000000000000000000000000000000009286610ce589612b46565b91610cef84612b32565b90610cf988612b32565b9760e001978c610d088a612c06565b93610d13968a612ccf565b6080528b8b868b8a8c610d2582612b46565b610d2e88612b32565b610d378c612c06565b9060805190610d46938d612ac5565b9b610d5088612b32565b96610d5a90612b32565b92610d6490612b46565b8a610d6e8d612c06565b6040516001600160a01b039687169a90961698359795968796610d98969295928e92919089612c1a565b035f805160206138e983398151915291a4610db290612b32565b97610dbc8c612b32565b96610dc690612b46565b93610dd090612c06565b946040519889986080519d359b610de7998b612c69565b035f805160206138c983398151915291a4602492602092803b151580610e6f575b610e55575b506001600160a01b0391610e219150612b32565b16604051928380926370a0823160e01b82523060048301525afa908115610569578391610533575003610524576001815580f35b610e62610e689284612b55565b9161310d565b5f80610e0d565b50610e7a8284612b55565b90501515610e08565b92919099506020833d602011610eb5575b81610ea160209383612a90565b8101031261055d5787925199909192610c74565b3d9150610e94565b6355afbcf160e11b8952600489fd5b9091506001600160a01b0390610ee190612b32565b1614155f80610c2d565b62b8dfab60e11b8a5260048afd5b50808a52600560205260ff60408b20541615610c09565b90505f610c02565b62b8dfab60e11b8b5260048bfd5b50883b15610bf1565b633390d76b60e01b8b5260048bfd5b50610f498a89612b55565b90501515610be6565b63492f620d60e01b8a5260048afd5b6337e80e8160e21b8a5260048afd5b507f000000000000000000000000000000000000000000000000000000000000000095610bb6565b6355afbcf160e11b8852600488fd5b6355afbcf160e11b8752600487fd5b6355afbcf160e11b8652600486fd5b6355afbcf160e11b8552600485fd5b6355afbcf160e11b8452600484fd5b6355afbcf160e11b8352600483fd5b63110ea83560e31b8352600483fd5b50346101fe57806003193601126101fe57602060ff600654166040519015158152f35b50346101fe5760203660031901126101fe5761103e612939565b6003546001600160a01b031633036107775760018060a01b03166001600160601b0360a01b600954161760095580f35b50346101fe5760203660031901126101fe57611088612939565b6003546001600160a01b03163303610777576001600160a01b031680156108b8576001600160601b0360a01b600a541617600a5580f35b50346101fe5760a03660031901126101fe576004356001600160401b0381116113f75780600401610100600319833603011261098a5760443560ff81168091036113fb5761110b612d63565b61111482612b32565b91602484013580611132604487013595866064890135938492613192565b60a486016001600160a01b0361114782612b32565b16156114405761115690612b32565b945b6001600160a01b038616156114315760848701926102006111798587612b55565b90501161142257863b15958615968061140e575b6113ff578991906001600160a01b036111a588612b32565b1690813b156113fb57839160e48392604051948593849263d505accf60e01b84523360048501523060248501528860448501526024356064850152608484015260643560a484015260843560c48401525af18015610569576113e2575b5060249860206001600160a01b0361121989612b32565b166040519b8c80926370a0823160e01b82523060048301525afa998a1561056957839a6113a9575b5090868992338787858761125487612b32565b9461125e95613206565b906112698984612b55565b369061127492612ba2565b80519060200120967f000000000000000000000000000000000000000000000000000000000000000098899189858a60c4870199838c6112b38d612b46565b926112bd8d612b32565b9a60e4019a6112cb8c612c06565b92336112d7968d612ccf565b9d8e6112e28c612b46565b906112ec8a612c06565b90336112f89385612ac5565b9961130290612b32565b8c61130c8d612b46565b6113158b612c06565b90604051948594600160a01b6001900316988b8b339a6113359789612c1a565b035f805160206138e983398151915291a461134f8d612b32565b9661135990612b46565b9361136390612c06565b9460405198899833611375998b612c69565b035f805160206138c983398151915291a460249360209380610e6f57610e5557506001600160a01b0391610e219150612b32565b91925098506020813d6020116113da575b816113c760209383612a90565b8101031261055d57519789919086611241565b3d91506113ba565b6113ed838092612a90565b6113f7575f611202565b5080fd5b8380fd5b633390d76b60e01b8a5260048afd5b506114198587612b55565b9050151561118d565b63492f620d60e01b8952600489fd5b6337e80e8160e21b8852600488fd5b507f000000000000000000000000000000000000000000000000000000000000000094611158565b50346101fe576101003660031901126101fe57611483612991565b9061148c6129a2565b9161149561294f565b61149d612965565b6114a561297b565b9160c435946001600160401b03861686036101fe5760206114d060e4358860a4358888888e8d612ccf565b604051908152f35b50346101fe57806003193601126101fe57602061ffff60095460b01c16604051908152f35b50346101fe57806003193601126101fe5761159d9061153b7f000000000000000000000000000000000000000000000000000000000000000061348c565b906115657f00000000000000000000000000000000000000000000000000000000000000006135b2565b9060206115ab604051936115798386612a90565b8385525f368137604051968796600f60f81b885260e08589015260e0880190612a6c565b908682036040880152612a6c565b904660608601523060808601528260a086015284820360c08601528080855193848152019401925b8281106115e257505050500390f35b8351855286955093810193928101926001016115d3565b50346101fe5760203660031901126101fe57611613612991565b6003546001600160a01b03163303610777576009549061271061164161ffff8460d01c1661ffff8416612bf9565b1161082b576040805161ffff60c085901c81168252831660208201527f9de0ed39a415d64d485874d8b01c6ee5e8b938fdb82e22892cf257c2f0b83abf9190a161ffff60c01b1990911660c09190911b61ffff60c01b161760095580f35b50346101fe5760203660031901126101fe5760209060ff906040906001600160a01b036116ca612939565b168152600584522054166040519015158152f35b50346101fe576116ed36612a38565b906116f6612d63565b6116ff82612b32565b9160208101358161171e60408394013595866060840135948592613192565b60a081016001600160a01b0361173382612b32565b16156118e35761174290612b32565b925b6001600160a01b03841692831561069a5760808301916102006117678486612b55565b90501161068b57853b1594851595806118cf575b6106685760ff6006541690816118c7575b816118b0575b506118a257959660249690889060206001600160a01b036117b288612b32565b166040519a8b80926370a0823160e01b82523060048301525afa988915611897578299611860575b508790866117e781612b32565b86838786336117f595613206565b6117ff8883612b55565b369061180a92612ba2565b80519060200120957f0000000000000000000000000000000000000000000000000000000000000000809860c085019589858a6118468a612b46565b838c6118518c612b32565b9960e08d019a6112cb8c612c06565b915097506020813d60201161188f575b8161187d60209383612a90565b8101031261055d5751968890876117da565b3d9150611870565b6040513d84823e3d90fd5b62b8dfab60e11b8752600487fd5b8852506005602052604087205460ff16155f611792565b86915061178c565b506118da8486612b55565b9050151561177b565b507f000000000000000000000000000000000000000000000000000000000000000092611744565b50346101fe5760203660031901126101fe57611925612939565b6003546001600160a01b0381169133839003611991576001600160a01b03169182156119825782907f101b8081ff3b56bbf45deb824d86a3b0fd38b7e3dd42421105cf8abe9106db0b8580a36001600160a01b0319161760035580f35b63d92e233d60e01b8452600484fd5b6282b42960e81b8452600484fd5b50346101fe5760203660031901126101fe5760ff60406020926004358152600784522054166040519015158152f35b50346101fe576101003660031901126101fe576024356119ec61294f565b6119f4612965565b906119fd61297b565b60a4359160e43590611a0d612d63565b6009546001600160a01b03168015159081611c2d575b50611c1f57858752600860205260ff604088205416611c1057858752600860205260408720600160ff1982541617905560018060a01b0316926009549282611a8161ffff611a76818860c01c1686613341565b9660d01c1684613341565b9185611bcf575b82611aad9181611ab295151580611bbd575b611bac575b505082611b9c575b86612bf9565b612bf9565b90808211611b8d5761ffff939291611ac991612bd8565b80611b7c575b506009549160018060a01b03600a54169460405196857f000000000000000000000000000000000000000000000000000000000000000016885230602089015260018060a01b031660408801526060870152608086015260a0850152818160c01c1660c085015260d01c1660e0830152610100820152426101208201527fe682966dd850bccb3d87e1b88d0a19409d64dd78ae2f38748b692de55ed9261961014060043592a36001815580f35b611b87908686612f60565b5f611acf565b631f656da960e31b8852600488fd5b611ba783338a612f60565b611aa7565b611bb6918a612f60565b5f81611a9f565b506001600160a01b0382161515611a9a565b600a549091506001600160a01b03168015611c0157611ab2928592611bf888611aad948b612f60565b91509250611a88565b63d92e233d60e01b8a5260048afd5b63b5ab1f3f60e01b8752600487fd5b6282b42960e81b8752600487fd5b90503314155f611a23565b50346101fe5760203660031901126101fe5760ff60406020926004358152600884522054166040519015158152f35b50346101fe57806003193601126101fe57602060405160058152f35b503461055d5760e036600319011261055d576004356001600160401b03811161055d578060040190610100600319823603011261055d576064359182151580930361055d576084359260ff841680940361055d57611cdf612d63565b611ce882612b32565b60248401359081611d06604487013592836064890135958692613192565b60a486016001600160a01b03611d1b82612b32565b1615611fb357611d2a90612b32565b955b6001600160a01b03871615611fa4576084810197610200611d4d8a89612b55565b905011611f8157873b159586159680611f90575b611f81576001600160a01b03611d7689612b32565b1691823b1561055d576101045f928360405195869485936323f2ebc360e21b855233600486015230602486015260243560448601526044356064860152608485015260a484015260a43560c484015260c43560e48401525af18015611f7657611f5c575b5088918688923387878587611dee87612b32565b94611df895613206565b90611e038c84612b55565b3690611e0e92612ba2565b80519060200120967f000000000000000000000000000000000000000000000000000000000000000098899189858a60c4870199838c611e4d8d612b46565b92611e578d612b32565b9a60e4019a611e658c612c06565b9233611e71968d612ccf565b9d8e611e7c8c612b46565b90611e868a612c06565b9033611e929385612ac5565b99611e9c90612b32565b8c611ea68d612b46565b611eaf8b612c06565b90604051948594600160a01b6001900316988b8b339a611ecf9789612c1a565b035f805160206138e983398151915291a4611ee98d612b32565b96611ef390612b46565b93611efd90612c06565b9460405198899833611f0f998b612c69565b035f805160206138c983398151915291a480611f48575b611f33575b836001815580f35b611f4092610e6291612b55565b5f8080611f2b565b50611f538382612b55565b90501515611f26565b86995091611f6c5f899394612a90565b5f99509190611dda565b6040513d5f823e3d90fd5b63492f620d60e01b5f5260045ffd5b50611f9b8a89612b55565b90501515611d61565b6337e80e8160e21b5f5260045ffd5b507f000000000000000000000000000000000000000000000000000000000000000095611d2c565b3461055d575f36600319011261055d57602061ffff60095460d01c16604051908152f35b3461055d575f36600319011261055d576004546040516001600160a01b039091168152602090f35b3461055d57602036600319011261055d5760043580151580910361055d576003546001600160a01b031633036120695760ff8019600654169116176006555f80f35b6282b42960e81b5f5260045ffd5b3461055d575f36600319011261055d57602061ffff60095460c01c16604051908152f35b3461055d576120b96120ac366129b3565b90610a6e94929394612d63565b805f52600760205260ff60405f2054166126f457805f52600760205260405f20600160ff1982541617905560018060a01b036120f760208401612b32565b16908235907fc5ed249093f8d64f17d4fb48f4b496739452ba98ce23e3a1ba8dfcacc4b326d95f80a461212c60408201612b32565b6001600160a01b0361213d84612b32565b166001600160a01b03909116036126735760208201358060608301350361267357604083013560808301350361267357606083013560a0830135036126735761218860c08301612b46565b61ffff8061219860c08701612b46565b169116036126735760808301926121b2610b778583612b55565b60208151910120610120840135036126735760a081016001600160a01b036121d982612b32565b16156126cc576121e890612b32565b925b6001600160a01b038416928315611fa4576102006122088785612b55565b905011611f8157843b1593841594806126b8575b611f815784806126af575b6126a15760e08301906001600160a01b0361224183612b32565b1615159182612682575b5050612673576001600160a01b0361226284612b32565b1693604051966370a0823160e01b8852306004890152602088602481895afa978815611f76575f9861263f575b506122a783306122a160208801612b32565b89612f15565b6040516370a0823160e01b81523060048201526020816024818a5afa8015611f76578985915f90612607575b6122de929350612bd8565b036125f8576024966123d7612379610b775f805160206138c98339815191529461232760209b6123178c60406060820135910135612bf9565b9081806125d9575b505089612bd8565b9661233d866001600160a01b036103678e612b32565b61235388876001600160a01b036103838f612b32565b806125c5575b6125b3575b612373856001600160a01b036103678d612b32565b89612b55565b888151910120809561238d60c08a01612b46565b90898561239b8d8c01612b32565b6123b060e06123a985612b32565b9401612c06565b947f0000000000000000000000000000000000000000000000000000000000000000612ccf565b946125296124296123ea60c08a01612b46565b886123f68c8601612b32565b61240260e08d01612c06565b927f0000000000000000000000000000000000000000000000000000000000000000612ac5565b946124358a8401612b32565b878a5f805160206138e98339815191528761244f83612b32565b6124ba61245e60c08601612b46565b61246a60e08701612c06565b9060405194859460018060a01b03169960018060a01b0316988d35987f0000000000000000000000000000000000000000000000000000000000000000928d604060608401359301359189612c1a565b0390a46124c88a8401612b32565b956124d28a612b32565b968a6124e060c08201612b46565b926124ed60e08301612c06565b94604051988998359b7f00000000000000000000000000000000000000000000000000000000000000009560406060870135960135948b612c69565b0390a46001600160a01b039061253e90612b32565b16604051928380926370a0823160e01b82523060048301525afa908115611f76575f91612581575b50036125725760015f55005b634fb8fb6360e01b5f5260045ffd5b90506020813d6020116125ab575b8161259c60209383612a90565b8101031261055d575182612566565b3d915061258f565b6125c0610581828c612b55565b61235e565b506125d0818b612b55565b90501515612359565b6004546125f1926001600160a01b0390911690612f60565b8f8161231f565b639bfa3c1760e01b5f5260045ffd5b5050506020813d602011612637575b8161262360209383612a90565b8101031261055d5751839081908a906122d3565b3d9150612616565b9097506020813d60201161266b575b8161265b60209383612a90565b8101031261055d5751968861228f565b3d915061264e565b6355afbcf160e11b5f5260045ffd5b9091506001600160a01b039061269790612b32565b161415878061224b565b62b8dfab60e11b5f5260045ffd5b50853b15612227565b506126c38785612b55565b9050151561221c565b507f0000000000000000000000000000000000000000000000000000000000000000926121ea565b63110ea83560e31b5f5260045ffd5b3461055d575f36600319011261055d57602061ffff60095460a01c16604051908152f35b3461055d5760a036600319011261055d57612740612991565b6127486129a2565b61275061294f565b91608435906001600160401b038216820361055d576020936114d09360643592612ac5565b3461055d575f36600319011261055d57600b546040516001600160a01b039091168152602090f35b3461055d57602036600319011261055d576127b6612939565b6003546001600160a01b03169033829003612069576001600160a01b031690811561281357600b80546001600160a01b031916831790557ffd22260ca7b3d2a5f6332770491ab546b6235bc73909c334f5e304d2fae455b15f80a3005b63d92e233d60e01b5f5260045ffd5b3461055d575f36600319011261055d57602060405161ffff7f0000000000000000000000000000000000000000000000000000000000000000168152f35b3461055d575f36600319011261055d57600b546001600160a01b0381163381900361206957600354816001600160a01b0382167f101b8081ff3b56bbf45deb824d86a3b0fd38b7e3dd42421105cf8abe9106db0b5f80a36001600160a01b03199081169190911760035516600b55005b3461055d575f36600319011261055d576009546040516001600160a01b039091168152602090f35b3461055d575f36600319011261055d577f00000000000000000000000000000000000000000000000000000000000000006001600160a01b03168152602090f35b600435906001600160a01b038216820361055d57565b604435906001600160a01b038216820361055d57565b606435906001600160a01b038216820361055d57565b608435906001600160a01b038216820361055d57565b6004359061ffff8216820361055d57565b6024359061ffff8216820361055d57565b906101a060031983011261055d576004356001600160401b03811161055d57610100818403600319011261055d576004019161016060231982011261055d57602491610184356001600160401b03811161055d578260238201121561055d578060040135926001600160401b03841161055d576024848301011161055d576024019190565b602060031982011261055d57600435906001600160401b03821161055d5761010090829003600319011261055d5760040190565b805180835260209291819084018484015e5f828201840152601f01601f1916010190565b90601f801991011681019081106001600160401b03821117612ab157604052565b634e487b7160e01b5f52604160045260245ffd5b939192909260405193602085019561ffff60f01b9060f01b16865261ffff60f01b9060f01b1660228501526001600160601b03199060601b16602484015260388301526001600160401b0360c01b9060c01b16605882015260408152612b2c606082612a90565b51902090565b356001600160a01b038116810361055d5790565b3561ffff8116810361055d5790565b903590601e198136030182121561055d57018035906001600160401b03821161055d5760200191813603831361055d57565b6001600160401b038111612ab157601f01601f191660200190565b929192612bae82612b87565b91612bbc6040519384612a90565b82948184528183011161055d578281602093845f960137010152565b91908203918211612be557565b634e487b7160e01b5f52601160045260245ffd5b91908201809211612be557565b356001600160401b038116810361055d5790565b9691956001600160401b039561ffff949585939b9a9660e0996101008c019d60018060a01b03168c5260208c015260408b015260608a015260808901521660a08701521660c085015216910152565b9081526001600160a01b03918216602082015291811660408301529091166060820152608081019190915260a081019190915260c081019190915261ffff91821660e082015291166101008201526001600160401b039091166101208201526101400190565b9694929095939160405196602088019861ffff60f01b9060f01b16895261ffff60f01b9060f01b1660228801526001600160601b03199060601b1660248701526001600160601b03199060601b1660388601526001600160601b03199060601b16604c85015260608401526001600160401b0360c01b9060c01b166080830152608882015260888152612b2c60a882612a90565b60025f5414612d725760025f55565b633ee5aeb560e01b5f5260045ffd5b929192610100810135804211612f07576101208201358015611f8157612ed3936042612ec492612eca946001600160401b036020880197612dc189612b32565b93612dce60408301612b32565b93612ddb60c08401612b46565b61ffff612dea60e08601612b32565b9160a0612dfa6101408801612c06565b966040519960208b019b7f3a16219d06af018ad9787d0dcfcc281b004cb45454d560c61c3bc3288717ed648d52823560408d0152600180851b031660608c0152600180841b031660808b01526060810135828b0152608081013560c08b0152013560e08901521661010087015260018060a01b0316610120860152610140850152610160840152166101808201526101808152612e996101a082612a90565b519020612ea4613682565b906040519161190160f01b83526002830152602282015220963691612ba2565b85613798565b909391936137d2565b6001600160a01b0390612ee590612b32565b166001600160a01b0390911603612ef857565b638baa579f60e01b5f5260045ffd5b62202b7560e21b5f5260045ffd5b6040516323b872dd60e01b60208201526001600160a01b039283166024820152929091166044830152606480830193909352918152612f5e91612f59608483612a90565b613434565b565b60405163a9059cbb60e01b60208201526001600160a01b03929092166024830152604480830193909352918152612f5e91612f59606483612a90565b6040519060205f8184019463095ea7b360e01b865260018060a01b03169485602486015281604486015260448552612fd5606486612a90565b84519082855af15f513d82613029575b505015612ff157505050565b612f59612f5e936040519063095ea7b360e01b602083015260248201525f604482015260448152613023606482612a90565b82613434565b90915061304657506001600160a01b0381163b15155b5f80612fe5565b60011461303f565b60405163095ea7b360e01b60208083019182526001600160a01b0385166024840152604480840196909652948252929390925f9061308d606486612a90565b84519082855af15f513d826130e8575b5050156130a957505050565b60405163095ea7b360e01b60208201526001600160a01b0390931660248401525f6044808501919091528352612f5e92612f5990613023606482612a90565b90915061310557506001600160a01b0381163b15155b5f8061309d565b6001146130fe565b5f92838093826040519384928337810182815203925af13d1561318d573d61313481612b87565b906131426040519283612a90565b81525f60203d92013e5b1561315357565b60405162461bcd60e51b81526020600482015260126024820152711d185c99d95d0818d85b1b0819985a5b195960721b6044820152606490fd5b61314c565b919290916001600160a01b0316156131f75781156131e8576131b5829184612bf9565b116131d9576131c3906133c5565b106131ca57565b63cd4e616760e01b5f5260045ffd5b631f656da960e31b5f5260045ffd5b631f2a200560e01b5f5260045ffd5b635d1a467d60e11b5f5260045ffd5b6040516370a0823160e01b815230600482015292956001600160a01b03909116939092909190602081602481885afa908115611f765783905f9261330b575b506132539192309087612f15565b6040516370a0823160e01b815230600482015290602082602481885afa8015611f765783925f916132d2575b509061328a91612bd8565b036125f85761329f6132aa926132b295612bf9565b90816132b557612bd8565b928391612f60565b90565b6004546132cd9083906001600160a01b031686612f60565b612bd8565b919250506020813d602011613303575b816132ef60209383612a90565b8101031261055d575182919061328a61327f565b3d91506132e2565b9150506020813d602011613339575b8161332760209383612a90565b8101031261055d575182613253613245565b3d915061331a565b9091905f905f1984820990848102928380841093039280840393146133b8578261271011156133a657507fbc01a36e2eb1c432ca57a786c226809d495182a9930be0ded288ce703afb7e919394612710910990828211900360fc1b910360041c170290565b634e487b71905260116020526024601cfd5b5050506127109192500490565b905f5f19600584096005840291828083109203918083039214613429578161271011156133a6575061271060057fbc01a36e2eb1c432ca57a786c226809d495182a9930be0ded288ce703afb7e9194950990828211900360fc1b910360041c170290565b505061271090049150565b905f602091828151910182855af115611f76575f513d61348357506001600160a01b0381163b155b6134635750565b635274afe760e01b5f9081526001600160a01b0391909116600452602490fd5b6001141561345c565b60ff81146134d25760ff811690601f82116134c357604051916134b0604084612a90565b6020808452838101919036833783525290565b632cd44ac360e21b5f5260045ffd5b506040515f6001548060011c91600182169182156135a8575b6020841083146135945783855284929081156135755750600114613516575b6132b292500382612a90565b5060015f90815290917fb10e2d527612073b26eecdfd717e6a320cf44b4afac2b0732d9fcbe2b7fa0cf65b8183106135595750509060206132b29282010161350a565b6020919350806001915483858801015201910190918392613541565b602092506132b294915060ff191682840152151560051b82010161350a565b634e487b7160e01b5f52602260045260245ffd5b92607f16926134eb565b60ff81146135d65760ff811690601f82116134c357604051916134b0604084612a90565b506040515f6002548060011c9160018216918215613678575b6020841083146135945783855284929081156135755750600114613619576132b292500382612a90565b5060025f90815290917f405787fa12a823e0f2b7631cc41b3ba8828b3321ca811111fa75cd3aa3bb5ace5b81831061365c5750509060206132b29282010161350a565b6020919350806001915483858801015201910190918392613644565b92607f16926135ef565b307f00000000000000000000000000000000000000000000000000000000000000006001600160a01b0316148061376f575b156136dd577f000000000000000000000000000000000000000000000000000000000000000090565b60405160208101907f8b73c3c69bb8fe3d512ecc4cf759cc79239f7b179b0ffacaa9a75d522b39400f82527f000000000000000000000000000000000000000000000000000000000000000060408201527f000000000000000000000000000000000000000000000000000000000000000060608201524660808201523060a082015260a08152612b2c60c082612a90565b507f000000000000000000000000000000000000000000000000000000000000000046146136b4565b81519190604183036137c8576137c19250602082015190606060408401519301515f1a90613846565b9192909190565b50505f9160029190565b600481101561383257806137e4575050565b600181036137fb5763f645eedf60e01b5f5260045ffd5b60028103613816575063fce698f760e01b5f5260045260245ffd5b6003146138205750565b6335e2f38360e21b5f5260045260245ffd5b634e487b7160e01b5f52602160045260245ffd5b91907f7fffffffffffffffffffffffffffffff5d576e7357a4501ddfe92f46681b20a084116138bd579160209360809260ff5f9560405194855216868401526040830152606082015282805260015afa15611f76575f516001600160a01b038116156138b357905f905f90565b505f906001905f90565b5050505f916003919056fe79397877f6a58588f65d6e8255514411fe780cf88a68c210c2b7c3afe8951198a6751dcd0f6b9669eceaf240a62b80995af3ce6972edc604e9d1316d5ff59aa5a26469706673582212207debbd55c76716b49b9d56e1008afa064566ccb8cb38affda8410c8fc882a05964736f6c634300081a0033","linkReferences":{}},"methodIdentifiers":{"FEE_CAP_BPS()":"5382a911","MAX_PAYLOAD_BYTES()":"d31ecaa7","ROUTE_INTENT_TYPEHASH_PUBLIC()":"de3011e7","SRC_CHAIN_ID()":"1459dda2","acceptAdmin()":"0e18b681","adapter()":"03eadcfc","admin()":"f851a440","computeGlobalRouteId(uint16,uint16,address,bytes32,uint64)":"2f32ff62","computeMessageHash(uint16,uint16,address,address,address,uint256,uint64,bytes32)":"9d03c6f8","defaultTarget()":"0215c402","eip712Domain()":"84b0196e","enforceTargetAllowlist()":"b1d7d467","feeCollector()":"c415b95c","feeRecipient()":"46904840","finalizeMessage(bytes32,bytes32,address,address,address,uint256,uint256,uint256)":"5acd1e6b","isAllowedTarget(address)":"78addb48","lpShareBps()":"4c7ac03f","pendingAdmin()":"26782247","proposeAdmin(address)":"147bf6c4","protocolFeeBps()":"35659fb8","protocolShareBps()":"37ed3f1e","relayerFeeBps()":"93c79ba6","setAdapter(address)":"ab1da79c","setAdmin(address)":"704b6c02","setAllowedTarget(address,bool)":"ca1dd22e","setEnforceTargetAllowlist(bool)":"462455d2","setFeeCollector(address)":"a42dce80","setFeeRecipient(address)":"e74b981b","setLPShareBps(uint16)":"ea5acf02","setProtocolFeeBps(uint16)":"be37b12c","setProtocolShareBps(uint16)":"7e863a22","setRelayerFeeBps(uint16)":"ecaab861","universalBridgeApproveThenCall((address,uint256,uint256,uint256,bytes,address,uint16,uint64))":"f7bc2e78","universalBridgeApproveThenCallWithSig((address,uint256,uint256,uint256,bytes,address,uint16,uint64),(bytes32,address,address,uint256,uint256,uint256,uint16,address,uint256,bytes32,uint64),bytes)":"362d6cd4","universalBridgeTransfer((address,uint256,uint256,uint256,bytes,address,uint16,uint64))":"7143d818","universalBridgeTransferWithDAIPermit((address,uint256,uint256,uint256,bytes,address,uint16,uint64),uint256,uint256,bool,uint8,bytes32,bytes32)":"5248bb70","universalBridgeTransferWithPermit((address,uint256,uint256,uint256,bytes,address,uint16,uint64),uint256,uint8,bytes32,bytes32)":"9eead346","universalBridgeTransferWithSig((address,uint256,uint256,uint256,bytes,address,uint16,uint64),(bytes32,address,address,uint256,uint256,uint256,uint16,address,uint256,bytes32,uint64),bytes)":"b71351d6","usedIntents(bytes32)":"6336803b","usedMessages(bytes32)":"5a028400"},"id":1}