{"abi":[{"type":"constructor","inputs":[{"name":"_admin","type":"address","internalType":"address"},{"name":"_feeRecipient","type":"address","internalType":"address"},{"name":"_defaultTarget","type":"address","internalType":"address"},{"name":"_srcChainId","type":"uint16","internalType":"uint16"}],"stateMutability":"nonpayable"},{"type":"function","name":"ADAPTER_ROLE","inputs":[],"outputs":[{"name":"","type":"bytes32","internalType":"bytes32"}],"stateMutability":"view"},{"type":"function","name":"DEFAULT_ADMIN_ROLE","inputs":[],"outputs":[{"name":"","type":"bytes32","internalType":"bytes32"}],"stateMutability":"view"},{"type":"function","name":"FEE_CAP_BPS","inputs":[],"outputs":[{"name":"","type":"uint16","internalType":"uint16"}],"stateMutability":"view"},{"type":"function","name":"MAX_PAYLOAD_BYTES","inputs":[],"outputs":[{"name":"","type":"uint256","internalType":"uint256"}],"stateMutability":"view"},{"type":"function","name":"ROUTE_INTENT_TYPEHASH_PUBLIC","inputs":[],"outputs":[{"name":"","type":"bytes32","internalType":"bytes32"}],"stateMutability":"pure"},{"type":"function","name":"SRC_CHAIN_ID","inputs":[],"outputs":[{"name":"","type":"uint16","internalType":"uint16"}],"stateMutability":"view"},{"type":"function","name":"acceptAdmin","inputs":[],"outputs":[],"stateMutability":"nonpayable"},{"type":"function","name":"adapter","inputs":[],"outputs":[{"name":"","type":"address","internalType":"address"}],"stateMutability":"view"},{"type":"function","name":"addAdapter","inputs":[{"name":"a","type":"address","internalType":"address"}],"outputs":[],"stateMutability":"nonpayable"},{"type":"function","name":"admin","inputs":[],"outputs":[{"name":"","type":"address","internalType":"address"}],"stateMutability":"view"},{"type":"function","name":"computeGlobalRouteId","inputs":[{"name":"srcChainId","type":"uint16","internalType":"uint16"},{"name":"dstChainId","type":"uint16","internalType":"uint16"},{"name":"initiator","type":"address","internalType":"address"},{"name":"messageHash","type":"bytes32","internalType":"bytes32"},{"name":"nonce","type":"uint64","internalType":"uint64"}],"outputs":[{"name":"","type":"bytes32","internalType":"bytes32"}],"stateMutability":"pure"},{"type":"function","name":"defaultTarget","inputs":[],"outputs":[{"name":"","type":"address","internalType":"address"}],"stateMutability":"view"},{"type":"function","name":"delegateFeeToTarget","inputs":[{"name":"","type":"address","internalType":"address"}],"outputs":[{"name":"","type":"bool","internalType":"bool"}],"stateMutability":"view"},{"type":"function","name":"eip712Domain","inputs":[],"outputs":[{"name":"fields","type":"bytes1","internalType":"bytes1"},{"name":"name","type":"string","internalType":"string"},{"name":"version","type":"string","internalType":"string"},{"name":"chainId","type":"uint256","internalType":"uint256"},{"name":"verifyingContract","type":"address","internalType":"address"},{"name":"salt","type":"bytes32","internalType":"bytes32"},{"name":"extensions","type":"uint256[]","internalType":"uint256[]"}],"stateMutability":"view"},{"type":"function","name":"enforceTargetAllowlist","inputs":[],"outputs":[{"name":"","type":"bool","internalType":"bool"}],"stateMutability":"view"},{"type":"function","name":"feeCollector","inputs":[],"outputs":[{"name":"","type":"address","internalType":"address"}],"stateMutability":"view"},{"type":"function","name":"feeRecipient","inputs":[],"outputs":[{"name":"","type":"address","internalType":"address"}],"stateMutability":"view"},{"type":"function","name":"finalizeMessage","inputs":[{"name":"globalRouteId","type":"bytes32","internalType":"bytes32"},{"name":"messageHash","type":"bytes32","internalType":"bytes32"},{"name":"asset","type":"address","internalType":"address"},{"name":"vault","type":"address","internalType":"address"},{"name":"","type":"address","internalType":"address"},{"name":"amount","type":"uint256","internalType":"uint256"},{"name":"protocolFee","type":"uint256","internalType":"uint256"},{"name":"relayerFee","type":"uint256","internalType":"uint256"}],"outputs":[],"stateMutability":"nonpayable"},{"type":"function","name":"freezeAdapter","inputs":[{"name":"a","type":"address","internalType":"address"},{"name":"frozen","type":"bool","internalType":"bool"}],"outputs":[],"stateMutability":"nonpayable"},{"type":"function","name":"frozenAdapter","inputs":[{"name":"","type":"address","internalType":"address"}],"outputs":[{"name":"","type":"bool","internalType":"bool"}],"stateMutability":"view"},{"type":"function","name":"getRoleAdmin","inputs":[{"name":"role","type":"bytes32","internalType":"bytes32"}],"outputs":[{"name":"","type":"bytes32","internalType":"bytes32"}],"stateMutability":"view"},{"type":"function","name":"grantRole","inputs":[{"name":"role","type":"bytes32","internalType":"bytes32"},{"name":"account","type":"address","internalType":"address"}],"outputs":[],"stateMutability":"nonpayable"},{"type":"function","name":"hasRole","inputs":[{"name":"role","type":"bytes32","internalType":"bytes32"},{"name":"account","type":"address","internalType":"address"}],"outputs":[{"name":"","type":"bool","internalType":"bool"}],"stateMutability":"view"},{"type":"function","name":"isAllowedTarget","inputs":[{"name":"","type":"address","internalType":"address"}],"outputs":[{"name":"","type":"bool","internalType":"bool"}],"stateMutability":"view"},{"type":"function","name":"lpShareBps","inputs":[],"outputs":[{"name":"","type":"uint16","internalType":"uint16"}],"stateMutability":"view"},{"type":"function","name":"pendingAdmin","inputs":[],"outputs":[{"name":"","type":"address","internalType":"address"}],"stateMutability":"view"},{"type":"function","name":"proposeAdmin","inputs":[{"name":"p","type":"address","internalType":"address"}],"outputs":[],"stateMutability":"nonpayable"},{"type":"function","name":"protocolFeeBps","inputs":[],"outputs":[{"name":"","type":"uint16","internalType":"uint16"}],"stateMutability":"view"},{"type":"function","name":"protocolShareBps","inputs":[],"outputs":[{"name":"","type":"uint16","internalType":"uint16"}],"stateMutability":"view"},{"type":"function","name":"relayerFeeBps","inputs":[],"outputs":[{"name":"","type":"uint16","internalType":"uint16"}],"stateMutability":"view"},{"type":"function","name":"removeAdapter","inputs":[{"name":"a","type":"address","internalType":"address"}],"outputs":[],"stateMutability":"nonpayable"},{"type":"function","name":"renounceRole","inputs":[{"name":"role","type":"bytes32","internalType":"bytes32"},{"name":"callerConfirmation","type":"address","internalType":"address"}],"outputs":[],"stateMutability":"nonpayable"},{"type":"function","name":"revokeRole","inputs":[{"name":"role","type":"bytes32","internalType":"bytes32"},{"name":"account","type":"address","internalType":"address"}],"outputs":[],"stateMutability":"nonpayable"},{"type":"function","name":"setAdapter","inputs":[{"name":"a","type":"address","internalType":"address"}],"outputs":[],"stateMutability":"nonpayable"},{"type":"function","name":"setAdmin","inputs":[{"name":"newAdmin","type":"address","internalType":"address"}],"outputs":[],"stateMutability":"nonpayable"},{"type":"function","name":"setAllowedTarget","inputs":[{"name":"t","type":"address","internalType":"address"},{"name":"ok","type":"bool","internalType":"bool"}],"outputs":[],"stateMutability":"nonpayable"},{"type":"function","name":"setDelegateFeeToTarget","inputs":[{"name":"target","type":"address","internalType":"address"},{"name":"delegate","type":"bool","internalType":"bool"}],"outputs":[],"stateMutability":"nonpayable"},{"type":"function","name":"setEnforceTargetAllowlist","inputs":[{"name":"v","type":"bool","internalType":"bool"}],"outputs":[],"stateMutability":"nonpayable"},{"type":"function","name":"setFeeCollector","inputs":[{"name":"c","type":"address","internalType":"address"}],"outputs":[],"stateMutability":"nonpayable"},{"type":"function","name":"setFeeRecipient","inputs":[{"name":"newFeeRecipient","type":"address","internalType":"address"}],"outputs":[],"stateMutability":"nonpayable"},{"type":"function","name":"setFeeSplit","inputs":[{"name":"protocolShare","type":"uint16","internalType":"uint16"},{"name":"lpShare","type":"uint16","internalType":"uint16"}],"outputs":[],"stateMutability":"nonpayable"},{"type":"function","name":"setLPShareBps","inputs":[{"name":"bps","type":"uint16","internalType":"uint16"}],"outputs":[],"stateMutability":"nonpayable"},{"type":"function","name":"setProtocolFeeBps","inputs":[{"name":"bps","type":"uint16","internalType":"uint16"}],"outputs":[],"stateMutability":"nonpayable"},{"type":"function","name":"setProtocolShareBps","inputs":[{"name":"bps","type":"uint16","internalType":"uint16"}],"outputs":[],"stateMutability":"nonpayable"},{"type":"function","name":"setRelayerFeeBps","inputs":[{"name":"bps","type":"uint16","internalType":"uint16"}],"outputs":[],"stateMutability":"nonpayable"},{"type":"function","name":"supportsInterface","inputs":[{"name":"interfaceId","type":"bytes4","internalType":"bytes4"}],"outputs":[{"name":"","type":"bool","internalType":"bool"}],"stateMutability":"view"},{"type":"function","name":"universalBridgeApproveThenCall","inputs":[{"name":"a","type":"tuple","internalType":"struct Router.TransferArgs","components":[{"name":"token","type":"address","internalType":"address"},{"name":"amount","type":"uint256","internalType":"uint256"},{"name":"protocolFee","type":"uint256","internalType":"uint256"},{"name":"relayerFee","type":"uint256","internalType":"uint256"},{"name":"payload","type":"bytes","internalType":"bytes"},{"name":"target","type":"address","internalType":"address"},{"name":"dstChainId","type":"uint16","internalType":"uint16"},{"name":"nonce","type":"uint64","internalType":"uint64"}]}],"outputs":[],"stateMutability":"nonpayable"},{"type":"function","name":"universalBridgeApproveThenCallWithSig","inputs":[{"name":"a","type":"tuple","internalType":"struct Router.TransferArgs","components":[{"name":"token","type":"address","internalType":"address"},{"name":"amount","type":"uint256","internalType":"uint256"},{"name":"protocolFee","type":"uint256","internalType":"uint256"},{"name":"relayerFee","type":"uint256","internalType":"uint256"},{"name":"payload","type":"bytes","internalType":"bytes"},{"name":"target","type":"address","internalType":"address"},{"name":"dstChainId","type":"uint16","internalType":"uint16"},{"name":"nonce","type":"uint64","internalType":"uint64"}]},{"name":"intent","type":"tuple","internalType":"struct Router.RouteIntent","components":[{"name":"routeId","type":"bytes32","internalType":"bytes32"},{"name":"user","type":"address","internalType":"address"},{"name":"token","type":"address","internalType":"address"},{"name":"amount","type":"uint256","internalType":"uint256"},{"name":"protocolFee","type":"uint256","internalType":"uint256"},{"name":"relayerFee","type":"uint256","internalType":"uint256"},{"name":"dstChainId","type":"uint16","internalType":"uint16"},{"name":"recipient","type":"address","internalType":"address"},{"name":"expiry","type":"uint256","internalType":"uint256"},{"name":"payloadHash","type":"bytes32","internalType":"bytes32"},{"name":"nonce","type":"uint64","internalType":"uint64"}]},{"name":"signature","type":"bytes","internalType":"bytes"}],"outputs":[],"stateMutability":"nonpayable"},{"type":"function","name":"universalBridgeTransfer","inputs":[{"name":"a","type":"tuple","internalType":"struct Router.TransferArgs","components":[{"name":"token","type":"address","internalType":"address"},{"name":"amount","type":"uint256","internalType":"uint256"},{"name":"protocolFee","type":"uint256","internalType":"uint256"},{"name":"relayerFee","type":"uint256","internalType":"uint256"},{"name":"payload","type":"bytes","internalType":"bytes"},{"name":"target","type":"address","internalType":"address"},{"name":"dstChainId","type":"uint16","internalType":"uint16"},{"name":"nonce","type":"uint64","internalType":"uint64"}]}],"outputs":[],"stateMutability":"nonpayable"},{"type":"function","name":"universalBridgeTransferWithDAIPermit","inputs":[{"name":"a","type":"tuple","internalType":"struct Router.TransferArgs","components":[{"name":"token","type":"address","internalType":"address"},{"name":"amount","type":"uint256","internalType":"uint256"},{"name":"protocolFee","type":"uint256","internalType":"uint256"},{"name":"relayerFee","type":"uint256","internalType":"uint256"},{"name":"payload","type":"bytes","internalType":"bytes"},{"name":"target","type":"address","internalType":"address"},{"name":"dstChainId","type":"uint16","internalType":"uint16"},{"name":"nonce","type":"uint64","internalType":"uint64"}]},{"name":"permitNonce","type":"uint256","internalType":"uint256"},{"name":"expiry","type":"uint256","internalType":"uint256"},{"name":"allowed","type":"bool","internalType":"bool"},{"name":"v","type":"uint8","internalType":"uint8"},{"name":"r","type":"bytes32","internalType":"bytes32"},{"name":"s","type":"bytes32","internalType":"bytes32"}],"outputs":[],"stateMutability":"nonpayable"},{"type":"function","name":"universalBridgeTransferWithPermit","inputs":[{"name":"a","type":"tuple","internalType":"struct Router.TransferArgs","components":[{"name":"token","type":"address","internalType":"address"},{"name":"amount","type":"uint256","internalType":"uint256"},{"name":"protocolFee","type":"uint256","internalType":"uint256"},{"name":"relayerFee","type":"uint256","internalType":"uint256"},{"name":"payload","type":"bytes","internalType":"bytes"},{"name":"target","type":"address","internalType":"address"},{"name":"dstChainId","type":"uint16","internalType":"uint16"},{"name":"nonce","type":"uint64","internalType":"uint64"}]},{"name":"deadline","type":"uint256","internalType":"uint256"},{"name":"v","type":"uint8","internalType":"uint8"},{"name":"r","type":"bytes32","internalType":"bytes32"},{"name":"s","type":"bytes32","internalType":"bytes32"}],"outputs":[],"stateMutability":"nonpayable"},{"type":"function","name":"universalBridgeTransferWithSig","inputs":[{"name":"a","type":"tuple","internalType":"struct Router.TransferArgs","components":[{"name":"token","type":"address","internalType":"address"},{"name":"amount","type":"uint256","internalType":"uint256"},{"name":"protocolFee","type":"uint256","internalType":"uint256"},{"name":"relayerFee","type":"uint256","internalType":"uint256"},{"name":"payload","type":"bytes","internalType":"bytes"},{"name":"target","type":"address","internalType":"address"},{"name":"dstChainId","type":"uint16","internalType":"uint16"},{"name":"nonce","type":"uint64","internalType":"uint64"}]},{"name":"intent","type":"tuple","internalType":"struct Router.RouteIntent","components":[{"name":"routeId","type":"bytes32","internalType":"bytes32"},{"name":"user","type":"address","internalType":"address"},{"name":"token","type":"address","internalType":"address"},{"name":"amount","type":"uint256","internalType":"uint256"},{"name":"protocolFee","type":"uint256","internalType":"uint256"},{"name":"relayerFee","type":"uint256","internalType":"uint256"},{"name":"dstChainId","type":"uint16","internalType":"uint16"},{"name":"recipient","type":"address","internalType":"address"},{"name":"expiry","type":"uint256","internalType":"uint256"},{"name":"payloadHash","type":"bytes32","internalType":"bytes32"},{"name":"nonce","type":"uint64","internalType":"uint64"}]},{"name":"signature","type":"bytes","internalType":"bytes"}],"outputs":[],"stateMutability":"nonpayable"},{"type":"function","name":"usedIntents","inputs":[{"name":"","type":"bytes32","internalType":"bytes32"}],"outputs":[{"name":"","type":"bool","internalType":"bool"}],"stateMutability":"view"},{"type":"function","name":"usedMessages","inputs":[{"name":"","type":"bytes32","internalType":"bytes32"}],"outputs":[{"name":"","type":"bool","internalType":"bool"}],"stateMutability":"view"},{"type":"event","name":"AdapterAdded","inputs":[{"name":"adapter","type":"address","indexed":false,"internalType":"address"}],"anonymous":false},{"type":"event","name":"AdapterFrozen","inputs":[{"name":"adapter","type":"address","indexed":false,"internalType":"address"},{"name":"frozen","type":"bool","indexed":false,"internalType":"bool"}],"anonymous":false},{"type":"event","name":"AdapterRemoved","inputs":[{"name":"adapter","type":"address","indexed":false,"internalType":"address"}],"anonymous":false},{"type":"event","name":"AdminProposed","inputs":[{"name":"current","type":"address","indexed":true,"internalType":"address"},{"name":"proposed","type":"address","indexed":true,"internalType":"address"}],"anonymous":false},{"type":"event","name":"AdminUpdated","inputs":[{"name":"oldAdmin","type":"address","indexed":true,"internalType":"address"},{"name":"newAdmin","type":"address","indexed":true,"internalType":"address"}],"anonymous":false},{"type":"event","name":"BridgeInitiated","inputs":[{"name":"routeId","type":"bytes32","indexed":true,"internalType":"bytes32"},{"name":"user","type":"address","indexed":true,"internalType":"address"},{"name":"token","type":"address","indexed":true,"internalType":"address"},{"name":"target","type":"address","indexed":false,"internalType":"address"},{"name":"forwardedAmount","type":"uint256","indexed":false,"internalType":"uint256"},{"name":"protocolFee","type":"uint256","indexed":false,"internalType":"uint256"},{"name":"relayerFee","type":"uint256","indexed":false,"internalType":"uint256"},{"name":"payloadHash","type":"bytes32","indexed":false,"internalType":"bytes32"},{"name":"srcChainId","type":"uint16","indexed":false,"internalType":"uint16"},{"name":"dstChainId","type":"uint16","indexed":false,"internalType":"uint16"},{"name":"nonce","type":"uint64","indexed":false,"internalType":"uint64"}],"anonymous":false},{"type":"event","name":"DelegateFeeSet","inputs":[{"name":"target","type":"address","indexed":true,"internalType":"address"},{"name":"delegate","type":"bool","indexed":false,"internalType":"bool"}],"anonymous":false},{"type":"event","name":"EIP712DomainChanged","inputs":[],"anonymous":false},{"type":"event","name":"FeeApplied","inputs":[{"name":"globalRouteId","type":"bytes32","indexed":true,"internalType":"bytes32"},{"name":"messageHash","type":"bytes32","indexed":true,"internalType":"bytes32"},{"name":"chainId","type":"uint16","indexed":false,"internalType":"uint16"},{"name":"router","type":"address","indexed":false,"internalType":"address"},{"name":"vault","type":"address","indexed":false,"internalType":"address"},{"name":"asset","type":"address","indexed":false,"internalType":"address"},{"name":"protocol_fee_native","type":"uint256","indexed":false,"internalType":"uint256"},{"name":"relayer_fee_native","type":"uint256","indexed":false,"internalType":"uint256"},{"name":"protocol_bps","type":"uint16","indexed":false,"internalType":"uint16"},{"name":"lp_bps","type":"uint16","indexed":false,"internalType":"uint16"},{"name":"collector","type":"address","indexed":false,"internalType":"address"},{"name":"applied_at","type":"uint256","indexed":false,"internalType":"uint256"}],"anonymous":false},{"type":"event","name":"FeeAppliedSource","inputs":[{"name":"messageHash","type":"bytes32","indexed":true,"internalType":"bytes32"},{"name":"asset","type":"address","indexed":true,"internalType":"address"},{"name":"payer","type":"address","indexed":true,"internalType":"address"},{"name":"target","type":"address","indexed":false,"internalType":"address"},{"name":"protocolFee","type":"uint256","indexed":false,"internalType":"uint256"},{"name":"relayerFee","type":"uint256","indexed":false,"internalType":"uint256"},{"name":"feeRecipient","type":"address","indexed":false,"internalType":"address"},{"name":"appliedAt","type":"uint256","indexed":false,"internalType":"uint256"}],"anonymous":false},{"type":"event","name":"FeeRecipientUpdated","inputs":[{"name":"oldFeeRecipient","type":"address","indexed":true,"internalType":"address"},{"name":"newFeeRecipient","type":"address","indexed":true,"internalType":"address"}],"anonymous":false},{"type":"event","name":"IntentConsumed","inputs":[{"name":"digest","type":"bytes32","indexed":true,"internalType":"bytes32"},{"name":"routeId","type":"bytes32","indexed":true,"internalType":"bytes32"},{"name":"user","type":"address","indexed":true,"internalType":"address"}],"anonymous":false},{"type":"event","name":"LPShareBpsUpdated","inputs":[{"name":"oldBps","type":"uint16","indexed":false,"internalType":"uint16"},{"name":"newBps","type":"uint16","indexed":false,"internalType":"uint16"}],"anonymous":false},{"type":"event","name":"ProtocolFeeBpsUpdated","inputs":[{"name":"oldBps","type":"uint16","indexed":false,"internalType":"uint16"},{"name":"newBps","type":"uint16","indexed":false,"internalType":"uint16"}],"anonymous":false},{"type":"event","name":"ProtocolShareBpsUpdated","inputs":[{"name":"oldBps","type":"uint16","indexed":false,"internalType":"uint16"},{"name":"newBps","type":"uint16","indexed":false,"internalType":"uint16"}],"anonymous":false},{"type":"event","name":"RelayerFeeBpsUpdated","inputs":[{"name":"oldBps","type":"uint16","indexed":false,"internalType":"uint16"},{"name":"newBps","type":"uint16","indexed":false,"internalType":"uint16"}],"anonymous":false},{"type":"event","name":"RoleAdminChanged","inputs":[{"name":"role","type":"bytes32","indexed":true,"internalType":"bytes32"},{"name":"previousAdminRole","type":"bytes32","indexed":true,"internalType":"bytes32"},{"name":"newAdminRole","type":"bytes32","indexed":true,"internalType":"bytes32"}],"anonymous":false},{"type":"event","name":"RoleGranted","inputs":[{"name":"role","type":"bytes32","indexed":true,"internalType":"bytes32"},{"name":"account","type":"address","indexed":true,"internalType":"address"},{"name":"sender","type":"address","indexed":true,"internalType":"address"}],"anonymous":false},{"type":"event","name":"RoleRevoked","inputs":[{"name":"role","type":"bytes32","indexed":true,"internalType":"bytes32"},{"name":"account","type":"address","indexed":true,"internalType":"address"},{"name":"sender","type":"address","indexed":true,"internalType":"address"}],"anonymous":false},{"type":"event","name":"UniversalBridgeInitiated","inputs":[{"name":"routeId","type":"bytes32","indexed":true,"internalType":"bytes32"},{"name":"payloadHash","type":"bytes32","indexed":true,"internalType":"bytes32"},{"name":"messageHash","type":"bytes32","indexed":true,"internalType":"bytes32"},{"name":"globalRouteId","type":"bytes32","indexed":false,"internalType":"bytes32"},{"name":"user","type":"address","indexed":false,"internalType":"address"},{"name":"token","type":"address","indexed":false,"internalType":"address"},{"name":"target","type":"address","indexed":false,"internalType":"address"},{"name":"forwardedAmount","type":"uint256","indexed":false,"internalType":"uint256"},{"name":"protocolFee","type":"uint256","indexed":false,"internalType":"uint256"},{"name":"relayerFee","type":"uint256","indexed":false,"internalType":"uint256"},{"name":"srcChainId","type":"uint16","indexed":false,"internalType":"uint16"},{"name":"dstChainId","type":"uint16","indexed":false,"internalType":"uint16"},{"name":"nonce","type":"uint64","indexed":false,"internalType":"uint64"}],"anonymous":false},{"type":"error","name":"AccessControlBadConfirmation","inputs":[]},{"type":"error","name":"AccessControlUnauthorizedAccount","inputs":[{"name":"account","type":"address","internalType":"address"},{"name":"neededRole","type":"bytes32","internalType":"bytes32"}]},{"type":"error","name":"AdapterFrozenErr","inputs":[]},{"type":"error","name":"ECDSAInvalidSignature","inputs":[]},{"type":"error","name":"ECDSAInvalidSignatureLength","inputs":[{"name":"length","type":"uint256","internalType":"uint256"}]},{"type":"error","name":"ECDSAInvalidSignatureS","inputs":[{"name":"s","type":"bytes32","internalType":"bytes32"}]},{"type":"error","name":"ExpiredIntent","inputs":[]},{"type":"error","name":"FeeOnTransferNotSupported","inputs":[]},{"type":"error","name":"FeeTooHigh","inputs":[]},{"type":"error","name":"FeesExceedAmount","inputs":[]},{"type":"error","name":"IntentAlreadyUsed","inputs":[]},{"type":"error","name":"IntentMismatch","inputs":[]},{"type":"error","name":"InvalidShortString","inputs":[]},{"type":"error","name":"InvalidSignature","inputs":[]},{"type":"error","name":"MessageAlreadyUsed","inputs":[]},{"type":"error","name":"NotAdapter","inputs":[]},{"type":"error","name":"PayloadDisallowedToEOA","inputs":[]},{"type":"error","name":"PayloadTooLarge","inputs":[]},{"type":"error","name":"ReentrancyGuardReentrantCall","inputs":[]},{"type":"error","name":"ResidueLeft","inputs":[]},{"type":"error","name":"SafeERC20FailedOperation","inputs":[{"name":"token","type":"address","internalType":"address"}]},{"type":"error","name":"StringTooLong","inputs":[{"name":"str","type":"string","internalType":"string"}]},{"type":"error","name":"TargetNotContract","inputs":[]},{"type":"error","name":"TargetNotSet","inputs":[]},{"type":"error","name":"TokenZeroAddress","inputs":[]},{"type":"error","name":"Unauthorized","inputs":[]},{"type":"error","name":"ZeroAddress","inputs":[]},{"type":"error","name":"ZeroAmount","inputs":[]}],"bytecode":{"object":"0x6101a0806040523461029e57608081614b13803803809161002082856102a2565b83398101031261029e57610033816102d9565b61003f602083016102d9565b91606061004e604083016102d9565b9101519061ffff8216820361029e5760405161006b6040826102a2565b600b815260208101906a2d37b7b82c2937baba32b960a91b8252604051916100946040846102a2565b600183526020830191603160f81b835260015f556100b181610376565b610120526100be84610511565b61014052519020918260e05251902080610100524660a0526040519060208201927f8b73c3c69bb8fe3d512ecc4cf759cc79239f7b179b0ffacaa9a75d522b39400f8452604083015260608201524660808201523060a082015260a0815261012760c0826102a2565b5190206080523060c0526001600160a01b03831693841561026d576001600160a01b03168015610235576101829460018060a01b0319600454161760045560018060a01b0319600554161760055561016052610180526102ed565b506040516144a9908161064a8239608051816141e6015260a0518161429d015260c051816141b0015260e051816142350152610100518161425b0152610120518161153e01526101405181611568015261016051818181610953015281816114880152818161193101528181611ff0015281816128360152613f0e01526101805181818161051a015281816111b00152818161183701528181611c550152818161271c015281816133fc01526136620152f35b60405162461bcd60e51b815260206004820152601060248201526f18985908199959549958da5c1a595b9d60821b6044820152606490fd5b60405162461bcd60e51b81526020600482015260096024820152683130b21030b236b4b760b91b6044820152606490fd5b5f80fd5b601f909101601f19168101906001600160401b038211908210176102c557604052565b634e487b7160e01b5f52604160045260245ffd5b51906001600160a01b038216820361029e57565b6001600160a01b0381165f9081525f80516020614af3833981519152602052604090205460ff16610371576001600160a01b03165f8181525f80516020614af383398151915260205260408120805460ff191660011790553391907f2f8788117e7eff1d82e926ec794901d17c78024a50270940304540a733656f0d8180a4600190565b505f90565b908151602081105f146103f0575090601f8151116103b05760208151910151602082106103a1571790565b5f198260200360031b1b161790565b604460209160405192839163305a27a960e01b83528160048401528051918291826024860152018484015e5f828201840152601f01601f19168101030190fd5b6001600160401b0381116102c557600154600181811c91168015610507575b60208210146104f357601f81116104c0575b50602092601f821160011461045f57928192935f92610454575b50508160011b915f199060031b1c19161760015560ff90565b015190505f8061043b565b601f1982169360015f52805f20915f5b8681106104a85750836001959610610490575b505050811b0160015560ff90565b01515f1960f88460031b161c191690555f8080610482565b9192602060018192868501518155019401920161046f565b60015f52601f60205f20910160051c810190601f830160051c015b8181106104e85750610421565b5f81556001016104db565b634e487b7160e01b5f52602260045260245ffd5b90607f169061040f565b908151602081105f1461053c575090601f8151116103b05760208151910151602082106103a1571790565b6001600160401b0381116102c557600254600181811c9116801561063f575b60208210146104f357601f811161060c575b50602092601f82116001146105ab57928192935f926105a0575b50508160011b915f199060031b1c19161760025560ff90565b015190505f80610587565b601f1982169360025f52805f20915f5b8681106105f457508360019596106105dc575b505050811b0160025560ff90565b01515f1960f88460031b161c191690555f80806105ce565b919260206001819286850151815501940192016105bb565b60025f52601f60205f20910160051c810190601f830160051c015b818110610634575061056d565b5f8155600101610627565b90607f169061055b56fe6080806040526004361015610012575f80fd5b5f905f3560e01c90816301ffc9a714612865575080630215c4021461282157806302a882e6146127fa57806303eadcfc146127d25780630e18b681146127405780631459dda214612702578063147bf6c41461268c5780631f9389231461260b578063248a9ca3146125e057806326782247146125b85780632f2ff15d1461257a5780632f32ff621461252457806330b941a3146124e757806335659fb8146124c6578063362d6cd41461211a57806336568abe146120d457806337ed3f1e146120b1578063462455d21461206157806346904840146120395780634c7ac03f146120155780635248bb7014611dcf5780635382a91114611db3578063585cd34b14611d655780635a02840014611d365780635acd1e6b14611b7957806360d54d4114611b1657806361d1a0f114611ad75780636336803b14611aa85780637045ab02146119ea578063704b6c02146119565780637143d8181461170457806378addb48146116c55780637e863a221461162057806384b0196e1461152457806391d14854146114da57806393c79ba6146114b55780639eead34614610fd6578063a217fddf14610fba578063a42dce8014610f49578063ab1da79c14610efa578063b1d7d46714610ed7578063b71351d614610d35578063be37b12c14610cb1578063c415b95c14610c86578063ca1dd22e14610c15578063d31ecaa714610bf8578063d547741f14610bb0578063de3011e714610b75578063e74b981b14610ae8578063ea5acf0214610a36578063ecaab86114610977578063f7bc2e7814610340578063f851a440146103175763f897840114610270575f80fd5b346103145760403660031901126103145761028961291f565b610291612930565b610299612fd3565b6127106102ae61ffff831661ffff8516612afa565b036102e15765ffff0000000061ffff60301b600c549260301b169260201b169067ffffffff0000000019161717600c5580f35b60405162461bcd60e51b815260206004820152600b60248201526a53706c6974213d3130302560a81b6044820152606490fd5b80fd5b50346103145780600319360112610314576004546040516001600160a01b039091168152602090f35b50346103145761034f366129c6565b610357613049565b61036081612ac5565b906020810135809261037f604084013591826060860135948592613742565b60a083016001600160a01b0361039482612ac5565b1615610950576103a390612ac5565b6001600160a01b03811692831561094157608085016102006103c58288612b07565b90501161093257823b15908115918061091e575b61090f5760ff6007541680610908575b806108f1575b6108e3576001600160a01b0361040488612ac5565b6040516370a0823160e01b815230600482015299911660208a602481845afa998a156108d8578b9a6108a4575b5061043e82303384613067565b6040516370a0823160e01b8152306004820152602081602481855afa8c81156108985784918d9190610860575b610476929350612ad9565b0361085157918a959493918993898852600e60205260ff6040892054165f1461079d5750915b6104b7866001600160a01b036104b187612ac5565b166131e1565b6104d383876001600160a01b036104cd88612ac5565b16613293565b80610789575b610770575b846001600160a01b036104f085612ac5565b16906104fb916131e1565b6105059083612b07565b369061051092612b86565b80519060200120957f000000000000000000000000000000000000000000000000000000000000000060c084019461054786612bbc565b61ffff169289858a858b61055a8b612ac5565b9860e08c0199868661056b8d612bcb565b9261ffff87169561057b96613978565b9e8f908352600e6020528c86828d604087205460ff16158061075e575b610711575b505050506105aa8c612bbc565b906105b48a612bcb565b90336105c09385612a53565b996105ca90612ac5565b8c6105d48d612bbc565b6105dd8b612bcb565b90604051948594600160a01b6001900316988b8b339a6105fd9789612bdf565b037fa6751dcd0f6b9669eceaf240a62b80995af3ce6972edc604e9d1316d5ff59aa591a461062a8c612ac5565b9661063490612bbc565b9361063e90612bcb565b9460405198899833610650998b612c2e565b037f79397877f6a58588f65d6e8255514411fe780cf88a68c210c2b7c3afe895119891a46001600160a01b039061068690612ac5565b166040518080926370a0823160e01b82523060048301525a92602491602094fa9081156107065783916106d0575b50036106c1576001815580f35b634fb8fb6360e01b8152600490fd5b90506020813d6020116106fe575b816106eb60209383612a1e565b810103126106fa57515f6106b4565b5f80fd5b3d91506106de565b6040513d85823e3d90fd5b6107285f8051602061443483398151915291612ac5565b938b61075260018060a01b036005541692604051938493339960018060a01b031698429386612b39565b0390a48c86828d61059d565b506107698b84612afa565b1515610598565b61078461077d8285612b07565b9087613352565b6104de565b506107948184612b07565b905015156104d9565b906107a8868a612afa565b9161ffff600c5460101c1680610819575b50826107d1575b50906107cb91612ad9565b9161049c565b91939596975091935060018060a01b036005541690811561080a57928a9492610803828f9a999896946107cb956131a5565b90916107c0565b63d92e233d60e01b8d5260048dfd5b909294969798508161082d929496506130b2565b861161084257918993918c979695935f6107b9565b63cd4e616760e01b8c5260048cfd5b639bfa3c1760e01b8b5260048bfd5b5050506020813d602011610890575b8161087c60209383612a1e565b810103126106fa5751829081908c9061046b565b3d915061086f565b604051903d90823e3d90fd5b9099506020813d6020116108d0575b816108c060209383612a1e565b810103126106fa5751985f610431565b3d91506108b3565b6040513d8d823e3d90fd5b62b8dfab60e11b8952600489fd5b50858952600660205260ff60408a205416156103ef565b50816103e9565b633390d76b60e01b8952600489fd5b506109298188612b07565b905015156103d9565b63492f620d60e01b8852600488fd5b6337e80e8160e21b8752600487fd5b507f00000000000000000000000000000000000000000000000000000000000000006103a3565b50346103145760203660031901126103145761099161291f565b6004546001600160a01b03163303610a28576103e861ffff821611610a195763ffff0000600c54917f796bb81a3ac5b659665916dc75398afb2f1489ae97208393f7f21fcf638e8a7b60405180610a038461ffff8860101c168390929161ffff60209181604085019616845216910152565b0390a160101b169063ffff0000191617600c5580f35b63cd4e616760e01b8252600482fd5b6282b42960e81b8252600482fd5b503461031457602036600319011261031457610a5061291f565b6004546001600160a01b03163303610a2857600c5490612710610a7e61ffff831661ffff8560201c16612afa565b11610ad9576040805161ffff603085901c811682528316602082015261ffff60301b92917fbf832f0e179e869afb0f69ea44b74fc0cbcc8837b9870e8dcf7f7390dcd2505a91a160301b169061ffff60301b191617600c5580f35b63cd4e616760e01b8352600483fd5b503461031457602036600319011261031457610b026128b8565b6004546001600160a01b03163303610a28576001600160a01b03168015610b6657600554816001600160a01b0382167faaebcf1bfa00580e41d966056b48521fa9f202645c86d4ddf28113e617c1b1d38580a36001600160a01b0319161760055580f35b63d92e233d60e01b8252600482fd5b503461031457806003193601126103145760206040517f3a16219d06af018ad9787d0dcfcc281b004cb45454d560c61c3bc3288717ed648152f35b503461031457604036600319011261031457610bf4600435610bd06128ce565b90610bef610bea825f526003602052600160405f20015490565b61300f565b612f4f565b5080f35b503461031457806003193601126103145760206040516102008152f35b503461031457604036600319011261031457610c2f6128b8565b610c37612910565b6004549091906001600160a01b03163303610c78576001600160a01b03168252600660205260408220805491151560ff1660ff199290921691909117905580f35b6282b42960e81b8352600483fd5b5034610314578060031936011261031457600c546040805191901c6001600160a01b03168152602090f35b503461031457602036600319011261031457610ccb61291f565b6004546001600160a01b03163303610a285761ffff81169060058211610ad957600c546040805161ffff808416825293909316602084015290917f740c4f8812f57c051142b386664c613b7140458e4fd9420eda309b6d0ad319099190a161ffff191617600c5580f35b503461031457806024602060ff6040610d69610de9610d5336612941565b90610d62979397959295613049565b8588613b11565b99919590948688610d7981612ac5565b92610de28c820184610da7610d8d83612ac5565b89870135809960608901359460209386948b0135926137c8565b96610db4888887896133d7565b6001600160a01b038a168d52600e6020529a909b2054999b9099161580610ec5575b610e6f575b5050612ac5565b903561363b565b80610e58575b610e3b575b506001600160a01b0390610e0790612ac5565b16604051928380926370a0823160e01b82523060048301525afa9081156107065783916106d05750036106c1576001815580f35b610e5290610e4c6080840184612b07565b91613352565b5f610df4565b50610e666080830183612b07565b90501515610def565b895f80516020614434833981519152610e8788612ac5565b93610e9186612ac5565b6005546040516001600160a01b039283169783169690938493610ebb934293911691908f86612b39565b0390a45f80610ddb565b50610ed08282612afa565b1515610dd6565b5034610314578060031936011261031457602060ff600754166040519015158152f35b503461031457602036600319011261031457610f146128b8565b6004546001600160a01b03163303610a285760018060a01b03166bffffffffffffffffffffffff60a01b600a541617600a5580f35b503461031457602036600319011261031457610f636128b8565b6004546001600160a01b03163303610a28576001600160a01b03811615610b6657600c805468010000000000000000600160e01b03191660409290921b68010000000000000000600160e01b031691909117905580f35b5034610314578060031936011261031457602090604051908152f35b50346103145760a0366003190112610314576004356001600160401b0381116114b1578060040161010060031983360301126114105760443560ff81168091036114ad57611022613049565b61102b82612ac5565b91602484013593849361104b604483013591826064850135978892613742565b60a482016001600160a01b0361106082612ac5565b16156114855761106f90612ac5565b945b6001600160a01b0386169182156114765760848401936102006110948688612b07565b90501161146757873b159687159780611453575b6114445760ff600754168061143d575b80611426575b611418578a9291906001600160a01b036110d789612ac5565b1690813b1561141457849060e48d83604051958694859363d505accf60e01b855233600486015230602486015260448501526024356064850152608484015260643560a484015260843560c48401525af180156113f0576113fb575b5060249960206001600160a01b0361114a8a612ac5565b166040519c8d80926370a0823160e01b82523060048301525afa9a8b156113f057849b6113b5575b5082918891868c9533928761118687612ac5565b94611190956137c8565b9061119b8984612b07565b36906111a692612b86565b80519060200120967f00000000000000000000000000000000000000000000000000000000000000009060c483019589858a858b6111e38c612bbc565b61ffff166111f08c612ac5565b9960e4019986866112008d612bcb565b9261ffff87169561121096613978565b9e8f908352600e6020528c86828d604087205460ff1615806113a3575b611356575b5050505061123f8c612bbc565b906112498a612bcb565b90336112559385612a53565b9961125f90612ac5565b8c6112698d612bbc565b6112728b612bcb565b90604051948594600160a01b6001900316988b8b339a6112929789612bdf565b037fa6751dcd0f6b9669eceaf240a62b80995af3ce6972edc604e9d1316d5ff59aa591a46112bf8d612ac5565b966112c990612bbc565b936112d390612bcb565b94604051988998336112e5998b612c2e565b037f79397877f6a58588f65d6e8255514411fe780cf88a68c210c2b7c3afe895119891a460249360209380611342575b61132e575b506001600160a01b0391610e079150612ac5565b610e4c61133b9284612b07565b5f8061131a565b5061134d8284612b07565b90501515611315565b61136d5f8051602061443483398151915291612ac5565b938b61139760018060a01b036005541692604051938493339960018060a01b031698429386612b39565b0390a48c86828d611232565b506113ae8b84612afa565b151561122d565b93509950906020833d6020116113e8575b816113d360209383612a1e565b810103126106fa579151988a92919089611172565b3d91506113c6565b6040513d86823e3d90fd5b611406848092612a1e565b611410575f611133565b8280fd5b8480fd5b62b8dfab60e11b8b5260048bfd5b50848b52600660205260ff60408c205416156110be565b50876110b8565b633390d76b60e01b8b5260048bfd5b5061145e8688612b07565b905015156110a8565b63492f620d60e01b8a5260048afd5b6337e80e8160e21b8952600489fd5b507f000000000000000000000000000000000000000000000000000000000000000094611071565b8380fd5b5080fd5b5034610314578060031936011261031457602061ffff600c5460101c16604051908152f35b50346103145760403660031901126103145760406114f66128ce565b9160043581526003602052209060018060a01b03165f52602052602060ff60405f2054166040519015158152f35b50346103145780600319360112610314576115c4906115627f0000000000000000000000000000000000000000000000000000000000000000613fb7565b9061158c7f00000000000000000000000000000000000000000000000000000000000000006140dd565b9060206115d2604051936115a08386612a1e565b8385525f368137604051968796600f60f81b885260e08589015260e08801906129fa565b9086820360408801526129fa565b904660608601523060808601528260a086015284820360c08601528080855193848152019401925b82811061160957505050500390f35b8351855286955093810193928101926001016115fa565b50346103145760203660031901126103145761163a61291f565b6004546001600160a01b03163303610a2857600c549061271061166861ffff8460301c1661ffff8416612afa565b11610ad9576040805161ffff602085811c821683529084169082015265ffff0000000092917f9de0ed39a415d64d485874d8b01c6ee5e8b938fdb82e22892cf257c2f0b83abf91a160201b169065ffff00000000191617600c5580f35b50346103145760203660031901126103145760209060ff906040906001600160a01b036116f06128b8565b168152600684522054166040519015158152f35b503461031457611713366129c6565b9061171c613049565b61172582612ac5565b60208301358361174360408396013593846060840135978892613742565b60a081016001600160a01b0361175882612ac5565b161561192e5761176790612ac5565b925b6001600160a01b038416801561191f57608083019161020061178b8486612b07565b90501161191057853b1594851595806118fc575b6118ed5760ff60075416806118e6575b806118cf575b6118c157969760249789919060206001600160a01b036117d489612ac5565b166040519b8c80926370a0823160e01b82523060048301525afa998a1561070657839a611888575b5090868992828661180c84612ac5565b928633611818956137c8565b6118228883612b07565b369061182d92612b86565b80519060200120957f000000000000000000000000000000000000000000000000000000000000000060c084019461186486612bbc565b61ffff169289858a858b6118778b612ac5565b9860e08c019986866112008d612bcb565b91925098506020813d6020116118b9575b816118a660209383612a1e565b810103126106fa575197899190866117fc565b3d9150611899565b62b8dfab60e11b8852600488fd5b50828852600660205260ff604089205416156117b5565b50856117af565b633390d76b60e01b8852600488fd5b506119078486612b07565b9050151561179f565b63492f620d60e01b8752600487fd5b6337e80e8160e21b8652600486fd5b507f000000000000000000000000000000000000000000000000000000000000000092611769565b5034610314576020366003190112610314576119706128b8565b6004546001600160a01b03811691338390036119dc576001600160a01b03169182156119cd5782907f101b8081ff3b56bbf45deb824d86a3b0fd38b7e3dd42421105cf8abe9106db0b8580a36001600160a01b0319161760045580f35b63d92e233d60e01b8452600484fd5b6282b42960e81b8452600484fd5b503461031457604036600319011261031457611a046128b8565b611a0c612910565b90611a15612fd3565b6001600160a01b0316908115611a755760207faeafc02bad7e9280d128a57ecddd5d8921b5eed8980ec08226eff9fc6a4eeeb591838552600e8252611a6981604087209060ff801983541691151516179055565b6040519015158152a280f35b60405162461bcd60e51b815260206004820152600b60248201526a1e995c9bc81d185c99d95d60aa1b6044820152606490fd5b50346103145760203660031901126103145760ff60406020926004358152600884522054166040519015158152f35b50346103145760203660031901126103145760209060ff906040906001600160a01b03611b026128b8565b168152600b84522054166040519015158152f35b5034610314576020366003190112610314577fcf9c2c7f9adbb156bd76affb04df84595f8f5e69cab2e61221b05b05a902fa266020611b536128b8565b611b5b612fd3565b611b6481612d1d565b506040516001600160a01b039091168152a180f35b50346103145761010036600319011261031457602435611b976128e4565b6064356001600160a01b0381169182820361141457611bb46128fa565b505f805160206143f48339815191528552600360209081526040808720335f908152925290205460ff1615611d2757338552600b60205260ff604086205416611d1857611bff613049565b838552600960205260ff604086205416611d0957838552600960205260408520805460ff191660011790558215611cfa576001600160a01b031690611c489060a43590836131a5565b600c54906040519261ffff7f00000000000000000000000000000000000000000000000000000000000000001684523060208501526040840152606083015260c435608083015260e43560a083015261ffff8160201c1660c083015261ffff8160301c1660e083015260018060a01b039060401c16610100820152426101208201527fe682966dd850bccb3d87e1b88d0a19409d64dd78ae2f38748b692de55ed9261961014060043592a36001815580f35b63d92e233d60e01b8552600485fd5b63b5ab1f3f60e01b8552600485fd5b633296584d60e01b8552600485fd5b63f521d15960e01b8552600485fd5b50346103145760203660031901126103145760ff60406020926004358152600984522054166040519015158152f35b5034610314576020366003190112610314577fdf980d21d8c7bb34800e668dbe003299093bac8e693614151d3c57f73f98a93d6020611da26128b8565b611daa612fd3565b611b6481612ebe565b5034610314578060031936011261031457602060405160058152f35b50346106fa5760e03660031901126106fa57600435906001600160401b0382116106fa578160040161010060031984360301126106fa576064358015158091036106fa576084359160ff83168093036106fa57611e2a613049565b611e3381612ac5565b92602486013580611e516044890135968760648b0135938492613742565b60a488016001600160a01b03611e6682612ac5565b1615611fed57611e7590612ac5565b955b6001600160a01b038716928315611fde5760848a0194610200611e9a8789612b07565b905011611fcf57883b159788159880611fbb575b611fac5760ff6007541680611fa5575b80611f8e575b611f80576001600160a01b03611ed989612ac5565b1691823b156106fa576101045f928360405195869485936323f2ebc360e21b855233600486015230602486015260243560448601526044356064860152608485015260a484015260a43560c484015260c43560e48401525af18015611f7557611f5a575b5097986024988a92919060206001600160a01b0361114a8a612ac5565b602499505f611f6b91939293612a1e565b5f98919091611f3d565b6040513d5f823e3d90fd5b62b8dfab60e11b5f5260045ffd5b50855f52600660205260ff60405f20541615611ec4565b5088611ebe565b633390d76b60e01b5f5260045ffd5b50611fc68789612b07565b90501515611eae565b63492f620d60e01b5f5260045ffd5b6337e80e8160e21b5f5260045ffd5b507f000000000000000000000000000000000000000000000000000000000000000095611e77565b346106fa575f3660031901126106fa57602061ffff600c5460301c16604051908152f35b346106fa575f3660031901126106fa576005546040516001600160a01b039091168152602090f35b346106fa5760203660031901126106fa576004358015158091036106fa576004546001600160a01b031633036120a35760ff8019600754169116176007555f80f35b6282b42960e81b5f5260045ffd5b346106fa575f3660031901126106fa57602061ffff600c54821c16604051908152f35b346106fa5760403660031901126106fa576120ed6128ce565b336001600160a01b0382160361210b5761210990600435612f4f565b005b63334bd91960e11b5f5260045ffd5b346106fa5761213e61212b36612941565b90612137949294613049565b8484613b11565b93908015806124af575b611fac576001600160a01b0361215d85612ac5565b1692602083019261216d84612ac5565b61217f60208801358092309089613067565b6040516370a0823160e01b81523060048201526020816024818a5afa8015611f75578983915f90612477575b6121b6929350612ad9565b03612468576001600160a01b0383165f818152600e602052604090205490969060ff161561239d57509361226d93610de293886020989460249a98935b612208846001600160a01b036104b186612ac5565b61221e85856001600160a01b036104cd87612ac5565b80612386575b61236a575b61223e836001600160a01b036104b185612ac5565b61224a848483856133d7565b98919690975f52600e8c5260ff60405f2054161580612350575b6122f457612ac5565b6001600160a01b039061227f90612ac5565b16604051928380926370a0823160e01b82523060048301525afa908115611f75575f916122c2575b50036122b35760015f55005b634fb8fb6360e01b5f5260045ffd5b90506020813d6020116122ec575b816122dd60209383612a1e565b810103126106fa5751826122a7565b3d91506122d0565b6122fd84612ac5565b61230682612ac5565b600554604080516001600160a01b03938416948416938d935f8051602061443483398151915293839261234892429291169060608e0135908e01358f86612b39565b0390a4612ac5565b5061236360608501356040860135612afa565b1515612264565b61238161237a6080840184612b07565b9085613352565b612229565b506123946080830183612b07565b90501515612224565b906060880135916123b28360408b0135612afa565b9261ffff600c5460101c1680612443575b5050826123ed575b5093610de29388602098946123e760249b999561226d99612ad9565b936121f3565b969297959194909360018060a01b03600554168015612434576024996123e788610de29861242261226d9b8d9660209f6131a5565b959950959950509498509850936123cb565b63d92e233d60e01b5f5260045ffd5b61244d90846130b2565b10612459578a806123c3565b63cd4e616760e01b5f5260045ffd5b639bfa3c1760e01b5f5260045ffd5b5050506020813d6020116124a7575b8161249360209383612a1e565b810103126106fa5751819081908a906121ab565b3d9150612486565b506124bd6080850185612b07565b90501515612148565b346106fa575f3660031901126106fa57602061ffff600c5416604051908152f35b346106fa5760203660031901126106fa576001600160a01b036125086128b8565b165f52600e602052602060ff60405f2054166040519015158152f35b346106fa5760a03660031901126106fa5761253d61291f565b612545612930565b61254d6128e4565b91608435906001600160401b03821682036106fa576020936125729360643592612a53565b604051908152f35b346106fa5760403660031901126106fa576121096004356125996128ce565b906125b3610bea825f526003602052600160405f20015490565b612db0565b346106fa575f3660031901126106fa57600d546040516001600160a01b039091168152602090f35b346106fa5760203660031901126106fa5760206125726004355f526003602052600160405f20015490565b346106fa5760403660031901126106fa577fed99d7f973907d796aba0d6dc27115925d06d1098e4c5c61ec36b7c49b1b369360406126476128b8565b61264f612910565b90612658612fd3565b6001600160a01b03165f818152600b602052839020805460ff191660ff8415151617905590825191825215156020820152a1005b346106fa5760203660031901126106fa576126a56128b8565b6004546001600160a01b031690338290036120a3576001600160a01b031690811561243457600d80546001600160a01b031916831790557ffd22260ca7b3d2a5f6332770491ab546b6235bc73909c334f5e304d2fae455b15f80a3005b346106fa575f3660031901126106fa57602060405161ffff7f0000000000000000000000000000000000000000000000000000000000000000168152f35b346106fa575f3660031901126106fa57600d546001600160a01b038116338190036120a357600480546001600160a01b031980821684179092559216600d556001600160a01b039091169061279490612c94565b5061279e81612e3c565b506004546001600160a01b0316907f101b8081ff3b56bbf45deb824d86a3b0fd38b7e3dd42421105cf8abe9106db0b5f80a3005b346106fa575f3660031901126106fa57600a546040516001600160a01b039091168152602090f35b346106fa575f3660031901126106fa5760206040515f805160206143f48339815191528152f35b346106fa575f3660031901126106fa576040517f00000000000000000000000000000000000000000000000000000000000000006001600160a01b03168152602090f35b346106fa5760203660031901126106fa576004359063ffffffff60e01b82168092036106fa57602091637965db0b60e01b81149081156128a7575b5015158152f35b6301ffc9a760e01b149050836128a0565b600435906001600160a01b03821682036106fa57565b602435906001600160a01b03821682036106fa57565b604435906001600160a01b03821682036106fa57565b608435906001600160a01b03821682036106fa57565b6024359081151582036106fa57565b6004359061ffff821682036106fa57565b6024359061ffff821682036106fa57565b906101a06003198301126106fa576004356001600160401b0381116106fa5761010081840360031901126106fa57600401916101606023198201126106fa57602491610184356001600160401b0381116106fa57826023820112156106fa578060040135926001600160401b0384116106fa57602484830101116106fa576024019190565b60206003198201126106fa57600435906001600160401b0382116106fa576101009082900360031901126106fa5760040190565b805180835260209291819084018484015e5f828201840152601f01601f1916010190565b90601f801991011681019081106001600160401b03821117612a3f57604052565b634e487b7160e01b5f52604160045260245ffd5b939192909260405193602085019561ffff60f01b9060f01b16865261ffff60f01b9060f01b1660228501526bffffffffffffffffffffffff199060601b16602484015260388301526001600160401b0360c01b9060c01b16605882015260408152612abf606082612a1e565b51902090565b356001600160a01b03811681036106fa5790565b91908203918211612ae657565b634e487b7160e01b5f52601160045260245ffd5b91908201809211612ae657565b903590601e19813603018212156106fa57018035906001600160401b0382116106fa576020019181360383136106fa57565b6001600160a01b0391821681526020810192909252604082019290925291166060820152608081019190915260a00190565b6001600160401b038111612a3f57601f01601f191660200190565b929192612b9282612b6b565b91612ba06040519384612a1e565b8294818452818301116106fa578281602093845f960137010152565b3561ffff811681036106fa5790565b356001600160401b03811681036106fa5790565b9691956001600160401b039561ffff949585939b9a9660e0996101008c019d60018060a01b03168c5260208c015260408b015260608a015260808901521660a08701521660c085015216910152565b9081526001600160a01b03918216602082015291811660408301529091166060820152608081019190915260a081019190915260c081019190915261ffff91821660e082015291166101008201526001600160401b039091166101208201526101400190565b6001600160a01b0381165f9081525f80516020614454833981519152602052604090205460ff16612d18576001600160a01b03165f8181525f8051602061445483398151915260205260408120805460ff191660011790553391907f2f8788117e7eff1d82e926ec794901d17c78024a50270940304540a733656f0d8180a4600190565b505f90565b6001600160a01b0381165f9081525f80516020614414833981519152602052604090205460ff16612d18576001600160a01b03165f8181525f8051602061441483398151915260205260408120805460ff191660011790553391905f805160206143f4833981519152907f2f8788117e7eff1d82e926ec794901d17c78024a50270940304540a733656f0d9080a4600190565b5f8181526003602090815260408083206001600160a01b038616845290915290205460ff16612e36575f8181526003602090815260408083206001600160a01b0395909516808452949091528120805460ff19166001179055339291907f2f8788117e7eff1d82e926ec794901d17c78024a50270940304540a733656f0d9080a4600190565b50505f90565b6001600160a01b0381165f9081525f80516020614454833981519152602052604090205460ff1615612d18576001600160a01b03165f8181525f8051602061445483398151915260205260408120805460ff191690553391907ff6391f5c32d9c69d2a47ea670b442974b53935d1edc7fd64eb21e047a839171b8180a4600190565b6001600160a01b0381165f9081525f80516020614414833981519152602052604090205460ff1615612d18576001600160a01b03165f8181525f8051602061441483398151915260205260408120805460ff191690553391905f805160206143f4833981519152907ff6391f5c32d9c69d2a47ea670b442974b53935d1edc7fd64eb21e047a839171b9080a4600190565b5f8181526003602090815260408083206001600160a01b038616845290915290205460ff1615612e36575f8181526003602090815260408083206001600160a01b0395909516808452949091528120805460ff19169055339291907ff6391f5c32d9c69d2a47ea670b442974b53935d1edc7fd64eb21e047a839171b9080a4600190565b335f9081525f80516020614454833981519152602052604090205460ff1615612ff857565b63e2517d3f60e01b5f52336004525f60245260445ffd5b5f81815260036020908152604080832033845290915290205460ff16156130335750565b63e2517d3f60e01b5f523360045260245260445ffd5b60025f54146130585760025f55565b633ee5aeb560e01b5f5260045ffd5b6040516323b872dd60e01b60208201526001600160a01b0392831660248201529290911660448301526064808301939093529181526130b0916130ab608483612a1e565b613f5f565b565b9091905f905f1984820990848102928380841093039280840393146131295782612710111561311757507fbc01a36e2eb1c432ca57a786c226809d495182a9930be0ded288ce703afb7e919394612710910990828211900360fc1b910360041c170290565b634e487b71905260116020526024601cfd5b5050506127109192500490565b905f5f1960058409600584029182808310920391808303921461319a57816127101115613117575061271060057fbc01a36e2eb1c432ca57a786c226809d495182a9930be0ded288ce703afb7e9194950990828211900360fc1b910360041c170290565b505061271090049150565b60405163a9059cbb60e01b60208201526001600160a01b039290921660248301526044808301939093529181526130b0916130ab606483612a1e565b6040519060205f8184019463095ea7b360e01b865260018060a01b0316948560248601528160448601526044855261321a606486612a1e565b84519082855af15f513d8261326e575b50501561323657505050565b6130ab6130b0936040519063095ea7b360e01b602083015260248201525f604482015260448152613268606482612a1e565b82613f5f565b90915061328b57506001600160a01b0381163b15155b5f8061322a565b600114613284565b60405163095ea7b360e01b60208083019182526001600160a01b0385166024840152604480840196909652948252929390925f906132d2606486612a1e565b84519082855af15f513d8261332d575b5050156132ee57505050565b60405163095ea7b360e01b60208201526001600160a01b0390931660248401525f60448085019190915283526130b0926130ab90613268606482612a1e565b90915061334a57506001600160a01b0381163b15155b5f806132e2565b600114613343565b5f92838093826040519384928337810182815203925af13d156133d2573d61337981612b6b565b906133876040519283612a1e565b81525f60203d92013e5b1561339857565b60405162461bcd60e51b81526020600482015260126024820152711d185c99d95d0818d85b1b0819985a5b195960721b6044820152606490fd5b613391565b929391906133f26133eb6080860186612b07565b3691612b86565b60208151910120947f00000000000000000000000000000000000000000000000000000000000000009260c086019561342a87612bbc565b60e085016001600160a01b0361343f82612ac5565b16156136345761344e90612ac5565b8961345884612ac5565b9360e0019561346687612bcb565b926040519560208701976001600160401b0360c01b61ffff60c01b8d60c01b1616895260088852613498602889612a1e565b604051926020840191600160a01b60019003168252602084526134bc604085612a1e565b6040516020810191600160a01b60019003168252602081526134df604082612a1e565b604051926020840194600160a01b6001900316855260208452613503604085612a1e565b60405195602087019788526020875261351d604088612a1e565b6040519860208a01526020895261353560408a612a1e565b60405160c09a909a1b6001600160c01b03191660208b015260088a5261355c60288b612a1e565b60405160c09b909b1b61ffff60c01b1660208c015260088b5261358060288c612a1e565b6040519c8d809d519160208392015e8c019060208201905f8252519283915e01602001905f8252518092825e01905f8252518092825e01905f8252518092825e015f815281516020819301825e015f815281516020819301825e015f815281516020819301825e015f815203601f19810182526135fd9082612a1e565b8051906020012090819561361090612bbc565b9260200161361d90612ac5565b9061362790612bcb565b9261363194612a53565b90565b505f61344e565b9482819798939594929461364e82612ac5565b9060408301359087818b846060880135968a7f00000000000000000000000000000000000000000000000000000000000000009a8a60c08d9c0161369190612bbc565b9060e0019c61369f8e612bcb565b6040516001600160a01b039687169a90961698959687966136c7969295928f92919089612bdf565b037fa6751dcd0f6b9669eceaf240a62b80995af3ce6972edc604e9d1316d5ff59aa591a46136f489612ac5565b9860c00161370190612bbc565b9461370b90612bcb565b95604051998a9961371c998b612c2e565b037f79397877f6a58588f65d6e8255514411fe780cf88a68c210c2b7c3afe895119891a4565b9091906001600160a01b0316156137b95781156137aa57816137648483612afa565b1161379b5761377282613136565b106124595761ffff600c5460101c168061378b57505050565b613794916130b2565b1061245957565b631f656da960e31b5f5260045ffd5b631f2a200560e01b5f5260045ffd5b635d1a467d60e11b5f5260045ffd5b6040516370a0823160e01b8152306004820152929593946001600160a01b03909116939092909190602081602481885afa908115611f755786905f92613942575b506138179192309087613067565b6040516370a0823160e01b815230600482015290602082602481885afa8015611f755786925f91613909575b509061384e91612ad9565b03612468576001600160a01b0385165f908152600e602052604090205460ff166138fb5761ffff600c5460101c16806138e5575b5061388d9082612afa565b9061389784613136565b1061245957806138b7575b6138af9061363193612ad9565b9283916131a5565b6005546001600160a01b031690811561243457613631936138dc826138af94866131a5565b935090506138a2565b6138ef90856130b2565b8111612459575f613882565b5050908092613631926131a5565b919250506020813d60201161393a575b8161392660209383612a1e565b810103126106fa575185919061384e613843565b3d9150613919565b9150506020813d602011613970575b8161395e60209383612a1e565b810103126106fa575185613817613809565b3d9150613951565b9593919492906040519560208701976001600160401b0360c01b9060c01b168852600887526139a8602888612a1e565b604080516001600160a01b0390931660208085019182528452906139cc9084612a1e565b60405160208101905f8252602081526139e6604082612a1e565b604051926020840194600160a01b6001900316855260208452613a0a604085612a1e565b604051956020870197885260208752613a24604088612a1e565b6040519860208a015260208952613a3c60408a612a1e565b60405160c09a909a1b6001600160c01b03191660208b015260088a52613a6360288b612a1e565b60405160c09b909b1b6001600160c01b03191660208c015260088b52613a8a60288c612a1e565b6040519c8d809d519160208392015e8c019060208201905f8252519283915e01602001905f8252518092825e01905f8252518092825e01905f8252518092825e015f815281516020819301825e015f815281516020819301825e015f815281516020819301825e015f815203601f1981018252613b079082612a1e565b8051906020012090565b929093916101008501354211613f515761012085013515611fcf57613c60613c5a613c69926042613b4460208a01612ac5565b613b5060408b01612ac5565b6001600160401b038b613b6560c08201612bbc565b61ffff613b7460e08401612ac5565b9160a0613b846101408601612bcb565b946040519760208901997f3a16219d06af018ad9787d0dcfcc281b004cb45454d560c61c3bc3288717ed648b52823560408b0152600180851b031660608a0152600180841b03166080890152606081013582890152608081013560c0890152013560e08701521661010085015260018060a01b03166101208401526101008d01356101408401526101208d0135610160840152166101808201526101808152613c2f6101a082612a1e565b519020613c3a6141ad565b906040519161190160f01b83526002830152602282015220943691612b86565b836142c3565b909291926142fd565b6001600160a01b03613c7d60208701612ac5565b166001600160a01b0390911603613f4257805f52600860205260ff60405f205416613f3357805f52600860205260405f20600160ff1982541617905560018060a01b03613ccc60208601612ac5565b16908435907fc5ed249093f8d64f17d4fb48f4b496739452ba98ce23e3a1ba8dfcacc4b326d95f80a4613d0160408401612ac5565b6001600160a01b03613d1284612ac5565b166001600160a01b0390911603613ea7576020820135606084013503613ea7576040820135608084013503613ea757606082013560a084013503613ea757613d5c60c08401612bbc565b61ffff80613d6c60c08601612bbc565b16911603613ea7576080820192613d866133eb8585612b07565b6020815191012061012082013503613ea75760a083016001600160a01b03613dad82612ac5565b1615613f0b57613dbc90612ac5565b905b6001600160a01b0382168015611fde57610200613ddb8787612b07565b905011611fcf57823b1580159681613ef6575b50611fac5760ff6007541680613eef575b80613ed8575b611f80576001600160a01b03613e1d60e08401612ac5565b1615159182613eb6575b5050613ea7576024926020906001600160a01b0390613e4590612ac5565b16604051948580926370a0823160e01b82523060048301525afa928315611f75575f93613e73575b50929190565b9092506020813d602011613e9f575b81613e8f60209383612a1e565b810103126106fa5751915f613e6d565b3d9150613e82565b6355afbcf160e11b5f5260045ffd5b9091506001600160a01b0390613ece9060e001612ac5565b1614155f80613e27565b50805f52600660205260ff60405f20541615613e05565b5085613dff565b613f01915086612b07565b905015155f613dee565b507f000000000000000000000000000000000000000000000000000000000000000090613dbe565b63110ea83560e31b5f5260045ffd5b638baa579f60e01b5f5260045ffd5b62202b7560e21b5f5260045ffd5b905f602091828151910182855af115611f75575f513d613fae57506001600160a01b0381163b155b613f8e5750565b635274afe760e01b5f9081526001600160a01b0391909116600452602490fd5b60011415613f87565b60ff8114613ffd5760ff811690601f8211613fee5760405191613fdb604084612a1e565b6020808452838101919036833783525290565b632cd44ac360e21b5f5260045ffd5b506040515f6001548060011c91600182169182156140d3575b6020841083146140bf5783855284929081156140a05750600114614041575b61363192500382612a1e565b5060015f90815290917fb10e2d527612073b26eecdfd717e6a320cf44b4afac2b0732d9fcbe2b7fa0cf65b81831061408457505090602061363192820101614035565b602091935080600191548385880101520191019091839261406c565b6020925061363194915060ff191682840152151560051b820101614035565b634e487b7160e01b5f52602260045260245ffd5b92607f1692614016565b60ff81146141015760ff811690601f8211613fee5760405191613fdb604084612a1e565b506040515f6002548060011c91600182169182156141a3575b6020841083146140bf5783855284929081156140a057506001146141445761363192500382612a1e565b5060025f90815290917f405787fa12a823e0f2b7631cc41b3ba8828b3321ca811111fa75cd3aa3bb5ace5b81831061418757505090602061363192820101614035565b602091935080600191548385880101520191019091839261416f565b92607f169261411a565b307f00000000000000000000000000000000000000000000000000000000000000006001600160a01b0316148061429a575b15614208577f000000000000000000000000000000000000000000000000000000000000000090565b60405160208101907f8b73c3c69bb8fe3d512ecc4cf759cc79239f7b179b0ffacaa9a75d522b39400f82527f000000000000000000000000000000000000000000000000000000000000000060408201527f000000000000000000000000000000000000000000000000000000000000000060608201524660808201523060a082015260a08152612abf60c082612a1e565b507f000000000000000000000000000000000000000000000000000000000000000046146141df565b81519190604183036142f3576142ec9250602082015190606060408401519301515f1a90614371565b9192909190565b50505f9160029190565b600481101561435d578061430f575050565b600181036143265763f645eedf60e01b5f5260045ffd5b60028103614341575063fce698f760e01b5f5260045260245ffd5b60031461434b5750565b6335e2f38360e21b5f5260045260245ffd5b634e487b7160e01b5f52602160045260245ffd5b91907f7fffffffffffffffffffffffffffffff5d576e7357a4501ddfe92f46681b20a084116143e8579160209360809260ff5f9560405194855216868401526040830152606082015282805260015afa15611f75575f516001600160a01b038116156143de57905f905f90565b505f906001905f90565b5050505f916003919056fedbeb657137b1822b3d5418bea6fd641226d964b4c3871ef23546db2622258871561badf8039e1997d45ac8a3b2b2b43f9c1cdeb14206c59b53a0c94e224a4bf0bab05983eace095d5b3b038cb120246aeb9ac331eb9a83be7dbe40f8147be0373617319a054d772f909f7c479a2cebe5066e836a939412e32403c99029b92effa264697066735822122070cf15a870a489448dcd37f9eb53cdccd262e1bab0a3ee40428b08173d8193ba64736f6c634300081a00333617319a054d772f909f7c479a2cebe5066e836a939412e32403c99029b92eff","linkReferences":{}},"methodIdentifiers":{"ADAPTER_ROLE()":"02a882e6","DEFAULT_ADMIN_ROLE()":"a217fddf","FEE_CAP_BPS()":"5382a911","MAX_PAYLOAD_BYTES()":"d31ecaa7","ROUTE_INTENT_TYPEHASH_PUBLIC()":"de3011e7","SRC_CHAIN_ID()":"1459dda2","acceptAdmin()":"0e18b681","adapter()":"03eadcfc","addAdapter(address)":"60d54d41","admin()":"f851a440","computeGlobalRouteId(uint16,uint16,address,bytes32,uint64)":"2f32ff62","defaultTarget()":"0215c402","delegateFeeToTarget(address)":"30b941a3","eip712Domain()":"84b0196e","enforceTargetAllowlist()":"b1d7d467","feeCollector()":"c415b95c","feeRecipient()":"46904840","finalizeMessage(bytes32,bytes32,address,address,address,uint256,uint256,uint256)":"5acd1e6b","freezeAdapter(address,bool)":"1f938923","frozenAdapter(address)":"61d1a0f1","getRoleAdmin(bytes32)":"248a9ca3","grantRole(bytes32,address)":"2f2ff15d","hasRole(bytes32,address)":"91d14854","isAllowedTarget(address)":"78addb48","lpShareBps()":"4c7ac03f","pendingAdmin()":"26782247","proposeAdmin(address)":"147bf6c4","protocolFeeBps()":"35659fb8","protocolShareBps()":"37ed3f1e","relayerFeeBps()":"93c79ba6","removeAdapter(address)":"585cd34b","renounceRole(bytes32,address)":"36568abe","revokeRole(bytes32,address)":"d547741f","setAdapter(address)":"ab1da79c","setAdmin(address)":"704b6c02","setAllowedTarget(address,bool)":"ca1dd22e","setDelegateFeeToTarget(address,bool)":"7045ab02","setEnforceTargetAllowlist(bool)":"462455d2","setFeeCollector(address)":"a42dce80","setFeeRecipient(address)":"e74b981b","setFeeSplit(uint16,uint16)":"f8978401","setLPShareBps(uint16)":"ea5acf02","setProtocolFeeBps(uint16)":"be37b12c","setProtocolShareBps(uint16)":"7e863a22","setRelayerFeeBps(uint16)":"ecaab861","supportsInterface(bytes4)":"01ffc9a7","universalBridgeApproveThenCall((address,uint256,uint256,uint256,bytes,address,uint16,uint64))":"f7bc2e78","universalBridgeApproveThenCallWithSig((address,uint256,uint256,uint256,bytes,address,uint16,uint64),(bytes32,address,address,uint256,uint256,uint256,uint16,address,uint256,bytes32,uint64),bytes)":"362d6cd4","universalBridgeTransfer((address,uint256,uint256,uint256,bytes,address,uint16,uint64))":"7143d818","universalBridgeTransferWithDAIPermit((address,uint256,uint256,uint256,bytes,address,uint16,uint64),uint256,uint256,bool,uint8,bytes32,bytes32)":"5248bb70","universalBridgeTransferWithPermit((address,uint256,uint256,uint256,bytes,address,uint16,uint64),uint256,uint8,bytes32,bytes32)":"9eead346","universalBridgeTransferWithSig((address,uint256,uint256,uint256,bytes,address,uint16,uint64),(bytes32,address,address,uint256,uint256,uint256,uint16,address,uint256,bytes32,uint64),bytes)":"b71351d6","usedIntents(bytes32)":"6336803b","usedMessages(bytes32)":"5a028400"},"id":1}