{"abi":[{"type":"constructor","inputs":[{"name":"_admin","type":"address","internalType":"address"},{"name":"_feeRecipient","type":"address","internalType":"address"},{"name":"_defaultTarget","type":"address","internalType":"address"},{"name":"_srcChainId","type":"uint16","internalType":"uint16"}],"stateMutability":"nonpayable"},{"type":"function","name":"ADAPTER_ROLE","inputs":[],"outputs":[{"name":"","type":"bytes32","internalType":"bytes32"}],"stateMutability":"view"},{"type":"function","name":"DEFAULT_ADMIN_ROLE","inputs":[],"outputs":[{"name":"","type":"bytes32","internalType":"bytes32"}],"stateMutability":"view"},{"type":"function","name":"FEE_CAP_BPS","inputs":[],"outputs":[{"name":"","type":"uint16","internalType":"uint16"}],"stateMutability":"view"},{"type":"function","name":"MAX_PAYLOAD_BYTES","inputs":[],"outputs":[{"name":"","type":"uint256","internalType":"uint256"}],"stateMutability":"view"},{"type":"function","name":"ROUTE_INTENT_TYPEHASH_PUBLIC","inputs":[],"outputs":[{"name":"","type":"bytes32","internalType":"bytes32"}],"stateMutability":"pure"},{"type":"function","name":"SRC_CHAIN_ID","inputs":[],"outputs":[{"name":"","type":"uint16","internalType":"uint16"}],"stateMutability":"view"},{"type":"function","name":"acceptAdmin","inputs":[],"outputs":[],"stateMutability":"nonpayable"},{"type":"function","name":"adapter","inputs":[],"outputs":[{"name":"","type":"address","internalType":"address"}],"stateMutability":"view"},{"type":"function","name":"addAdapter","inputs":[{"name":"a","type":"address","internalType":"address"}],"outputs":[],"stateMutability":"nonpayable"},{"type":"function","name":"admin","inputs":[],"outputs":[{"name":"","type":"address","internalType":"address"}],"stateMutability":"view"},{"type":"function","name":"computeGlobalRouteId","inputs":[{"name":"srcChainId","type":"uint16","internalType":"uint16"},{"name":"dstChainId","type":"uint16","internalType":"uint16"},{"name":"initiator","type":"address","internalType":"address"},{"name":"messageHash","type":"bytes32","internalType":"bytes32"},{"name":"nonce","type":"uint64","internalType":"uint64"}],"outputs":[{"name":"","type":"bytes32","internalType":"bytes32"}],"stateMutability":"pure"},{"type":"function","name":"defaultTarget","inputs":[],"outputs":[{"name":"","type":"address","internalType":"address"}],"stateMutability":"view"},{"type":"function","name":"delegateFeeToTarget","inputs":[{"name":"","type":"address","internalType":"address"}],"outputs":[{"name":"","type":"bool","internalType":"bool"}],"stateMutability":"view"},{"type":"function","name":"eip712Domain","inputs":[],"outputs":[{"name":"fields","type":"bytes1","internalType":"bytes1"},{"name":"name","type":"string","internalType":"string"},{"name":"version","type":"string","internalType":"string"},{"name":"chainId","type":"uint256","internalType":"uint256"},{"name":"verifyingContract","type":"address","internalType":"address"},{"name":"salt","type":"bytes32","internalType":"bytes32"},{"name":"extensions","type":"uint256[]","internalType":"uint256[]"}],"stateMutability":"view"},{"type":"function","name":"enforceTargetAllowlist","inputs":[],"outputs":[{"name":"","type":"bool","internalType":"bool"}],"stateMutability":"view"},{"type":"function","name":"feeCollector","inputs":[],"outputs":[{"name":"","type":"address","internalType":"address"}],"stateMutability":"view"},{"type":"function","name":"feeRecipient","inputs":[],"outputs":[{"name":"","type":"address","internalType":"address"}],"stateMutability":"view"},{"type":"function","name":"finalizeMessage","inputs":[{"name":"globalRouteId","type":"bytes32","internalType":"bytes32"},{"name":"messageHash","type":"bytes32","internalType":"bytes32"},{"name":"asset","type":"address","internalType":"address"},{"name":"vault","type":"address","internalType":"address"},{"name":"lpRecipient","type":"address","internalType":"address"},{"name":"amount","type":"uint256","internalType":"uint256"},{"name":"protocolFee","type":"uint256","internalType":"uint256"},{"name":"relayerFee","type":"uint256","internalType":"uint256"}],"outputs":[],"stateMutability":"nonpayable"},{"type":"function","name":"freezeAdapter","inputs":[{"name":"a","type":"address","internalType":"address"},{"name":"frozen","type":"bool","internalType":"bool"}],"outputs":[],"stateMutability":"nonpayable"},{"type":"function","name":"frozenAdapter","inputs":[{"name":"","type":"address","internalType":"address"}],"outputs":[{"name":"","type":"bool","internalType":"bool"}],"stateMutability":"view"},{"type":"function","name":"getRoleAdmin","inputs":[{"name":"role","type":"bytes32","internalType":"bytes32"}],"outputs":[{"name":"","type":"bytes32","internalType":"bytes32"}],"stateMutability":"view"},{"type":"function","name":"grantRole","inputs":[{"name":"role","type":"bytes32","internalType":"bytes32"},{"name":"account","type":"address","internalType":"address"}],"outputs":[],"stateMutability":"nonpayable"},{"type":"function","name":"hasRole","inputs":[{"name":"role","type":"bytes32","internalType":"bytes32"},{"name":"account","type":"address","internalType":"address"}],"outputs":[{"name":"","type":"bool","internalType":"bool"}],"stateMutability":"view"},{"type":"function","name":"isAllowedTarget","inputs":[{"name":"","type":"address","internalType":"address"}],"outputs":[{"name":"","type":"bool","internalType":"bool"}],"stateMutability":"view"},{"type":"function","name":"lpShareBps","inputs":[],"outputs":[{"name":"","type":"uint16","internalType":"uint16"}],"stateMutability":"view"},{"type":"function","name":"pendingAdmin","inputs":[],"outputs":[{"name":"","type":"address","internalType":"address"}],"stateMutability":"view"},{"type":"function","name":"proposeAdmin","inputs":[{"name":"p","type":"address","internalType":"address"}],"outputs":[],"stateMutability":"nonpayable"},{"type":"function","name":"protocolFeeBps","inputs":[],"outputs":[{"name":"","type":"uint16","internalType":"uint16"}],"stateMutability":"view"},{"type":"function","name":"protocolShareBps","inputs":[],"outputs":[{"name":"","type":"uint16","internalType":"uint16"}],"stateMutability":"view"},{"type":"function","name":"relayerFeeBps","inputs":[],"outputs":[{"name":"","type":"uint16","internalType":"uint16"}],"stateMutability":"view"},{"type":"function","name":"removeAdapter","inputs":[{"name":"a","type":"address","internalType":"address"}],"outputs":[],"stateMutability":"nonpayable"},{"type":"function","name":"renounceRole","inputs":[{"name":"role","type":"bytes32","internalType":"bytes32"},{"name":"callerConfirmation","type":"address","internalType":"address"}],"outputs":[],"stateMutability":"nonpayable"},{"type":"function","name":"revokeRole","inputs":[{"name":"role","type":"bytes32","internalType":"bytes32"},{"name":"account","type":"address","internalType":"address"}],"outputs":[],"stateMutability":"nonpayable"},{"type":"function","name":"setAdapter","inputs":[{"name":"a","type":"address","internalType":"address"}],"outputs":[],"stateMutability":"nonpayable"},{"type":"function","name":"setAdmin","inputs":[{"name":"newAdmin","type":"address","internalType":"address"}],"outputs":[],"stateMutability":"nonpayable"},{"type":"function","name":"setAllowedTarget","inputs":[{"name":"t","type":"address","internalType":"address"},{"name":"ok","type":"bool","internalType":"bool"}],"outputs":[],"stateMutability":"nonpayable"},{"type":"function","name":"setDelegateFeeToTarget","inputs":[{"name":"target","type":"address","internalType":"address"},{"name":"delegate","type":"bool","internalType":"bool"}],"outputs":[],"stateMutability":"nonpayable"},{"type":"function","name":"setEnforceTargetAllowlist","inputs":[{"name":"v","type":"bool","internalType":"bool"}],"outputs":[],"stateMutability":"nonpayable"},{"type":"function","name":"setFeeCollector","inputs":[{"name":"c","type":"address","internalType":"address"}],"outputs":[],"stateMutability":"nonpayable"},{"type":"function","name":"setFeeRecipient","inputs":[{"name":"newFeeRecipient","type":"address","internalType":"address"}],"outputs":[],"stateMutability":"nonpayable"},{"type":"function","name":"setFeeSplit","inputs":[{"name":"protocolShare","type":"uint16","internalType":"uint16"},{"name":"lpShare","type":"uint16","internalType":"uint16"}],"outputs":[],"stateMutability":"nonpayable"},{"type":"function","name":"setLPShareBps","inputs":[{"name":"bps","type":"uint16","internalType":"uint16"}],"outputs":[],"stateMutability":"nonpayable"},{"type":"function","name":"setProtocolFeeBps","inputs":[{"name":"bps","type":"uint16","internalType":"uint16"}],"outputs":[],"stateMutability":"nonpayable"},{"type":"function","name":"setProtocolShareBps","inputs":[{"name":"bps","type":"uint16","internalType":"uint16"}],"outputs":[],"stateMutability":"nonpayable"},{"type":"function","name":"setRelayerFeeBps","inputs":[{"name":"bps","type":"uint16","internalType":"uint16"}],"outputs":[],"stateMutability":"nonpayable"},{"type":"function","name":"supportsInterface","inputs":[{"name":"interfaceId","type":"bytes4","internalType":"bytes4"}],"outputs":[{"name":"","type":"bool","internalType":"bool"}],"stateMutability":"view"},{"type":"function","name":"universalBridgeApproveThenCall","inputs":[{"name":"a","type":"tuple","internalType":"struct Router.TransferArgs","components":[{"name":"token","type":"address","internalType":"address"},{"name":"amount","type":"uint256","internalType":"uint256"},{"name":"protocolFee","type":"uint256","internalType":"uint256"},{"name":"relayerFee","type":"uint256","internalType":"uint256"},{"name":"payload","type":"bytes","internalType":"bytes"},{"name":"target","type":"address","internalType":"address"},{"name":"dstChainId","type":"uint16","internalType":"uint16"},{"name":"nonce","type":"uint64","internalType":"uint64"}]}],"outputs":[],"stateMutability":"nonpayable"},{"type":"function","name":"universalBridgeApproveThenCallWithSig","inputs":[{"name":"a","type":"tuple","internalType":"struct Router.TransferArgs","components":[{"name":"token","type":"address","internalType":"address"},{"name":"amount","type":"uint256","internalType":"uint256"},{"name":"protocolFee","type":"uint256","internalType":"uint256"},{"name":"relayerFee","type":"uint256","internalType":"uint256"},{"name":"payload","type":"bytes","internalType":"bytes"},{"name":"target","type":"address","internalType":"address"},{"name":"dstChainId","type":"uint16","internalType":"uint16"},{"name":"nonce","type":"uint64","internalType":"uint64"}]},{"name":"intent","type":"tuple","internalType":"struct Router.RouteIntent","components":[{"name":"routeId","type":"bytes32","internalType":"bytes32"},{"name":"user","type":"address","internalType":"address"},{"name":"token","type":"address","internalType":"address"},{"name":"amount","type":"uint256","internalType":"uint256"},{"name":"protocolFee","type":"uint256","internalType":"uint256"},{"name":"relayerFee","type":"uint256","internalType":"uint256"},{"name":"dstChainId","type":"uint16","internalType":"uint16"},{"name":"recipient","type":"address","internalType":"address"},{"name":"expiry","type":"uint256","internalType":"uint256"},{"name":"payloadHash","type":"bytes32","internalType":"bytes32"},{"name":"nonce","type":"uint64","internalType":"uint64"}]},{"name":"signature","type":"bytes","internalType":"bytes"}],"outputs":[],"stateMutability":"nonpayable"},{"type":"function","name":"universalBridgeTransfer","inputs":[{"name":"a","type":"tuple","internalType":"struct Router.TransferArgs","components":[{"name":"token","type":"address","internalType":"address"},{"name":"amount","type":"uint256","internalType":"uint256"},{"name":"protocolFee","type":"uint256","internalType":"uint256"},{"name":"relayerFee","type":"uint256","internalType":"uint256"},{"name":"payload","type":"bytes","internalType":"bytes"},{"name":"target","type":"address","internalType":"address"},{"name":"dstChainId","type":"uint16","internalType":"uint16"},{"name":"nonce","type":"uint64","internalType":"uint64"}]}],"outputs":[],"stateMutability":"nonpayable"},{"type":"function","name":"universalBridgeTransferWithDAIPermit","inputs":[{"name":"a","type":"tuple","internalType":"struct Router.TransferArgs","components":[{"name":"token","type":"address","internalType":"address"},{"name":"amount","type":"uint256","internalType":"uint256"},{"name":"protocolFee","type":"uint256","internalType":"uint256"},{"name":"relayerFee","type":"uint256","internalType":"uint256"},{"name":"payload","type":"bytes","internalType":"bytes"},{"name":"target","type":"address","internalType":"address"},{"name":"dstChainId","type":"uint16","internalType":"uint16"},{"name":"nonce","type":"uint64","internalType":"uint64"}]},{"name":"permitNonce","type":"uint256","internalType":"uint256"},{"name":"expiry","type":"uint256","internalType":"uint256"},{"name":"allowed","type":"bool","internalType":"bool"},{"name":"v","type":"uint8","internalType":"uint8"},{"name":"r","type":"bytes32","internalType":"bytes32"},{"name":"s","type":"bytes32","internalType":"bytes32"}],"outputs":[],"stateMutability":"nonpayable"},{"type":"function","name":"universalBridgeTransferWithPermit","inputs":[{"name":"a","type":"tuple","internalType":"struct Router.TransferArgs","components":[{"name":"token","type":"address","internalType":"address"},{"name":"amount","type":"uint256","internalType":"uint256"},{"name":"protocolFee","type":"uint256","internalType":"uint256"},{"name":"relayerFee","type":"uint256","internalType":"uint256"},{"name":"payload","type":"bytes","internalType":"bytes"},{"name":"target","type":"address","internalType":"address"},{"name":"dstChainId","type":"uint16","internalType":"uint16"},{"name":"nonce","type":"uint64","internalType":"uint64"}]},{"name":"deadline","type":"uint256","internalType":"uint256"},{"name":"v","type":"uint8","internalType":"uint8"},{"name":"r","type":"bytes32","internalType":"bytes32"},{"name":"s","type":"bytes32","internalType":"bytes32"}],"outputs":[],"stateMutability":"nonpayable"},{"type":"function","name":"universalBridgeTransferWithSig","inputs":[{"name":"a","type":"tuple","internalType":"struct Router.TransferArgs","components":[{"name":"token","type":"address","internalType":"address"},{"name":"amount","type":"uint256","internalType":"uint256"},{"name":"protocolFee","type":"uint256","internalType":"uint256"},{"name":"relayerFee","type":"uint256","internalType":"uint256"},{"name":"payload","type":"bytes","internalType":"bytes"},{"name":"target","type":"address","internalType":"address"},{"name":"dstChainId","type":"uint16","internalType":"uint16"},{"name":"nonce","type":"uint64","internalType":"uint64"}]},{"name":"intent","type":"tuple","internalType":"struct Router.RouteIntent","components":[{"name":"routeId","type":"bytes32","internalType":"bytes32"},{"name":"user","type":"address","internalType":"address"},{"name":"token","type":"address","internalType":"address"},{"name":"amount","type":"uint256","internalType":"uint256"},{"name":"protocolFee","type":"uint256","internalType":"uint256"},{"name":"relayerFee","type":"uint256","internalType":"uint256"},{"name":"dstChainId","type":"uint16","internalType":"uint16"},{"name":"recipient","type":"address","internalType":"address"},{"name":"expiry","type":"uint256","internalType":"uint256"},{"name":"payloadHash","type":"bytes32","internalType":"bytes32"},{"name":"nonce","type":"uint64","internalType":"uint64"}]},{"name":"signature","type":"bytes","internalType":"bytes"}],"outputs":[],"stateMutability":"nonpayable"},{"type":"function","name":"usedIntents","inputs":[{"name":"","type":"bytes32","internalType":"bytes32"}],"outputs":[{"name":"","type":"bool","internalType":"bool"}],"stateMutability":"view"},{"type":"function","name":"usedMessages","inputs":[{"name":"","type":"bytes32","internalType":"bytes32"}],"outputs":[{"name":"","type":"bool","internalType":"bool"}],"stateMutability":"view"},{"type":"event","name":"AdapterAdded","inputs":[{"name":"adapter","type":"address","indexed":false,"internalType":"address"}],"anonymous":false},{"type":"event","name":"AdapterFrozen","inputs":[{"name":"adapter","type":"address","indexed":false,"internalType":"address"},{"name":"frozen","type":"bool","indexed":false,"internalType":"bool"}],"anonymous":false},{"type":"event","name":"AdapterRemoved","inputs":[{"name":"adapter","type":"address","indexed":false,"internalType":"address"}],"anonymous":false},{"type":"event","name":"AdminProposed","inputs":[{"name":"current","type":"address","indexed":true,"internalType":"address"},{"name":"proposed","type":"address","indexed":true,"internalType":"address"}],"anonymous":false},{"type":"event","name":"AdminUpdated","inputs":[{"name":"oldAdmin","type":"address","indexed":true,"internalType":"address"},{"name":"newAdmin","type":"address","indexed":true,"internalType":"address"}],"anonymous":false},{"type":"event","name":"BridgeInitiated","inputs":[{"name":"routeId","type":"bytes32","indexed":true,"internalType":"bytes32"},{"name":"user","type":"address","indexed":true,"internalType":"address"},{"name":"token","type":"address","indexed":true,"internalType":"address"},{"name":"target","type":"address","indexed":false,"internalType":"address"},{"name":"forwardedAmount","type":"uint256","indexed":false,"internalType":"uint256"},{"name":"","type":"uint256","indexed":false,"internalType":"uint256"},{"name":"relayerFee","type":"uint256","indexed":false,"internalType":"uint256"},{"name":"payloadHash","type":"bytes32","indexed":false,"internalType":"bytes32"},{"name":"srcChainId","type":"uint16","indexed":false,"internalType":"uint16"},{"name":"dstChainId","type":"uint16","indexed":false,"internalType":"uint16"},{"name":"nonce","type":"uint64","indexed":false,"internalType":"uint64"}],"anonymous":false},{"type":"event","name":"DelegateFeeSet","inputs":[{"name":"target","type":"address","indexed":true,"internalType":"address"},{"name":"delegate","type":"bool","indexed":false,"internalType":"bool"}],"anonymous":false},{"type":"event","name":"EIP712DomainChanged","inputs":[],"anonymous":false},{"type":"event","name":"FeeApplied","inputs":[{"name":"globalRouteId","type":"bytes32","indexed":true,"internalType":"bytes32"},{"name":"messageHash","type":"bytes32","indexed":true,"internalType":"bytes32"},{"name":"chainId","type":"uint16","indexed":false,"internalType":"uint16"},{"name":"router","type":"address","indexed":false,"internalType":"address"},{"name":"vault","type":"address","indexed":false,"internalType":"address"},{"name":"asset","type":"address","indexed":false,"internalType":"address"},{"name":"protocol_fee_native","type":"uint256","indexed":false,"internalType":"uint256"},{"name":"relayer_fee_native","type":"uint256","indexed":false,"internalType":"uint256"},{"name":"protocol_bps","type":"uint16","indexed":false,"internalType":"uint16"},{"name":"lp_bps","type":"uint16","indexed":false,"internalType":"uint16"},{"name":"collector","type":"address","indexed":false,"internalType":"address"},{"name":"applied_at","type":"uint256","indexed":false,"internalType":"uint256"}],"anonymous":false},{"type":"event","name":"FeeAppliedSource","inputs":[{"name":"messageHash","type":"bytes32","indexed":true,"internalType":"bytes32"},{"name":"asset","type":"address","indexed":true,"internalType":"address"},{"name":"payer","type":"address","indexed":true,"internalType":"address"},{"name":"target","type":"address","indexed":false,"internalType":"address"},{"name":"protocolFee","type":"uint256","indexed":false,"internalType":"uint256"},{"name":"relayerFee","type":"uint256","indexed":false,"internalType":"uint256"},{"name":"feeRecipient","type":"address","indexed":false,"internalType":"address"},{"name":"appliedAt","type":"uint256","indexed":false,"internalType":"uint256"}],"anonymous":false},{"type":"event","name":"FeeRecipientUpdated","inputs":[{"name":"oldFeeRecipient","type":"address","indexed":true,"internalType":"address"},{"name":"newFeeRecipient","type":"address","indexed":true,"internalType":"address"}],"anonymous":false},{"type":"event","name":"IntentConsumed","inputs":[{"name":"digest","type":"bytes32","indexed":true,"internalType":"bytes32"},{"name":"routeId","type":"bytes32","indexed":true,"internalType":"bytes32"},{"name":"user","type":"address","indexed":true,"internalType":"address"}],"anonymous":false},{"type":"event","name":"LPShareBpsUpdated","inputs":[{"name":"oldBps","type":"uint16","indexed":false,"internalType":"uint16"},{"name":"newBps","type":"uint16","indexed":false,"internalType":"uint16"}],"anonymous":false},{"type":"event","name":"ProtocolFeeBpsUpdated","inputs":[{"name":"oldBps","type":"uint16","indexed":false,"internalType":"uint16"},{"name":"newBps","type":"uint16","indexed":false,"internalType":"uint16"}],"anonymous":false},{"type":"event","name":"ProtocolShareBpsUpdated","inputs":[{"name":"oldBps","type":"uint16","indexed":false,"internalType":"uint16"},{"name":"newBps","type":"uint16","indexed":false,"internalType":"uint16"}],"anonymous":false},{"type":"event","name":"RelayerFeeBpsUpdated","inputs":[{"name":"oldBps","type":"uint16","indexed":false,"internalType":"uint16"},{"name":"newBps","type":"uint16","indexed":false,"internalType":"uint16"}],"anonymous":false},{"type":"event","name":"RoleAdminChanged","inputs":[{"name":"role","type":"bytes32","indexed":true,"internalType":"bytes32"},{"name":"previousAdminRole","type":"bytes32","indexed":true,"internalType":"bytes32"},{"name":"newAdminRole","type":"bytes32","indexed":true,"internalType":"bytes32"}],"anonymous":false},{"type":"event","name":"RoleGranted","inputs":[{"name":"role","type":"bytes32","indexed":true,"internalType":"bytes32"},{"name":"account","type":"address","indexed":true,"internalType":"address"},{"name":"sender","type":"address","indexed":true,"internalType":"address"}],"anonymous":false},{"type":"event","name":"RoleRevoked","inputs":[{"name":"role","type":"bytes32","indexed":true,"internalType":"bytes32"},{"name":"account","type":"address","indexed":true,"internalType":"address"},{"name":"sender","type":"address","indexed":true,"internalType":"address"}],"anonymous":false},{"type":"event","name":"UniversalBridgeInitiated","inputs":[{"name":"routeId","type":"bytes32","indexed":true,"internalType":"bytes32"},{"name":"payloadHash","type":"bytes32","indexed":true,"internalType":"bytes32"},{"name":"messageHash","type":"bytes32","indexed":true,"internalType":"bytes32"},{"name":"globalRouteId","type":"bytes32","indexed":false,"internalType":"bytes32"},{"name":"user","type":"address","indexed":false,"internalType":"address"},{"name":"token","type":"address","indexed":false,"internalType":"address"},{"name":"target","type":"address","indexed":false,"internalType":"address"},{"name":"forwardedAmount","type":"uint256","indexed":false,"internalType":"uint256"},{"name":"protocolFee","type":"uint256","indexed":false,"internalType":"uint256"},{"name":"relayerFee","type":"uint256","indexed":false,"internalType":"uint256"},{"name":"srcChainId","type":"uint16","indexed":false,"internalType":"uint16"},{"name":"dstChainId","type":"uint16","indexed":false,"internalType":"uint16"},{"name":"nonce","type":"uint64","indexed":false,"internalType":"uint64"}],"anonymous":false},{"type":"error","name":"AccessControlBadConfirmation","inputs":[]},{"type":"error","name":"AccessControlUnauthorizedAccount","inputs":[{"name":"account","type":"address","internalType":"address"},{"name":"neededRole","type":"bytes32","internalType":"bytes32"}]},{"type":"error","name":"AdapterFrozenErr","inputs":[]},{"type":"error","name":"ECDSAInvalidSignature","inputs":[]},{"type":"error","name":"ECDSAInvalidSignatureLength","inputs":[{"name":"length","type":"uint256","internalType":"uint256"}]},{"type":"error","name":"ECDSAInvalidSignatureS","inputs":[{"name":"s","type":"bytes32","internalType":"bytes32"}]},{"type":"error","name":"ExpiredIntent","inputs":[]},{"type":"error","name":"FeeOnTransferNotSupported","inputs":[]},{"type":"error","name":"FeeTooHigh","inputs":[]},{"type":"error","name":"FeesExceedAmount","inputs":[]},{"type":"error","name":"IntentAlreadyUsed","inputs":[]},{"type":"error","name":"IntentMismatch","inputs":[]},{"type":"error","name":"InvalidShortString","inputs":[]},{"type":"error","name":"InvalidSignature","inputs":[]},{"type":"error","name":"MessageAlreadyUsed","inputs":[]},{"type":"error","name":"NotAdapter","inputs":[]},{"type":"error","name":"PayloadDisallowedToEOA","inputs":[]},{"type":"error","name":"PayloadTooLarge","inputs":[]},{"type":"error","name":"ReentrancyGuardReentrantCall","inputs":[]},{"type":"error","name":"ResidueLeft","inputs":[]},{"type":"error","name":"SafeERC20FailedOperation","inputs":[{"name":"token","type":"address","internalType":"address"}]},{"type":"error","name":"StringTooLong","inputs":[{"name":"str","type":"string","internalType":"string"}]},{"type":"error","name":"TargetNotContract","inputs":[]},{"type":"error","name":"TargetNotSet","inputs":[]},{"type":"error","name":"TokenZeroAddress","inputs":[]},{"type":"error","name":"Unauthorized","inputs":[]},{"type":"error","name":"ZeroAddress","inputs":[]},{"type":"error","name":"ZeroAmount","inputs":[]}],"bytecode":{"object":"0x6101a0806040523461029e57608081614aff803803809161002082856102a2565b83398101031261029e57610033816102d9565b61003f602083016102d9565b91606061004e604083016102d9565b9101519061ffff8216820361029e5760405161006b6040826102a2565b600b815260208101906a2d37b7b82c2937baba32b960a91b8252604051916100946040846102a2565b600183526020830191603160f81b835260015f556100b181610376565b610120526100be84610511565b61014052519020918260e05251902080610100524660a0526040519060208201927f8b73c3c69bb8fe3d512ecc4cf759cc79239f7b179b0ffacaa9a75d522b39400f8452604083015260608201524660808201523060a082015260a0815261012760c0826102a2565b5190206080523060c0526001600160a01b03831693841561026d576001600160a01b03168015610235576101829460018060a01b0319600454161760045560018060a01b0319600554161760055561016052610180526102ed565b50604051614495908161064a8239608051816141d2015260a05181614289015260c0518161419c015260e05181614221015261010051816142470152610120518161152c01526101405181611556015261016051818181610941015281816114760152818161191f01528181611fda0152818161280e0152613efa0152610180518181816105250152818161119e0152818161182501528181611c43015281816126f4015281816133d4015261363a0152f35b60405162461bcd60e51b815260206004820152601060248201526f18985908199959549958da5c1a595b9d60821b6044820152606490fd5b60405162461bcd60e51b81526020600482015260096024820152683130b21030b236b4b760b91b6044820152606490fd5b5f80fd5b601f909101601f19168101906001600160401b038211908210176102c557604052565b634e487b7160e01b5f52604160045260245ffd5b51906001600160a01b038216820361029e57565b6001600160a01b0381165f9081525f80516020614adf833981519152602052604090205460ff16610371576001600160a01b03165f8181525f80516020614adf83398151915260205260408120805460ff191660011790553391907f2f8788117e7eff1d82e926ec794901d17c78024a50270940304540a733656f0d8180a4600190565b505f90565b908151602081105f146103f0575090601f8151116103b05760208151910151602082106103a1571790565b5f198260200360031b1b161790565b604460209160405192839163305a27a960e01b83528160048401528051918291826024860152018484015e5f828201840152601f01601f19168101030190fd5b6001600160401b0381116102c557600154600181811c91168015610507575b60208210146104f357601f81116104c0575b50602092601f821160011461045f57928192935f92610454575b50508160011b915f199060031b1c19161760015560ff90565b015190505f8061043b565b601f1982169360015f52805f20915f5b8681106104a85750836001959610610490575b505050811b0160015560ff90565b01515f1960f88460031b161c191690555f8080610482565b9192602060018192868501518155019401920161046f565b60015f52601f60205f20910160051c810190601f830160051c015b8181106104e85750610421565b5f81556001016104db565b634e487b7160e01b5f52602260045260245ffd5b90607f169061040f565b908151602081105f1461053c575090601f8151116103b05760208151910151602082106103a1571790565b6001600160401b0381116102c557600254600181811c9116801561063f575b60208210146104f357601f811161060c575b50602092601f82116001146105ab57928192935f926105a0575b50508160011b915f199060031b1c19161760025560ff90565b015190505f80610587565b601f1982169360025f52805f20915f5b8681106105f457508360019596106105dc575b505050811b0160025560ff90565b01515f1960f88460031b161c191690555f80806105ce565b919260206001819286850151815501940192016105bb565b60025f52601f60205f20910160051c810190601f830160051c015b818110610634575061056d565b5f8155600101610627565b90607f169061055b56fe6080806040526004361015610012575f80fd5b5f905f3560e01c90816301ffc9a71461283d575080630215c402146127f957806302a882e6146127d257806303eadcfc146127aa5780630e18b681146127185780631459dda2146126da578063147bf6c4146126555780631f938923146125d4578063248a9ca3146125a957806326782247146125815780632f2ff15d146125435780632f32ff62146124ed57806330b941a3146124b057806335659fb81461248f578063362d6cd41461210457806336568abe146120be57806337ed3f1e1461209b578063462455d21461204b57806346904840146120235780634c7ac03f14611fff5780635248bb7014611db95780635382a91114611d9d578063585cd34b14611d4f5780635a02840014611d205780635acd1e6b14611b6757806360d54d4114611b0457806361d1a0f114611ac55780636336803b14611a965780637045ab02146119d8578063704b6c02146119445780637143d818146116f257806378addb48146116b35780637e863a221461160e57806384b0196e1461151257806391d14854146114c857806393c79ba6146114a35780639eead34614610fc4578063a217fddf14610fa8578063a42dce8014610f37578063ab1da79c14610ee8578063b1d7d46714610ec5578063b71351d614610d23578063be37b12c14610c9f578063c415b95c14610c74578063ca1dd22e14610c03578063d31ecaa714610be6578063d547741f14610b9e578063de3011e714610b63578063e74b981b14610ad6578063ea5acf0214610a24578063ecaab86114610965578063f7bc2e7814610340578063f851a440146103175763f897840114610270575f80fd5b34610314576040366003190112610314576102896128f7565b610291612908565b610299612fab565b6127106102ae61ffff831661ffff8516612ad2565b036102e15765ffff0000000061ffff60301b600c549260301b169260201b169067ffffffff0000000019161717600c5580f35b60405162461bcd60e51b815260206004820152600b60248201526a53706c6974213d3130302560a81b6044820152606490fd5b80fd5b50346103145780600319360112610314576004546040516001600160a01b039091168152602090f35b50346103145761034f3661299e565b610357613021565b61036081612a9d565b906020810135809261037f60408401359182606086013594859261371a565b60a083016001600160a01b0361039482612a9d565b161561093e576103a390612a9d565b6001600160a01b03811692831561092f57608085016102006103c58288612adf565b90501161092057823b15908115918061090c575b6108fd5781806108f4575b6108c85760ff60075416806108ed575b806108d6575b6108c8576001600160a01b0361040f88612a9d565b6040516370a0823160e01b815230600482015299911660208a602481845afa998a156108bd578b9a610889575b506104498230338461303f565b6040516370a0823160e01b8152306004820152602081602481855afa8c811561087d5784918d9190610845575b610481929350612ab1565b0361083657918a959493918993898852600e60205260ff6040892054165f146107a85750915b6104c2866001600160a01b036104bc87612a9d565b166131b9565b6104de83876001600160a01b036104d888612a9d565b1661326b565b80610794575b61077b575b846001600160a01b036104fb85612a9d565b1690610506916131b9565b6105109083612adf565b369061051b92612b5e565b80519060200120957f000000000000000000000000000000000000000000000000000000000000000060c084019461055286612b94565b61ffff169289858a858b6105658b612a9d565b9860e08c019986866105768d612ba3565b9261ffff87169561058696613950565b9e8f908352600e6020528c86828d604087205460ff161580610769575b61071c575b505050506105b58c612b94565b906105bf8a612ba3565b90336105cb9385612a2b565b996105d590612a9d565b8c6105df8d612b94565b6105e88b612ba3565b90604051948594600160a01b6001900316988b8b339a6106089789612bb7565b037fa6751dcd0f6b9669eceaf240a62b80995af3ce6972edc604e9d1316d5ff59aa591a46106358c612a9d565b9661063f90612b94565b9361064990612ba3565b946040519889983361065b998b612c06565b037f79397877f6a58588f65d6e8255514411fe780cf88a68c210c2b7c3afe895119891a46001600160a01b039061069190612a9d565b166040518080926370a0823160e01b82523060048301525a92602491602094fa9081156107115783916106db575b50036106cc576001815580f35b634fb8fb6360e01b8152600490fd5b90506020813d602011610709575b816106f6602093836129f6565b8101031261070557515f6106bf565b5f80fd5b3d91506106e9565b6040513d85823e3d90fd5b6107335f8051602061442083398151915291612a9d565b938b61075d60018060a01b036005541692604051938493339960018060a01b031698429386612b11565b0390a48c86828d6105a8565b506107748b84612ad2565b15156105a3565b61078f6107888285612adf565b908761332a565b6104e9565b5061079f8184612adf565b905015156104e4565b906107b3868a612ad2565b9161ffff600c5460101c16806107fe575b50908291826107d9946107df575b5050612ab1565b916104a7565b6005546107f7926001600160a01b039091169061317d565b5f826107d2565b90929496979850816108129294965061308a565b861161082757918993918c979695935f6107c4565b63cd4e616760e01b8c5260048cfd5b639bfa3c1760e01b8b5260048bfd5b5050506020813d602011610875575b81610861602093836129f6565b810103126107055751829081908c90610476565b3d9150610854565b604051903d90823e3d90fd5b9099506020813d6020116108b5575b816108a5602093836129f6565b810103126107055751985f61043c565b3d9150610898565b6040513d8d823e3d90fd5b62b8dfab60e11b8952600489fd5b50858952600660205260ff60408a205416156103fa565b50816103f4565b50833b156103e4565b633390d76b60e01b8952600489fd5b506109178188612adf565b905015156103d9565b63492f620d60e01b8852600488fd5b6337e80e8160e21b8752600487fd5b507f00000000000000000000000000000000000000000000000000000000000000006103a3565b50346103145760203660031901126103145761097f6128f7565b6004546001600160a01b03163303610a16576103e861ffff821611610a075763ffff0000600c54917f796bb81a3ac5b659665916dc75398afb2f1489ae97208393f7f21fcf638e8a7b604051806109f18461ffff8860101c168390929161ffff60209181604085019616845216910152565b0390a160101b169063ffff0000191617600c5580f35b63cd4e616760e01b8252600482fd5b6282b42960e81b8252600482fd5b503461031457602036600319011261031457610a3e6128f7565b6004546001600160a01b03163303610a1657600c5490612710610a6c61ffff831661ffff8560201c16612ad2565b11610ac7576040805161ffff603085901c811682528316602082015261ffff60301b92917fbf832f0e179e869afb0f69ea44b74fc0cbcc8837b9870e8dcf7f7390dcd2505a91a160301b169061ffff60301b191617600c5580f35b63cd4e616760e01b8352600483fd5b503461031457602036600319011261031457610af0612890565b6004546001600160a01b03163303610a16576001600160a01b03168015610b5457600554816001600160a01b0382167faaebcf1bfa00580e41d966056b48521fa9f202645c86d4ddf28113e617c1b1d38580a36001600160a01b0319161760055580f35b63d92e233d60e01b8252600482fd5b503461031457806003193601126103145760206040517f3a16219d06af018ad9787d0dcfcc281b004cb45454d560c61c3bc3288717ed648152f35b503461031457604036600319011261031457610be2600435610bbe6128a6565b90610bdd610bd8825f526003602052600160405f20015490565b612fe7565b612f27565b5080f35b503461031457806003193601126103145760206040516102008152f35b503461031457604036600319011261031457610c1d612890565b610c256128e8565b6004549091906001600160a01b03163303610c66576001600160a01b03168252600660205260408220805491151560ff1660ff199290921691909117905580f35b6282b42960e81b8352600483fd5b5034610314578060031936011261031457600c546040805191901c6001600160a01b03168152602090f35b503461031457602036600319011261031457610cb96128f7565b6004546001600160a01b03163303610a165761ffff81169060058211610ac757600c546040805161ffff808416825293909316602084015290917f740c4f8812f57c051142b386664c613b7140458e4fd9420eda309b6d0ad319099190a161ffff191617600c5580f35b503461031457806024602060ff6040610d57610dd7610d4136612919565b90610d50979397959295613021565b8588613ae9565b99919590948688610d6781612a9d565b92610dd08c820184610d95610d7b83612a9d565b89870135809960608901359460209386948b0135926137a0565b96610da2888887896133af565b6001600160a01b038a168d52600e6020529a909b2054999b9099161580610eb3575b610e5d575b5050612a9d565b9035613613565b80610e46575b610e29575b506001600160a01b0390610df590612a9d565b16604051928380926370a0823160e01b82523060048301525afa9081156107115783916106db5750036106cc576001815580f35b610e4090610e3a6080840184612adf565b9161332a565b5f610de2565b50610e546080830183612adf565b90501515610ddd565b895f80516020614420833981519152610e7588612a9d565b93610e7f86612a9d565b6005546040516001600160a01b039283169783169690938493610ea9934293911691908f86612b11565b0390a45f80610dc9565b50610ebe8282612ad2565b1515610dc4565b5034610314578060031936011261031457602060ff600754166040519015158152f35b503461031457602036600319011261031457610f02612890565b6004546001600160a01b03163303610a165760018060a01b03166bffffffffffffffffffffffff60a01b600a541617600a5580f35b503461031457602036600319011261031457610f51612890565b6004546001600160a01b03163303610a16576001600160a01b03811615610b5457600c805468010000000000000000600160e01b03191660409290921b68010000000000000000600160e01b031691909117905580f35b5034610314578060031936011261031457602090604051908152f35b50346103145760a0366003190112610314576004356001600160401b03811161149f578060040161010060031983360301126113fe5760443560ff811680910361149b57611010613021565b61101982612a9d565b91602484013593849361103960448301359182606485013597889261371a565b60a482016001600160a01b0361104e82612a9d565b16156114735761105d90612a9d565b945b6001600160a01b0386169182156114645760848401936102006110828688612adf565b90501161145557873b159687159780611441575b6114325760ff600754168061142b575b80611414575b611406578a9291906001600160a01b036110c589612a9d565b1690813b1561140257849060e48d83604051958694859363d505accf60e01b855233600486015230602486015260448501526024356064850152608484015260643560a484015260843560c48401525af180156113de576113e9575b5060249960206001600160a01b036111388a612a9d565b166040519c8d80926370a0823160e01b82523060048301525afa9a8b156113de57849b6113a3575b5082918891868c9533928761117487612a9d565b9461117e956137a0565b906111898984612adf565b369061119492612b5e565b80519060200120967f00000000000000000000000000000000000000000000000000000000000000009060c483019589858a858b6111d18c612b94565b61ffff166111de8c612a9d565b9960e4019986866111ee8d612ba3565b9261ffff8716956111fe96613950565b9e8f908352600e6020528c86828d604087205460ff161580611391575b611344575b5050505061122d8c612b94565b906112378a612ba3565b90336112439385612a2b565b9961124d90612a9d565b8c6112578d612b94565b6112608b612ba3565b90604051948594600160a01b6001900316988b8b339a6112809789612bb7565b037fa6751dcd0f6b9669eceaf240a62b80995af3ce6972edc604e9d1316d5ff59aa591a46112ad8d612a9d565b966112b790612b94565b936112c190612ba3565b94604051988998336112d3998b612c06565b037f79397877f6a58588f65d6e8255514411fe780cf88a68c210c2b7c3afe895119891a460249360209380611330575b61131c575b506001600160a01b0391610df59150612a9d565b610e3a6113299284612adf565b5f80611308565b5061133b8284612adf565b90501515611303565b61135b5f8051602061442083398151915291612a9d565b938b61138560018060a01b036005541692604051938493339960018060a01b031698429386612b11565b0390a48c86828d611220565b5061139c8b84612ad2565b151561121b565b93509950906020833d6020116113d6575b816113c1602093836129f6565b81010312610705579151988a92919089611160565b3d91506113b4565b6040513d86823e3d90fd5b6113f48480926129f6565b6113fe575f611121565b8280fd5b8480fd5b62b8dfab60e11b8b5260048bfd5b50848b52600660205260ff60408c205416156110ac565b50876110a6565b633390d76b60e01b8b5260048bfd5b5061144c8688612adf565b90501515611096565b63492f620d60e01b8a5260048afd5b6337e80e8160e21b8952600489fd5b507f00000000000000000000000000000000000000000000000000000000000000009461105f565b8380fd5b5080fd5b5034610314578060031936011261031457602061ffff600c5460101c16604051908152f35b50346103145760403660031901126103145760406114e46128a6565b9160043581526003602052209060018060a01b03165f52602052602060ff60405f2054166040519015158152f35b50346103145780600319360112610314576115b2906115507f0000000000000000000000000000000000000000000000000000000000000000613fa3565b9061157a7f00000000000000000000000000000000000000000000000000000000000000006140c9565b9060206115c06040519361158e83866129f6565b8385525f368137604051968796600f60f81b885260e08589015260e08801906129d2565b9086820360408801526129d2565b904660608601523060808601528260a086015284820360c08601528080855193848152019401925b8281106115f757505050500390f35b8351855286955093810193928101926001016115e8565b5034610314576020366003190112610314576116286128f7565b6004546001600160a01b03163303610a1657600c549061271061165661ffff8460301c1661ffff8416612ad2565b11610ac7576040805161ffff602085811c821683529084169082015265ffff0000000092917f9de0ed39a415d64d485874d8b01c6ee5e8b938fdb82e22892cf257c2f0b83abf91a160201b169065ffff00000000191617600c5580f35b50346103145760203660031901126103145760209060ff906040906001600160a01b036116de612890565b168152600684522054166040519015158152f35b5034610314576117013661299e565b9061170a613021565b61171382612a9d565b6020830135836117316040839601359384606084013597889261371a565b60a081016001600160a01b0361174682612a9d565b161561191c5761175590612a9d565b925b6001600160a01b038416801561190d5760808301916102006117798486612adf565b9050116118fe57853b1594851595806118ea575b6118db5760ff60075416806118d4575b806118bd575b6118af57969760249789919060206001600160a01b036117c289612a9d565b166040519b8c80926370a0823160e01b82523060048301525afa998a1561071157839a611876575b509086899282866117fa84612a9d565b928633611806956137a0565b6118108883612adf565b369061181b92612b5e565b80519060200120957f000000000000000000000000000000000000000000000000000000000000000060c084019461185286612b94565b61ffff169289858a858b6118658b612a9d565b9860e08c019986866111ee8d612ba3565b91925098506020813d6020116118a7575b81611894602093836129f6565b81010312610705575197899190866117ea565b3d9150611887565b62b8dfab60e11b8852600488fd5b50828852600660205260ff604089205416156117a3565b508561179d565b633390d76b60e01b8852600488fd5b506118f58486612adf565b9050151561178d565b63492f620d60e01b8752600487fd5b6337e80e8160e21b8652600486fd5b507f000000000000000000000000000000000000000000000000000000000000000092611757565b50346103145760203660031901126103145761195e612890565b6004546001600160a01b03811691338390036119ca576001600160a01b03169182156119bb5782907f101b8081ff3b56bbf45deb824d86a3b0fd38b7e3dd42421105cf8abe9106db0b8580a36001600160a01b0319161760045580f35b63d92e233d60e01b8452600484fd5b6282b42960e81b8452600484fd5b5034610314576040366003190112610314576119f2612890565b6119fa6128e8565b90611a03612fab565b6001600160a01b0316908115611a635760207faeafc02bad7e9280d128a57ecddd5d8921b5eed8980ec08226eff9fc6a4eeeb591838552600e8252611a5781604087209060ff801983541691151516179055565b6040519015158152a280f35b60405162461bcd60e51b815260206004820152600b60248201526a1e995c9bc81d185c99d95d60aa1b6044820152606490fd5b50346103145760203660031901126103145760ff60406020926004358152600884522054166040519015158152f35b50346103145760203660031901126103145760209060ff906040906001600160a01b03611af0612890565b168152600b84522054166040519015158152f35b5034610314576020366003190112610314577fcf9c2c7f9adbb156bd76affb04df84595f8f5e69cab2e61221b05b05a902fa266020611b41612890565b611b49612fab565b611b5281612cf5565b506040516001600160a01b039091168152a180f35b50346103145761010036600319011261031457602435611b856128bc565b6064356001600160a01b0381169182820361140257611ba26128d2565b505f805160206143e08339815191528552600360209081526040808720335f908152925290205460ff1615611d1157338552600b60205260ff604086205416611d0257611bed613021565b838552600960205260ff604086205416611cf357838552600960205260408520805460ff191660011790558215611ce4576001600160a01b031690611c369060a435908361317d565b600c54906040519261ffff7f0000000000000000000000000000000000000000000000000000000000000000168452306020850152604084015260608301528360808301528360a083015261ffff8160201c1660c083015261ffff8160301c1660e083015260018060a01b039060401c16610100820152426101208201527fe682966dd850bccb3d87e1b88d0a19409d64dd78ae2f38748b692de55ed9261961014060043592a36001815580f35b63d92e233d60e01b8552600485fd5b63b5ab1f3f60e01b8552600485fd5b633296584d60e01b8552600485fd5b63f521d15960e01b8552600485fd5b50346103145760203660031901126103145760ff60406020926004358152600984522054166040519015158152f35b5034610314576020366003190112610314577fdf980d21d8c7bb34800e668dbe003299093bac8e693614151d3c57f73f98a93d6020611d8c612890565b611d94612fab565b611b5281612e96565b5034610314578060031936011261031457602060405160058152f35b50346107055760e036600319011261070557600435906001600160401b0382116107055781600401610100600319843603011261070557606435801515809103610705576084359160ff831680930361070557611e14613021565b611e1d81612a9d565b92602486013580611e3b6044890135968760648b013593849261371a565b60a488016001600160a01b03611e5082612a9d565b1615611fd757611e5f90612a9d565b955b6001600160a01b038716928315611fc85760848a0194610200611e848789612adf565b905011611fb957883b159788159880611fa5575b611f965760ff6007541680611f8f575b80611f78575b611f6a576001600160a01b03611ec389612a9d565b1691823b15610705576101045f928360405195869485936323f2ebc360e21b855233600486015230602486015260243560448601526044356064860152608485015260a484015260a43560c484015260c43560e48401525af18015611f5f57611f44575b5097986024988a92919060206001600160a01b036111388a612a9d565b602499505f611f55919392936129f6565b5f98919091611f27565b6040513d5f823e3d90fd5b62b8dfab60e11b5f5260045ffd5b50855f52600660205260ff60405f20541615611eae565b5088611ea8565b633390d76b60e01b5f5260045ffd5b50611fb08789612adf565b90501515611e98565b63492f620d60e01b5f5260045ffd5b6337e80e8160e21b5f5260045ffd5b507f000000000000000000000000000000000000000000000000000000000000000095611e61565b34610705575f36600319011261070557602061ffff600c5460301c16604051908152f35b34610705575f366003190112610705576005546040516001600160a01b039091168152602090f35b3461070557602036600319011261070557600435801515809103610705576004546001600160a01b0316330361208d5760ff8019600754169116176007555f80f35b6282b42960e81b5f5260045ffd5b34610705575f36600319011261070557602061ffff600c54821c16604051908152f35b34610705576040366003190112610705576120d76128a6565b336001600160a01b038216036120f5576120f390600435612f27565b005b63334bd91960e11b5f5260045ffd5b346107055761212961211536612919565b9061212294929394613021565b8385613ae9565b93919290801580612478575b611fb9576001600160a01b0361214a84612a9d565b1693602083019261215a84612a9d565b61216c6020870135809230908a61303f565b6040516370a0823160e01b81523060048201526020816024818b5afa8015611f5f578983915f90612440575b6121a3929350612ab1565b03612431576001600160a01b0383165f818152600e602052604090205490979060ff161561238a57509361225a93610dd093876024999460209998935b6121f5846001600160a01b036104bc86612a9d565b61220b85856001600160a01b036104d887612a9d565b80612373575b612357575b61222b836001600160a01b036104bc85612a9d565b612237848483856133af565b98919690975f52600e8c5260ff60405f205416158061233d575b6122e157612a9d565b6001600160a01b039061226c90612a9d565b16604051928380926370a0823160e01b82523060048301525afa908115611f5f575f916122af575b50036122a05760015f55005b634fb8fb6360e01b5f5260045ffd5b90506020813d6020116122d9575b816122ca602093836129f6565b81010312610705575182612294565b3d91506122bd565b6122ea84612a9d565b6122f382612a9d565b600554604080516001600160a01b03938416948416938d935f8051602061442083398151915293839261233592429291169060608e0135908e01358f86612b11565b0390a4612a9d565b5061235060608501356040860135612ad2565b1515612251565b61236e6123676080840184612adf565b908561332a565b612216565b506123816080830183612adf565b90501515612211565b9060608701359161239f8360408a0135612ad2565b9261ffff600c5460101c16806123fb575b50509387602499946123d68561225a9995610dd0998260209e9d996123dc575050612ab1565b936121e0565b6005546123f4926001600160a01b039091169061317d565b8f826107d2565b61240e90849b969a99959793989461308a565b106124225793919596929790948a806123b0565b63cd4e616760e01b5f5260045ffd5b639bfa3c1760e01b5f5260045ffd5b5050506020813d602011612470575b8161245c602093836129f6565b810103126107055751819081908a90612198565b3d915061244f565b506124866080840184612adf565b90501515612135565b34610705575f36600319011261070557602061ffff600c5416604051908152f35b34610705576020366003190112610705576001600160a01b036124d1612890565b165f52600e602052602060ff60405f2054166040519015158152f35b346107055760a0366003190112610705576125066128f7565b61250e612908565b6125166128bc565b91608435906001600160401b03821682036107055760209361253b9360643592612a2b565b604051908152f35b34610705576040366003190112610705576120f36004356125626128a6565b9061257c610bd8825f526003602052600160405f20015490565b612d88565b34610705575f36600319011261070557600d546040516001600160a01b039091168152602090f35b3461070557602036600319011261070557602061253b6004355f526003602052600160405f20015490565b34610705576040366003190112610705577fed99d7f973907d796aba0d6dc27115925d06d1098e4c5c61ec36b7c49b1b36936040612610612890565b6126186128e8565b90612621612fab565b6001600160a01b03165f818152600b602052839020805460ff191660ff8415151617905590825191825215156020820152a1005b346107055760203660031901126107055761266e612890565b6004546001600160a01b0316903382900361208d576001600160a01b03169081156126cb57600d80546001600160a01b031916831790557ffd22260ca7b3d2a5f6332770491ab546b6235bc73909c334f5e304d2fae455b15f80a3005b63d92e233d60e01b5f5260045ffd5b34610705575f36600319011261070557602060405161ffff7f0000000000000000000000000000000000000000000000000000000000000000168152f35b34610705575f36600319011261070557600d546001600160a01b0381163381900361208d57600480546001600160a01b031980821684179092559216600d556001600160a01b039091169061276c90612c6c565b5061277681612e14565b506004546001600160a01b0316907f101b8081ff3b56bbf45deb824d86a3b0fd38b7e3dd42421105cf8abe9106db0b5f80a3005b34610705575f36600319011261070557600a546040516001600160a01b039091168152602090f35b34610705575f3660031901126107055760206040515f805160206143e08339815191528152f35b34610705575f366003190112610705576040517f00000000000000000000000000000000000000000000000000000000000000006001600160a01b03168152602090f35b34610705576020366003190112610705576004359063ffffffff60e01b821680920361070557602091637965db0b60e01b811490811561287f575b5015158152f35b6301ffc9a760e01b14905083612878565b600435906001600160a01b038216820361070557565b602435906001600160a01b038216820361070557565b604435906001600160a01b038216820361070557565b608435906001600160a01b038216820361070557565b60243590811515820361070557565b6004359061ffff8216820361070557565b6024359061ffff8216820361070557565b906101a0600319830112610705576004356001600160401b038111610705576101008184036003190112610705576004019161016060231982011261070557602491610184356001600160401b0381116107055782602382011215610705578060040135926001600160401b0384116107055760248483010111610705576024019190565b602060031982011261070557600435906001600160401b038211610705576101009082900360031901126107055760040190565b805180835260209291819084018484015e5f828201840152601f01601f1916010190565b90601f801991011681019081106001600160401b03821117612a1757604052565b634e487b7160e01b5f52604160045260245ffd5b939192909260405193602085019561ffff60f01b9060f01b16865261ffff60f01b9060f01b1660228501526bffffffffffffffffffffffff199060601b16602484015260388301526001600160401b0360c01b9060c01b16605882015260408152612a976060826129f6565b51902090565b356001600160a01b03811681036107055790565b91908203918211612abe57565b634e487b7160e01b5f52601160045260245ffd5b91908201809211612abe57565b903590601e198136030182121561070557018035906001600160401b0382116107055760200191813603831361070557565b6001600160a01b0391821681526020810192909252604082019290925291166060820152608081019190915260a00190565b6001600160401b038111612a1757601f01601f191660200190565b929192612b6a82612b43565b91612b7860405193846129f6565b829481845281830111610705578281602093845f960137010152565b3561ffff811681036107055790565b356001600160401b03811681036107055790565b9691956001600160401b039561ffff949585939b9a9660e0996101008c019d60018060a01b03168c5260208c015260408b015260608a015260808901521660a08701521660c085015216910152565b9081526001600160a01b03918216602082015291811660408301529091166060820152608081019190915260a081019190915260c081019190915261ffff91821660e082015291166101008201526001600160401b039091166101208201526101400190565b6001600160a01b0381165f9081525f80516020614440833981519152602052604090205460ff16612cf0576001600160a01b03165f8181525f8051602061444083398151915260205260408120805460ff191660011790553391907f2f8788117e7eff1d82e926ec794901d17c78024a50270940304540a733656f0d8180a4600190565b505f90565b6001600160a01b0381165f9081525f80516020614400833981519152602052604090205460ff16612cf0576001600160a01b03165f8181525f8051602061440083398151915260205260408120805460ff191660011790553391905f805160206143e0833981519152907f2f8788117e7eff1d82e926ec794901d17c78024a50270940304540a733656f0d9080a4600190565b5f8181526003602090815260408083206001600160a01b038616845290915290205460ff16612e0e575f8181526003602090815260408083206001600160a01b0395909516808452949091528120805460ff19166001179055339291907f2f8788117e7eff1d82e926ec794901d17c78024a50270940304540a733656f0d9080a4600190565b50505f90565b6001600160a01b0381165f9081525f80516020614440833981519152602052604090205460ff1615612cf0576001600160a01b03165f8181525f8051602061444083398151915260205260408120805460ff191690553391907ff6391f5c32d9c69d2a47ea670b442974b53935d1edc7fd64eb21e047a839171b8180a4600190565b6001600160a01b0381165f9081525f80516020614400833981519152602052604090205460ff1615612cf0576001600160a01b03165f8181525f8051602061440083398151915260205260408120805460ff191690553391905f805160206143e0833981519152907ff6391f5c32d9c69d2a47ea670b442974b53935d1edc7fd64eb21e047a839171b9080a4600190565b5f8181526003602090815260408083206001600160a01b038616845290915290205460ff1615612e0e575f8181526003602090815260408083206001600160a01b0395909516808452949091528120805460ff19169055339291907ff6391f5c32d9c69d2a47ea670b442974b53935d1edc7fd64eb21e047a839171b9080a4600190565b335f9081525f80516020614440833981519152602052604090205460ff1615612fd057565b63e2517d3f60e01b5f52336004525f60245260445ffd5b5f81815260036020908152604080832033845290915290205460ff161561300b5750565b63e2517d3f60e01b5f523360045260245260445ffd5b60025f54146130305760025f55565b633ee5aeb560e01b5f5260045ffd5b6040516323b872dd60e01b60208201526001600160a01b039283166024820152929091166044830152606480830193909352918152613088916130836084836129f6565b613f4b565b565b9091905f905f198482099084810292838084109303928084039314613101578261271011156130ef57507fbc01a36e2eb1c432ca57a786c226809d495182a9930be0ded288ce703afb7e919394612710910990828211900360fc1b910360041c170290565b634e487b71905260116020526024601cfd5b5050506127109192500490565b905f5f19600584096005840291828083109203918083039214613172578161271011156130ef575061271060057fbc01a36e2eb1c432ca57a786c226809d495182a9930be0ded288ce703afb7e9194950990828211900360fc1b910360041c170290565b505061271090049150565b60405163a9059cbb60e01b60208201526001600160a01b03929092166024830152604480830193909352918152613088916130836064836129f6565b6040519060205f8184019463095ea7b360e01b865260018060a01b031694856024860152816044860152604485526131f26064866129f6565b84519082855af15f513d82613246575b50501561320e57505050565b613083613088936040519063095ea7b360e01b602083015260248201525f6044820152604481526132406064826129f6565b82613f4b565b90915061326357506001600160a01b0381163b15155b5f80613202565b60011461325c565b60405163095ea7b360e01b60208083019182526001600160a01b0385166024840152604480840196909652948252929390925f906132aa6064866129f6565b84519082855af15f513d82613305575b5050156132c657505050565b60405163095ea7b360e01b60208201526001600160a01b0390931660248401525f604480850191909152835261308892613083906132406064826129f6565b90915061332257506001600160a01b0381163b15155b5f806132ba565b60011461331b565b5f92838093826040519384928337810182815203925af13d156133aa573d61335181612b43565b9061335f60405192836129f6565b81525f60203d92013e5b1561337057565b60405162461bcd60e51b81526020600482015260126024820152711d185c99d95d0818d85b1b0819985a5b195960721b6044820152606490fd5b613369565b929391906133ca6133c36080860186612adf565b3691612b5e565b60208151910120947f00000000000000000000000000000000000000000000000000000000000000009260c086019561340287612b94565b60e085016001600160a01b0361341782612a9d565b161561360c5761342690612a9d565b8961343084612a9d565b9360e0019561343e87612ba3565b926040519560208701976001600160401b0360c01b61ffff60c01b8d60c01b16168952600888526134706028896129f6565b604051926020840191600160a01b60019003168252602084526134946040856129f6565b6040516020810191600160a01b60019003168252602081526134b76040826129f6565b604051926020840194600160a01b60019003168552602084526134db6040856129f6565b6040519560208701978852602087526134f56040886129f6565b6040519860208a01526020895261350d60408a6129f6565b60405160c09a909a1b6001600160c01b03191660208b015260088a5261353460288b6129f6565b60405160c09b909b1b61ffff60c01b1660208c015260088b5261355860288c6129f6565b6040519c8d809d519160208392015e8c019060208201905f8252519283915e01602001905f8252518092825e01905f8252518092825e01905f8252518092825e015f815281516020819301825e015f815281516020819301825e015f815281516020819301825e015f815203601f19810182526135d590826129f6565b805190602001209081956135e890612b94565b926020016135f590612a9d565b906135ff90612ba3565b9261360994612a2b565b90565b505f613426565b9482819798939594929461362682612a9d565b9060408301359087818b846060880135968a7f00000000000000000000000000000000000000000000000000000000000000009a8a60c08d9c0161366990612b94565b9060e0019c6136778e612ba3565b6040516001600160a01b039687169a909616989596879661369f969295928f92919089612bb7565b037fa6751dcd0f6b9669eceaf240a62b80995af3ce6972edc604e9d1316d5ff59aa591a46136cc89612a9d565b9860c0016136d990612b94565b946136e390612ba3565b95604051998a996136f4998b612c06565b037f79397877f6a58588f65d6e8255514411fe780cf88a68c210c2b7c3afe895119891a4565b9091906001600160a01b031615613791578115613782578161373c8483612ad2565b116137735761374a8261310e565b106124225761ffff600c5460101c168061376357505050565b61376c9161308a565b1061242257565b631f656da960e31b5f5260045ffd5b631f2a200560e01b5f5260045ffd5b635d1a467d60e11b5f5260045ffd5b6040516370a0823160e01b8152306004820152929593946001600160a01b03909116939092909190602081602481885afa908115611f5f5786905f9261391a575b506137ef919230908761303f565b6040516370a0823160e01b815230600482015290602082602481885afa8015611f5f5786925f916138e1575b509061382691612ab1565b03612431576001600160a01b0385165f908152600e602052604090205460ff166138d35761ffff600c5460101c16806138bd575b506138659082612ad2565b9061386f8461310e565b10612422578061388f575b6138879061360993612ab1565b92839161317d565b6005546001600160a01b03169081156126cb57613609936138b482613887948661317d565b9350905061387a565b6138c7908561308a565b8111612422575f61385a565b50509080926136099261317d565b919250506020813d602011613912575b816138fe602093836129f6565b81010312610705575185919061382661381b565b3d91506138f1565b9150506020813d602011613948575b81613936602093836129f6565b810103126107055751856137ef6137e1565b3d9150613929565b9593919492906040519560208701976001600160401b0360c01b9060c01b168852600887526139806028886129f6565b604080516001600160a01b0390931660208085019182528452906139a490846129f6565b60405160208101905f8252602081526139be6040826129f6565b604051926020840194600160a01b60019003168552602084526139e26040856129f6565b6040519560208701978852602087526139fc6040886129f6565b6040519860208a015260208952613a1460408a6129f6565b60405160c09a909a1b6001600160c01b03191660208b015260088a52613a3b60288b6129f6565b60405160c09b909b1b6001600160c01b03191660208c015260088b52613a6260288c6129f6565b6040519c8d809d519160208392015e8c019060208201905f8252519283915e01602001905f8252518092825e01905f8252518092825e01905f8252518092825e015f815281516020819301825e015f815281516020819301825e015f815281516020819301825e015f815203601f1981018252613adf90826129f6565b8051906020012090565b929093916101008501354211613f3d5761012085013515611fb957613c38613c32613c41926042613b1c60208a01612a9d565b613b2860408b01612a9d565b6001600160401b038b613b3d60c08201612b94565b61ffff613b4c60e08401612a9d565b9160a0613b5c6101408601612ba3565b946040519760208901997f3a16219d06af018ad9787d0dcfcc281b004cb45454d560c61c3bc3288717ed648b52823560408b0152600180851b031660608a0152600180841b03166080890152606081013582890152608081013560c0890152013560e08701521661010085015260018060a01b03166101208401526101008d01356101408401526101208d0135610160840152166101808201526101808152613c076101a0826129f6565b519020613c12614199565b906040519161190160f01b83526002830152602282015220943691612b5e565b836142af565b909291926142e9565b6001600160a01b03613c5560208701612a9d565b166001600160a01b0390911603613f2e57805f52600860205260ff60405f205416613f1f57805f52600860205260405f20600160ff1982541617905560018060a01b03613ca460208601612a9d565b16908435907fc5ed249093f8d64f17d4fb48f4b496739452ba98ce23e3a1ba8dfcacc4b326d95f80a4613cd960408401612a9d565b6001600160a01b03613cea84612a9d565b166001600160a01b0390911603613e8a576020820135606084013503613e8a576040820135608084013503613e8a57606082013560a084013503613e8a57613d3460c08401612b94565b61ffff80613d4460c08601612b94565b16911603613e8a576080820192613d5e6133c38585612adf565b6020815191012061012082013503613e8a5760a083016001600160a01b03613d8582612a9d565b1615613ef757613d9490612a9d565b905b6001600160a01b0382168015611fc857610200613db38787612adf565b905011611fb957823b1580159681613ee2575b50611f96578580613ed9575b611f6a5760ff6007541680613ed2575b80613ebb575b611f6a576001600160a01b03613e0060e08401612a9d565b1615159182613e99575b5050613e8a576024926020906001600160a01b0390613e2890612a9d565b16604051948580926370a0823160e01b82523060048301525afa928315611f5f575f93613e56575b50929190565b9092506020813d602011613e82575b81613e72602093836129f6565b810103126107055751915f613e50565b3d9150613e65565b6355afbcf160e11b5f5260045ffd5b9091506001600160a01b0390613eb19060e001612a9d565b1614155f80613e0a565b50805f52600660205260ff60405f20541615613de8565b5085613de2565b50823b15613dd2565b613eed915086612adf565b905015155f613dc6565b507f000000000000000000000000000000000000000000000000000000000000000090613d96565b63110ea83560e31b5f5260045ffd5b638baa579f60e01b5f5260045ffd5b62202b7560e21b5f5260045ffd5b905f602091828151910182855af115611f5f575f513d613f9a57506001600160a01b0381163b155b613f7a5750565b635274afe760e01b5f9081526001600160a01b0391909116600452602490fd5b60011415613f73565b60ff8114613fe95760ff811690601f8211613fda5760405191613fc76040846129f6565b6020808452838101919036833783525290565b632cd44ac360e21b5f5260045ffd5b506040515f6001548060011c91600182169182156140bf575b6020841083146140ab57838552849290811561408c575060011461402d575b613609925003826129f6565b5060015f90815290917fb10e2d527612073b26eecdfd717e6a320cf44b4afac2b0732d9fcbe2b7fa0cf65b81831061407057505090602061360992820101614021565b6020919350806001915483858801015201910190918392614058565b6020925061360994915060ff191682840152151560051b820101614021565b634e487b7160e01b5f52602260045260245ffd5b92607f1692614002565b60ff81146140ed5760ff811690601f8211613fda5760405191613fc76040846129f6565b506040515f6002548060011c916001821691821561418f575b6020841083146140ab57838552849290811561408c575060011461413057613609925003826129f6565b5060025f90815290917f405787fa12a823e0f2b7631cc41b3ba8828b3321ca811111fa75cd3aa3bb5ace5b81831061417357505090602061360992820101614021565b602091935080600191548385880101520191019091839261415b565b92607f1692614106565b307f00000000000000000000000000000000000000000000000000000000000000006001600160a01b03161480614286575b156141f4577f000000000000000000000000000000000000000000000000000000000000000090565b60405160208101907f8b73c3c69bb8fe3d512ecc4cf759cc79239f7b179b0ffacaa9a75d522b39400f82527f000000000000000000000000000000000000000000000000000000000000000060408201527f000000000000000000000000000000000000000000000000000000000000000060608201524660808201523060a082015260a08152612a9760c0826129f6565b507f000000000000000000000000000000000000000000000000000000000000000046146141cb565b81519190604183036142df576142d89250602082015190606060408401519301515f1a9061435d565b9192909190565b50505f9160029190565b600481101561434957806142fb575050565b600181036143125763f645eedf60e01b5f5260045ffd5b6002810361432d575063fce698f760e01b5f5260045260245ffd5b6003146143375750565b6335e2f38360e21b5f5260045260245ffd5b634e487b7160e01b5f52602160045260245ffd5b91907f7fffffffffffffffffffffffffffffff5d576e7357a4501ddfe92f46681b20a084116143d4579160209360809260ff5f9560405194855216868401526040830152606082015282805260015afa15611f5f575f516001600160a01b038116156143ca57905f905f90565b505f906001905f90565b5050505f916003919056fedbeb657137b1822b3d5418bea6fd641226d964b4c3871ef23546db2622258871561badf8039e1997d45ac8a3b2b2b43f9c1cdeb14206c59b53a0c94e224a4bf0bab05983eace095d5b3b038cb120246aeb9ac331eb9a83be7dbe40f8147be0373617319a054d772f909f7c479a2cebe5066e836a939412e32403c99029b92effa26469706673582212206d72fb4235daafe2685dc8cbec73415013ee6b5038dd6c584950b1d901b0c2db64736f6c634300081a00333617319a054d772f909f7c479a2cebe5066e836a939412e32403c99029b92eff","linkReferences":{}},"methodIdentifiers":{"ADAPTER_ROLE()":"02a882e6","DEFAULT_ADMIN_ROLE()":"a217fddf","FEE_CAP_BPS()":"5382a911","MAX_PAYLOAD_BYTES()":"d31ecaa7","ROUTE_INTENT_TYPEHASH_PUBLIC()":"de3011e7","SRC_CHAIN_ID()":"1459dda2","acceptAdmin()":"0e18b681","adapter()":"03eadcfc","addAdapter(address)":"60d54d41","admin()":"f851a440","computeGlobalRouteId(uint16,uint16,address,bytes32,uint64)":"2f32ff62","defaultTarget()":"0215c402","delegateFeeToTarget(address)":"30b941a3","eip712Domain()":"84b0196e","enforceTargetAllowlist()":"b1d7d467","feeCollector()":"c415b95c","feeRecipient()":"46904840","finalizeMessage(bytes32,bytes32,address,address,address,uint256,uint256,uint256)":"5acd1e6b","freezeAdapter(address,bool)":"1f938923","frozenAdapter(address)":"61d1a0f1","getRoleAdmin(bytes32)":"248a9ca3","grantRole(bytes32,address)":"2f2ff15d","hasRole(bytes32,address)":"91d14854","isAllowedTarget(address)":"78addb48","lpShareBps()":"4c7ac03f","pendingAdmin()":"26782247","proposeAdmin(address)":"147bf6c4","protocolFeeBps()":"35659fb8","protocolShareBps()":"37ed3f1e","relayerFeeBps()":"93c79ba6","removeAdapter(address)":"585cd34b","renounceRole(bytes32,address)":"36568abe","revokeRole(bytes32,address)":"d547741f","setAdapter(address)":"ab1da79c","setAdmin(address)":"704b6c02","setAllowedTarget(address,bool)":"ca1dd22e","setDelegateFeeToTarget(address,bool)":"7045ab02","setEnforceTargetAllowlist(bool)":"462455d2","setFeeCollector(address)":"a42dce80","setFeeRecipient(address)":"e74b981b","setFeeSplit(uint16,uint16)":"f8978401","setLPShareBps(uint16)":"ea5acf02","setProtocolFeeBps(uint16)":"be37b12c","setProtocolShareBps(uint16)":"7e863a22","setRelayerFeeBps(uint16)":"ecaab861","supportsInterface(bytes4)":"01ffc9a7","universalBridgeApproveThenCall((address,uint256,uint256,uint256,bytes,address,uint16,uint64))":"f7bc2e78","universalBridgeApproveThenCallWithSig((address,uint256,uint256,uint256,bytes,address,uint16,uint64),(bytes32,address,address,uint256,uint256,uint256,uint16,address,uint256,bytes32,uint64),bytes)":"362d6cd4","universalBridgeTransfer((address,uint256,uint256,uint256,bytes,address,uint16,uint64))":"7143d818","universalBridgeTransferWithDAIPermit((address,uint256,uint256,uint256,bytes,address,uint16,uint64),uint256,uint256,bool,uint8,bytes32,bytes32)":"5248bb70","universalBridgeTransferWithPermit((address,uint256,uint256,uint256,bytes,address,uint16,uint64),uint256,uint8,bytes32,bytes32)":"9eead346","universalBridgeTransferWithSig((address,uint256,uint256,uint256,bytes,address,uint16,uint64),(bytes32,address,address,uint256,uint256,uint256,uint16,address,uint256,bytes32,uint64),bytes)":"b71351d6","usedIntents(bytes32)":"6336803b","usedMessages(bytes32)":"5a028400"},"id":1}