{"abi":[{"type":"constructor","inputs":[{"name":"_name","type":"string","internalType":"string"},{"name":"_symbol","type":"string","internalType":"string"},{"name":"_decimals","type":"uint8","internalType":"uint8"},{"name":"_feeBps","type":"uint256","internalType":"uint256"}],"stateMutability":"nonpayable"},{"type":"function","name":"allowance","inputs":[{"name":"","type":"address","internalType":"address"},{"name":"","type":"address","internalType":"address"}],"outputs":[{"name":"","type":"uint256","internalType":"uint256"}],"stateMutability":"view"},{"type":"function","name":"approve","inputs":[{"name":"spender","type":"address","internalType":"address"},{"name":"amount","type":"uint256","internalType":"uint256"}],"outputs":[{"name":"","type":"bool","internalType":"bool"}],"stateMutability":"nonpayable"},{"type":"function","name":"balanceOf","inputs":[{"name":"","type":"address","internalType":"address"}],"outputs":[{"name":"","type":"uint256","internalType":"uint256"}],"stateMutability":"view"},{"type":"function","name":"decimals","inputs":[],"outputs":[{"name":"","type":"uint8","internalType":"uint8"}],"stateMutability":"view"},{"type":"function","name":"feeBps","inputs":[],"outputs":[{"name":"","type":"uint256","internalType":"uint256"}],"stateMutability":"view"},{"type":"function","name":"mint","inputs":[{"name":"to","type":"address","internalType":"address"},{"name":"amount","type":"uint256","internalType":"uint256"}],"outputs":[],"stateMutability":"nonpayable"},{"type":"function","name":"name","inputs":[],"outputs":[{"name":"","type":"string","internalType":"string"}],"stateMutability":"view"},{"type":"function","name":"symbol","inputs":[],"outputs":[{"name":"","type":"string","internalType":"string"}],"stateMutability":"view"},{"type":"function","name":"totalSupply","inputs":[],"outputs":[{"name":"","type":"uint256","internalType":"uint256"}],"stateMutability":"view"},{"type":"function","name":"transfer","inputs":[{"name":"to","type":"address","internalType":"address"},{"name":"amount","type":"uint256","internalType":"uint256"}],"outputs":[{"name":"","type":"bool","internalType":"bool"}],"stateMutability":"nonpayable"},{"type":"function","name":"transferFrom","inputs":[{"name":"from","type":"address","internalType":"address"},{"name":"to","type":"address","internalType":"address"},{"name":"amount","type":"uint256","internalType":"uint256"}],"outputs":[{"name":"","type":"bool","internalType":"bool"}],"stateMutability":"nonpayable"}],"bytecode":{"object":"0x60806040523461034657610a45803803806100198161034a565b9283398101906080818303126103465780516001600160401b038111610346578261004591830161036f565b602082015190926001600160401b0382116103465761006591830161036f565b9060408101519060ff821680920361034657606001516002805460ff1916601217905583519091906001600160401b03811161025a575f54600181811c9116801561033c575b602082101461023c57601f81116102da575b50602094601f8211600114610279579481929394955f9261026e575b50508160011b915f199060031b1c1916175f555b82516001600160401b03811161025a57600154600181811c91168015610250575b602082101461023c57601f81116101d9575b506020601f821160011461017657819293945f9261016b575b50508160011b915f199060031b1c1916176001555b60ff19600254161760025560045560405161068490816103c18239f35b015190505f80610139565b601f1982169060015f52805f20915f5b8181106101c1575095836001959697106101a9575b505050811b0160015561014e565b01515f1960f88460031b161c191690555f808061019b565b9192602060018192868b015181550194019201610186565b60015f527fb10e2d527612073b26eecdfd717e6a320cf44b4afac2b0732d9fcbe2b7fa0cf6601f830160051c81019160208410610232575b601f0160051c01905b8181106102275750610120565b5f815560010161021a565b9091508190610211565b634e487b7160e01b5f52602260045260245ffd5b90607f169061010e565b634e487b7160e01b5f52604160045260245ffd5b015190505f806100d9565b601f198216955f8052805f20915f5b8881106102c2575083600195969798106102aa575b505050811b015f556100ed565b01515f1960f88460031b161c191690555f808061029d565b91926020600181928685015181550194019201610288565b5f80527f290decd9548b62a8d60345a988386fc84ba6bc95484008f6362f93160ef3e563601f830160051c81019160208410610332575b601f0160051c01905b81811061032757506100bd565b5f815560010161031a565b9091508190610311565b90607f16906100ab565b5f80fd5b6040519190601f01601f191682016001600160401b0381118382101761025a57604052565b81601f82011215610346578051906001600160401b03821161025a5761039e601f8301601f191660200161034a565b928284526020838301011161034657815f9260208093018386015e830101529056fe60806040526004361015610011575f80fd5b5f3560e01c806306fdde031461042a578063095ea7b3146103e357806318160ddd146103c657806323b872dd146102f857806324a9d853146102db578063313ce567146102bb57806340c10f191461026e57806370a082311461023657806395d89b4114610118578063a9059cbb146100e65763dd62ed3e14610092575f80fd5b346100e25760403660031901126100e2576100ab610526565b6100b361053c565b6001600160a01b039182165f908152600660209081526040808320949093168252928352819020549051908152f35b5f80fd5b346100e25760403660031901126100e257602061010e610104610526565b6024359033610580565b6040519015158152f35b346100e2575f3660031901126100e2576040515f6001548060011c9060018116801561022c575b602083108114610218578285529081156101fc57506001146101a6575b50819003601f01601f191681019067ffffffffffffffff821181831017610192576040829052819061018e90826104fc565b0390f35b634e487b7160e01b5f52604160045260245ffd5b60015f9081529091507fb10e2d527612073b26eecdfd717e6a320cf44b4afac2b0732d9fcbe2b7fa0cf65b8282106101e65750602091508201018261015c565b60018160209254838588010152019101906101d1565b90506020925060ff191682840152151560051b8201018261015c565b634e487b7160e01b5f52602260045260245ffd5b91607f169161013f565b346100e25760203660031901126100e2576001600160a01b03610257610526565b165f526005602052602060405f2054604051908152f35b346100e25760403660031901126100e2576102b661028a610526565b6024359060018060a01b03165f52600560205260405f206102ac828254610573565b9055600354610573565b600355005b346100e2575f3660031901126100e257602060ff60025416604051908152f35b346100e2575f3660031901126100e2576020600454604051908152f35b346100e25760603660031901126100e257610311610526565b61031961053c565b6001600160a01b0382165f81815260066020908152604080832033845290915290205460443593919060018101610358575b602061010e868686610580565b92909391828410610395576020946103738461010e96610552565b5f9182526006875260408083203384528852909120559193909250829061034b565b60405162461bcd60e51b8152602060048201526009602482015268616c6c6f77616e636560b81b6044820152606490fd5b346100e2575f3660031901126100e2576020600354604051908152f35b346100e25760403660031901126100e2576103fc610526565b335f52600660205260405f209060018060a01b03165f5260205260405f206024359055602060405160018152f35b346100e2575f3660031901126100e2576040515f80548060011c906001811680156104f2575b602083108114610218578285529081156101fc575060011461049e5750819003601f01601f191681019067ffffffffffffffff821181831017610192576040829052819061018e90826104fc565b5f8080529091507f290decd9548b62a8d60345a988386fc84ba6bc95484008f6362f93160ef3e5635b8282106104dc5750602091508201018261015c565b60018160209254838588010152019101906104c7565b91607f1691610450565b602060409281835280519182918282860152018484015e5f828201840152601f01601f1916010190565b600435906001600160a01b03821682036100e257565b602435906001600160a01b03821682036100e257565b9190820391821161055f57565b634e487b7160e01b5f52601160045260245ffd5b9190820180921161055f57565b60018060a01b031690815f5260056020528260405f2054106106235760045480840290848204148415171561055f576127109004926105bf8482610552565b925f5260056020526105d660405f20918254610552565b905560018060a01b03165f5260056020526105f660405f20918254610573565b905580610604575b50600190565b305f52600560205261061b60405f20918254610573565b90555f6105fe565b60405162461bcd60e51b815260206004820152600360248201526218985b60ea1b6044820152606490fdfea2646970667358221220810d00e1f8109e66c0714868c81148d5b9b9d36f2a1136187b87bb31a2951ec464736f6c634300081a0033","linkReferences":{}},"methodIdentifiers":{"allowance(address,address)":"dd62ed3e","approve(address,uint256)":"095ea7b3","balanceOf(address)":"70a08231","decimals()":"313ce567","feeBps()":"24a9d853","mint(address,uint256)":"40c10f19","name()":"06fdde03","symbol()":"95d89b41","totalSupply()":"18160ddd","transfer(address,uint256)":"a9059cbb","transferFrom(address,address,uint256)":"23b872dd"},"id":15}