{"abi":[{"type":"constructor","inputs":[{"name":"name","type":"string","internalType":"string"},{"name":"symbol","type":"string","internalType":"string"}],"stateMutability":"nonpayable"},{"type":"function","name":"DOMAIN_SEPARATOR","inputs":[],"outputs":[{"name":"","type":"bytes32","internalType":"bytes32"}],"stateMutability":"view"},{"type":"function","name":"PERMIT_TYPEHASH","inputs":[],"outputs":[{"name":"","type":"bytes32","internalType":"bytes32"}],"stateMutability":"view"},{"type":"function","name":"allowance","inputs":[{"name":"owner","type":"address","internalType":"address"},{"name":"spender","type":"address","internalType":"address"}],"outputs":[{"name":"","type":"uint256","internalType":"uint256"}],"stateMutability":"view"},{"type":"function","name":"approve","inputs":[{"name":"spender","type":"address","internalType":"address"},{"name":"value","type":"uint256","internalType":"uint256"}],"outputs":[{"name":"","type":"bool","internalType":"bool"}],"stateMutability":"nonpayable"},{"type":"function","name":"balanceOf","inputs":[{"name":"account","type":"address","internalType":"address"}],"outputs":[{"name":"","type":"uint256","internalType":"uint256"}],"stateMutability":"view"},{"type":"function","name":"decimals","inputs":[],"outputs":[{"name":"","type":"uint8","internalType":"uint8"}],"stateMutability":"view"},{"type":"function","name":"mint","inputs":[{"name":"to","type":"address","internalType":"address"},{"name":"amount","type":"uint256","internalType":"uint256"}],"outputs":[],"stateMutability":"nonpayable"},{"type":"function","name":"name","inputs":[],"outputs":[{"name":"","type":"string","internalType":"string"}],"stateMutability":"view"},{"type":"function","name":"nonces","inputs":[{"name":"","type":"address","internalType":"address"}],"outputs":[{"name":"","type":"uint256","internalType":"uint256"}],"stateMutability":"view"},{"type":"function","name":"permit","inputs":[{"name":"holder","type":"address","internalType":"address"},{"name":"spender","type":"address","internalType":"address"},{"name":"nonce","type":"uint256","internalType":"uint256"},{"name":"expiry","type":"uint256","internalType":"uint256"},{"name":"allowed","type":"bool","internalType":"bool"},{"name":"v","type":"uint8","internalType":"uint8"},{"name":"r","type":"bytes32","internalType":"bytes32"},{"name":"s","type":"bytes32","internalType":"bytes32"}],"outputs":[],"stateMutability":"nonpayable"},{"type":"function","name":"symbol","inputs":[],"outputs":[{"name":"","type":"string","internalType":"string"}],"stateMutability":"view"},{"type":"function","name":"totalSupply","inputs":[],"outputs":[{"name":"","type":"uint256","internalType":"uint256"}],"stateMutability":"view"},{"type":"function","name":"transfer","inputs":[{"name":"to","type":"address","internalType":"address"},{"name":"value","type":"uint256","internalType":"uint256"}],"outputs":[{"name":"","type":"bool","internalType":"bool"}],"stateMutability":"nonpayable"},{"type":"function","name":"transferFrom","inputs":[{"name":"from","type":"address","internalType":"address"},{"name":"to","type":"address","internalType":"address"},{"name":"value","type":"uint256","internalType":"uint256"}],"outputs":[{"name":"","type":"bool","internalType":"bool"}],"stateMutability":"nonpayable"},{"type":"event","name":"Approval","inputs":[{"name":"owner","type":"address","indexed":true,"internalType":"address"},{"name":"spender","type":"address","indexed":true,"internalType":"address"},{"name":"value","type":"uint256","indexed":false,"internalType":"uint256"}],"anonymous":false},{"type":"event","name":"Transfer","inputs":[{"name":"from","type":"address","indexed":true,"internalType":"address"},{"name":"to","type":"address","indexed":true,"internalType":"address"},{"name":"value","type":"uint256","indexed":false,"internalType":"uint256"}],"anonymous":false},{"type":"error","name":"ECDSAInvalidSignature","inputs":[]},{"type":"error","name":"ECDSAInvalidSignatureLength","inputs":[{"name":"length","type":"uint256","internalType":"uint256"}]},{"type":"error","name":"ECDSAInvalidSignatureS","inputs":[{"name":"s","type":"bytes32","internalType":"bytes32"}]},{"type":"error","name":"ERC20InsufficientAllowance","inputs":[{"name":"spender","type":"address","internalType":"address"},{"name":"allowance","type":"uint256","internalType":"uint256"},{"name":"needed","type":"uint256","internalType":"uint256"}]},{"type":"error","name":"ERC20InsufficientBalance","inputs":[{"name":"sender","type":"address","internalType":"address"},{"name":"balance","type":"uint256","internalType":"uint256"},{"name":"needed","type":"uint256","internalType":"uint256"}]},{"type":"error","name":"ERC20InvalidApprover","inputs":[{"name":"approver","type":"address","internalType":"address"}]},{"type":"error","name":"ERC20InvalidReceiver","inputs":[{"name":"receiver","type":"address","internalType":"address"}]},{"type":"error","name":"ERC20InvalidSender","inputs":[{"name":"sender","type":"address","internalType":"address"}]},{"type":"error","name":"ERC20InvalidSpender","inputs":[{"name":"spender","type":"address","internalType":"address"}]}],"bytecode":{"object":"0x60a0806040523461039d57610e4c803803809161001c82856103a1565b833981019060408183031261039d5780516001600160401b03811161039d57826100479183016103c4565b60208201519092906001600160401b03811161039d5761006792016103c4565b8151916001600160401b0383116102b057600354600181811c91168015610393575b602082101461029257601f8111610330575b50602092601f81116001146102cf57809192935f916102c4575b508160011b915f199060031b1c1916176003555b81516001600160401b0381116102b057600454600181811c911680156102a6575b602082101461029257601f811161022f575b50602092601f82116001146101ce57928192935f926101c3575b50508160011b915f199060031b1c1916176004555b6020815191012060409060016020835161014585826103a1565b82815201603160f81b81522082519060208201927f8b73c3c69bb8fe3d512ecc4cf759cc79239f7b179b0ffacaa9a75d522b39400f84528483015260608201524660808201523060a082015260a081526101a060c0826103a1565b51902060805251610a32908161041a823960805181818161031101526105100152f35b015190505f80610116565b601f1982169360045f52805f20915f5b86811061021757508360019596106101ff575b505050811b0160045561012b565b01515f1960f88460031b161c191690555f80806101f1565b919260206001819286850151815501940192016101de565b60045f527f8a35acfbc15ff81a39ae7d344fd709f28e8600b4aa8c65c6b64bfe7fe36bd19b601f830160051c81019160208410610288575b601f0160051c01905b81811061027d57506100fc565b5f8155600101610270565b9091508190610267565b634e487b7160e01b5f52602260045260245ffd5b90607f16906100ea565b634e487b7160e01b5f52604160045260245ffd5b90508201515f6100b5565b601f1981169360035f52805f20905f5b868110610318575082600194959610610300575b5050811b016003556100c9565b8401515f1960f88460031b161c191690555f806102f3565b909160206001819285880151815501930191016102df565b60035f527fc2575a0e9e593c00f959f8c92f12db2869c3395a3b0502d05e2516446f71f85b601f850160051c81019160208610610389575b601f0160051c01905b81811061037e575061009b565b5f8155600101610371565b9091508190610368565b90607f1690610089565b5f80fd5b601f909101601f19168101906001600160401b038211908210176102b057604052565b81601f8201121561039d578051906001600160401b0382116102b057604051926103f8601f8401601f1916602001856103a1565b8284526020838301011161039d57815f9260208093018386015e830101529056fe6080806040526004361015610012575f80fd5b5f3560e01c90816306fdde03146106aa57508063095ea7b31461068457806318160ddd1461066757806323b872dd1461058857806330adf81f1461054e578063313ce567146105335780633644e515146104f957806340c10f191461045757806370a08231146104205780637ecebe00146103e85780638fcbaf0c1461023f57806395d89b411461013b578063a9059cbb1461010a5763dd62ed3e146100b6575f80fd5b34610106576040366003190112610106576100cf61078c565b6100d76107a2565b6001600160a01b039182165f908152600160209081526040808320949093168252928352819020549051908152f35b5f80fd5b346101065760403660031901126101065761013061012661078c565b60243590336107ee565b602060405160018152f35b34610106575f366003190112610106576040515f6004548060011c90600181168015610235575b602083108114610221578285529081156101fd575060011461019f575b61019b8361018f818503826107b8565b60405191829182610762565b0390f35b91905060045f527f8a35acfbc15ff81a39ae7d344fd709f28e8600b4aa8c65c6b64bfe7fe36bd19b915f905b8082106101e35750909150810160200161018f61017f565b9192600181602092548385880101520191019092916101cb565b60ff191660208086019190915291151560051b8401909101915061018f905061017f565b634e487b7160e01b5f52602260045260245ffd5b91607f1691610162565b34610106576101003660031901126101065761025961078c565b6102616107a2565b60843591906064358315158085036101065760a4359060ff82168203610106578242116103b957610362916103599160405160208101917fea2aa0a1be11a07ed86d755c93467f4f82362b452371d1ba94d1715123511acb835260018060a01b0389169687604084015260018060a01b0389166060840152604435608084015260a083015260c082015260c081526102fa60e0826107b8565b5190209060405190602082019261190160f01b84527f000000000000000000000000000000000000000000000000000000000000000060228401526042830152604282526103496062836107b8565b60e4359260c435925190206108fb565b90929192610988565b6001600160a01b03160361038a576103819215610383575f1991610898565b005b5f91610898565b60405162461bcd60e51b81526020600482015260076024820152666261642073696760c81b6044820152606490fd5b60405162461bcd60e51b8152602060048201526007602482015266195e1c1a5c995960ca1b6044820152606490fd5b34610106576020366003190112610106576001600160a01b0361040961078c565b165f526005602052602060405f2054604051908152f35b34610106576020366003190112610106576001600160a01b0361044161078c565b165f525f602052602060405f2054604051908152f35b346101065760403660031901126101065761047061078c565b6001600160a01b031660243581156104e657600254908082018092116104d25760207fddf252ad1be2c89b69c2b068fc378daa952ba7f163c4a11628f55a4df523b3ef915f9360025584845283825260408420818154019055604051908152a3005b634e487b7160e01b5f52601160045260245ffd5b63ec442f0560e01b5f525f60045260245ffd5b34610106575f3660031901126101065760206040517f00000000000000000000000000000000000000000000000000000000000000008152f35b34610106575f36600319011261010657602060405160128152f35b34610106575f3660031901126101065760206040517fea2aa0a1be11a07ed86d755c93467f4f82362b452371d1ba94d1715123511acb8152f35b34610106576060366003190112610106576105a161078c565b6105a96107a2565b6001600160a01b0382165f818152600160209081526040808320338452909152902054909260443592915f1981106105e7575b5061013093506107ee565b83811061064c57841561063957331561062657610130945f52600160205260405f2060018060a01b0333165f526020528360405f2091039055846105dc565b634a1406b160e11b5f525f60045260245ffd5b63e602df0560e01b5f525f60045260245ffd5b8390637dc7a0d960e11b5f523360045260245260445260645ffd5b34610106575f366003190112610106576020600254604051908152f35b34610106576040366003190112610106576101306106a061078c565b6024359033610898565b34610106575f366003190112610106575f6003548060011c90600181168015610758575b602083108114610221578285529081156101fd57506001146106fa5761019b8361018f818503826107b8565b91905060035f527fc2575a0e9e593c00f959f8c92f12db2869c3395a3b0502d05e2516446f71f85b915f905b80821061073e5750909150810160200161018f61017f565b919260018160209254838588010152019101909291610726565b91607f16916106ce565b602060409281835280519182918282860152018484015e5f828201840152601f01601f1916010190565b600435906001600160a01b038216820361010657565b602435906001600160a01b038216820361010657565b90601f8019910116810190811067ffffffffffffffff8211176107da57604052565b634e487b7160e01b5f52604160045260245ffd5b6001600160a01b0316908115610885576001600160a01b03169182156104e657815f525f60205260405f205481811061086c57817fddf252ad1be2c89b69c2b068fc378daa952ba7f163c4a11628f55a4df523b3ef92602092855f525f84520360405f2055845f525f825260405f20818154019055604051908152a3565b8263391434e360e21b5f5260045260245260445260645ffd5b634b637e8f60e11b5f525f60045260245ffd5b6001600160a01b0316908115610639576001600160a01b03169182156106265760207f8c5be1e5ebec7d5bd14f71427d1e84f3dd0314c0f7b2291e5b200ac8c7c3b92591835f526001825260405f20855f5282528060405f2055604051908152a3565b91907f7fffffffffffffffffffffffffffffff5d576e7357a4501ddfe92f46681b20a0841161097d579160209360809260ff5f9560405194855216868401526040830152606082015282805260015afa15610972575f516001600160a01b0381161561096857905f905f90565b505f906001905f90565b6040513d5f823e3d90fd5b5050505f9160039190565b60048110156109e8578061099a575050565b600181036109b15763f645eedf60e01b5f5260045ffd5b600281036109cc575063fce698f760e01b5f5260045260245ffd5b6003146109d65750565b6335e2f38360e21b5f5260045260245ffd5b634e487b7160e01b5f52602160045260245ffdfea2646970667358221220c5a9cbdd97b3c23adbfbc7833dcba2179fdc7a7d711f45788fc4271d23ea895064736f6c634300081a0033","linkReferences":{}},"methodIdentifiers":{"DOMAIN_SEPARATOR()":"3644e515","PERMIT_TYPEHASH()":"30adf81f","allowance(address,address)":"dd62ed3e","approve(address,uint256)":"095ea7b3","balanceOf(address)":"70a08231","decimals()":"313ce567","mint(address,uint256)":"40c10f19","name()":"06fdde03","nonces(address)":"7ecebe00","permit(address,address,uint256,uint256,bool,uint8,bytes32,bytes32)":"8fcbaf0c","symbol()":"95d89b41","totalSupply()":"18160ddd","transfer(address,uint256)":"a9059cbb","transferFrom(address,address,uint256)":"23b872dd"},"id":4}